{
  "contracts/Main.sol": {
    "Main": {
      "abi": [
        {
          "inputs": [],
          "stateMutability": "nonpayable",
          "type": "constructor"
        },
        {
          "anonymous": false,
          "inputs": [
            {
              "indexed": false,
              "internalType": "uint256",
              "name": "flatId",
              "type": "uint256"
            },
            {
              "indexed": false,
              "internalType": "contract Flat",
              "name": "flat",
              "type": "address"
            },
            {
              "indexed": false,
              "internalType": "address",
              "name": "owner",
              "type": "address"
            }
          ],
          "name": "NewFlat",
          "type": "event"
        },
        {
          "anonymous": false,
          "inputs": [
            {
              "indexed": false,
              "internalType": "uint256",
              "name": "houseId",
              "type": "uint256"
            },
            {
              "indexed": false,
              "internalType": "contract House",
              "name": "house",
              "type": "address"
            },
            {
              "indexed": false,
              "internalType": "address",
              "name": "owner",
              "type": "address"
            }
          ],
          "name": "NewHouse",
          "type": "event"
        },
        {
          "inputs": [
            {
              "internalType": "uint256",
              "name": "_bedrooms",
              "type": "uint256"
            },
            {
              "internalType": "uint256",
              "name": "_bathrooms",
              "type": "uint256"
            },
            {
              "internalType": "uint256",
              "name": "_floor",
              "type": "uint256"
            },
            {
              "internalType": "string",
              "name": "_country",
              "type": "string"
            },
            {
              "internalType": "string",
              "name": "_city",
              "type": "string"
            },
            {
              "internalType": "bool",
              "name": "_forSale",
              "type": "bool"
            },
            {
              "internalType": "uint256",
              "name": "_price",
              "type": "uint256"
            }
          ],
          "name": "AddFlat",
          "outputs": [
            {
              "internalType": "uint256",
              "name": "",
              "type": "uint256"
            }
          ],
          "stateMutability": "nonpayable",
          "type": "function"
        },
        {
          "inputs": [
            {
              "internalType": "uint256",
              "name": "_bedrooms",
              "type": "uint256"
            },
            {
              "internalType": "uint256",
              "name": "_bathrooms",
              "type": "uint256"
            },
            {
              "internalType": "uint256",
              "name": "_sqrFootLand",
              "type": "uint256"
            },
            {
              "internalType": "uint256",
              "name": "_floors",
              "type": "uint256"
            },
            {
              "internalType": "string",
              "name": "_country",
              "type": "string"
            },
            {
              "internalType": "string",
              "name": "_city",
              "type": "string"
            },
            {
              "internalType": "bool",
              "name": "_forSale",
              "type": "bool"
            },
            {
              "internalType": "uint256",
              "name": "_price",
              "type": "uint256"
            }
          ],
          "name": "AddHouse",
          "outputs": [
            {
              "internalType": "uint256",
              "name": "",
              "type": "uint256"
            }
          ],
          "stateMutability": "nonpayable",
          "type": "function"
        },
        {
          "inputs": [
            {
              "internalType": "uint256",
              "name": "flatId",
              "type": "uint256"
            }
          ],
          "name": "buyFlat",
          "outputs": [],
          "stateMutability": "payable",
          "type": "function"
        },
        {
          "inputs": [
            {
              "internalType": "uint256",
              "name": "houseId",
              "type": "uint256"
            }
          ],
          "name": "buyHouse",
          "outputs": [],
          "stateMutability": "payable",
          "type": "function"
        },
        {
          "inputs": [
            {
              "internalType": "uint256",
              "name": "houseId",
              "type": "uint256"
            }
          ],
          "name": "getDetails",
          "outputs": [
            {
              "internalType": "uint256",
              "name": "",
              "type": "uint256"
            },
            {
              "internalType": "uint256",
              "name": "",
              "type": "uint256"
            },
            {
              "internalType": "uint256",
              "name": "",
              "type": "uint256"
            },
            {
              "internalType": "uint256",
              "name": "",
              "type": "uint256"
            },
            {
              "internalType": "string",
              "name": "",
              "type": "string"
            },
            {
              "internalType": "string",
              "name": "",
              "type": "string"
            },
            {
              "internalType": "bool",
              "name": "",
              "type": "bool"
            },
            {
              "internalType": "uint256",
              "name": "",
              "type": "uint256"
            }
          ],
          "stateMutability": "view",
          "type": "function"
        },
        {
          "inputs": [],
          "name": "owner",
          "outputs": [
            {
              "internalType": "address payable",
              "name": "",
              "type": "address"
            }
          ],
          "stateMutability": "view",
          "type": "function"
        }
      ],
      "evm": {
        "bytecode": {
          "linkReferences": {},
          "object": "608060405234801561001057600080fd5b5033600260006101000a81548173ffffffffffffffffffffffffffffffffffffffff021916908373ffffffffffffffffffffffffffffffffffffffff16021790555060006003819055506130c8806100696000396000f3fe6080604052600436106200005c5760003560e01c80630234333e14620000615780631f34486f14620000a55780638da5cb5b14620000c5578063b93a89f714620000f5578063c29370251462000140578063eddc42691462000184575b600080fd5b3480156200006e57600080fd5b506200008d60048036038101906200008791906200086d565b620001a4565b6040516200009c919062000ceb565b60405180910390f35b620000c36004803603810190620000bd91906200083b565b62000303565b005b348015620000d257600080fd5b50620000dd620003af565b604051620000ec919062000cce565b60405180910390f35b3480156200010257600080fd5b506200012160048036038101906200011b91906200083b565b620003d5565b6040516200013798979695949392919062000e0d565b60405180910390f35b3480156200014d57600080fd5b506200016c60048036038101906200016691906200095e565b620004bb565b6040516200017b919062000ceb565b60405180910390f35b620001a260048036038101906200019c91906200083b565b6200061c565b005b60008088888888888888604051620001bc90620006c7565b620001ce979695949392919062000d82565b604051809103906000f080158015620001eb573d6000803e3d6000fd5b50905060036000815480929190620002039062001057565b919050555060003360035460405160200162000220919062000c94565b604051602081830303815290604052805190602001206040516020016200024992919062000c64565b6040516020818303038152906040528051906020012060001c9050816001600083815260200190815260200160002060006101000a81548173ffffffffffffffffffffffffffffffffffffffff021916908373ffffffffffffffffffffffffffffffffffffffff1602179055507f1834aaa59a684c87830f389308fdbdfeedd9692177638855c71e46f1a8eda746818333604051620002eb9392919062000d08565b60405180910390a18092505050979650505050505050565b60006001600083815260200190815260200160002060009054906101000a900473ffffffffffffffffffffffffffffffffffffffff1690508073ffffffffffffffffffffffffffffffffffffffff1663a6f9dae134336040518363ffffffff1660e01b815260040162000377919062000cb1565b6000604051808303818588803b1580156200039157600080fd5b505af1158015620003a6573d6000803e3d6000fd5b50505050505050565b600260009054906101000a900473ffffffffffffffffffffffffffffffffffffffff1681565b60008060008060608060008060008060008b815260200190815260200160002060009054906101000a900473ffffffffffffffffffffffffffffffffffffffff1690508073ffffffffffffffffffffffffffffffffffffffff1663fbbf93a06040518163ffffffff1660e01b815260040160006040518083038186803b1580156200045f57600080fd5b505afa15801562000474573d6000803e3d6000fd5b505050506040513d6000823e3d601f19601f820116820180604052508101906200049f919062000a65565b9850985098509850985098509850985050919395975091939597565b6000808989898989898989604051620004d490620006d5565b620004e798979695949392919062000e0d565b604051809103906000f08015801562000504573d6000803e3d6000fd5b509050600360008154809291906200051c9062001057565b919050555060003360035460405160200162000539919062000c94565b604051602081830303815290604052805190602001206040516020016200056292919062000c64565b6040516020818303038152906040528051906020012060001c90508160008083815260200190815260200160002060006101000a81548173ffffffffffffffffffffffffffffffffffffffff021916908373ffffffffffffffffffffffffffffffffffffffff1602179055507f32f3d3bca60f559e4db02a6a6df5d79f05b34e56d933ed6fc8ce1f2da6ad4a4e818333604051620006039392919062000d45565b60405180910390a1809250505098975050505050505050565b600080600083815260200190815260200160002060009054906101000a900473ffffffffffffffffffffffffffffffffffffffff1690508073ffffffffffffffffffffffffffffffffffffffff1663a6f9dae134336040518363ffffffff1660e01b81526004016200068f919062000cb1565b6000604051808303818588803b158015620006a957600080fd5b505af1158015620006be573d6000803e3d6000fd5b50505050505050565b610f5c80620011a683390190565b610f91806200210283390190565b6000620006fa620006f48462000ed2565b62000ea9565b90508281526020810184848401111562000719576200071862001144565b5b6200072684828562000fdc565b509392505050565b6000620007456200073f8462000ed2565b62000ea9565b90508281526020810184848401111562000764576200076362001144565b5b6200077184828562000feb565b509392505050565b6000813590506200078a8162001171565b92915050565b600081519050620007a18162001171565b92915050565b600082601f830112620007bf57620007be6200113f565b5b8135620007d1848260208601620006e3565b91505092915050565b600082601f830112620007f257620007f16200113f565b5b8151620008048482602086016200072e565b91505092915050565b6000813590506200081e816200118b565b92915050565b60008151905062000835816200118b565b92915050565b6000602082840312156200085457620008536200114e565b5b600062000864848285016200080d565b91505092915050565b600080600080600080600060e0888a0312156200088f576200088e6200114e565b5b60006200089f8a828b016200080d565b9750506020620008b28a828b016200080d565b9650506040620008c58a828b016200080d565b955050606088013567ffffffffffffffff811115620008e957620008e862001149565b5b620008f78a828b01620007a7565b945050608088013567ffffffffffffffff8111156200091b576200091a62001149565b5b620009298a828b01620007a7565b93505060a06200093c8a828b0162000779565b92505060c06200094f8a828b016200080d565b91505092959891949750929550565b600080600080600080600080610100898b0312156200098257620009816200114e565b5b6000620009928b828c016200080d565b9850506020620009a58b828c016200080d565b9750506040620009b88b828c016200080d565b9650506060620009cb8b828c016200080d565b955050608089013567ffffffffffffffff811115620009ef57620009ee62001149565b5b620009fd8b828c01620007a7565b94505060a089013567ffffffffffffffff81111562000a215762000a2062001149565b5b62000a2f8b828c01620007a7565b93505060c062000a428b828c0162000779565b92505060e062000a558b828c016200080d565b9150509295985092959890939650565b600080600080600080600080610100898b03121562000a895762000a886200114e565b5b600062000a998b828c0162000824565b985050602062000aac8b828c0162000824565b975050604062000abf8b828c0162000824565b965050606062000ad28b828c0162000824565b955050608089015167ffffffffffffffff81111562000af65762000af562001149565b5b62000b048b828c01620007da565b94505060a089015167ffffffffffffffff81111562000b285762000b2762001149565b5b62000b368b828c01620007da565b93505060c062000b498b828c0162000790565b92505060e062000b5c8b828c0162000824565b9150509295985092959890939650565b62000b778162000f38565b82525050565b62000b888162000f24565b82525050565b62000ba362000b9d8262000f24565b620010a5565b82525050565b62000bb48162000f4c565b82525050565b62000bcf62000bc98262000f58565b620010b9565b82525050565b62000be08162000f8c565b82525050565b62000bf18162000fa0565b82525050565b600062000c048262000f08565b62000c10818562000f13565b935062000c2281856020860162000feb565b62000c2d8162001153565b840191505092915050565b62000c438162000f82565b82525050565b62000c5e62000c588262000f82565b620010d7565b82525050565b600062000c72828562000b8e565b60148201915062000c84828462000bba565b6020820191508190509392505050565b600062000ca2828462000c49565b60208201915081905092915050565b600060208201905062000cc8600083018462000b7d565b92915050565b600060208201905062000ce5600083018462000b6c565b92915050565b600060208201905062000d02600083018462000c38565b92915050565b600060608201905062000d1f600083018662000c38565b62000d2e602083018562000bd5565b62000d3d604083018462000b7d565b949350505050565b600060608201905062000d5c600083018662000c38565b62000d6b602083018562000be6565b62000d7a604083018462000b7d565b949350505050565b600060e08201905062000d99600083018a62000c38565b62000da8602083018962000c38565b62000db7604083018862000c38565b818103606083015262000dcb818762000bf7565b9050818103608083015262000de1818662000bf7565b905062000df260a083018562000ba9565b62000e0160c083018462000c38565b98975050505050505050565b60006101008201905062000e25600083018b62000c38565b62000e34602083018a62000c38565b62000e43604083018962000c38565b62000e52606083018862000c38565b818103608083015262000e66818762000bf7565b905081810360a083015262000e7c818662000bf7565b905062000e8d60c083018562000ba9565b62000e9c60e083018462000c38565b9998505050505050505050565b600062000eb562000ec8565b905062000ec3828262001021565b919050565b6000604051905090565b600067ffffffffffffffff82111562000ef05762000eef62001110565b5b62000efb8262001153565b9050602081019050919050565b600081519050919050565b600082825260208201905092915050565b600062000f318262000f62565b9050919050565b600062000f458262000f62565b9050919050565b60008115159050919050565b6000819050919050565b600073ffffffffffffffffffffffffffffffffffffffff82169050919050565b6000819050919050565b600062000f998262000fb4565b9050919050565b600062000fad8262000fb4565b9050919050565b600062000fc18262000fc8565b9050919050565b600062000fd58262000f62565b9050919050565b82818337600083830152505050565b60005b838110156200100b57808201518184015260208101905062000fee565b838111156200101b576000848401525b50505050565b6200102c8262001153565b810181811067ffffffffffffffff821117156200104e576200104d62001110565b5b80604052505050565b6000620010648262000f82565b91507fffffffffffffffffffffffffffffffffffffffffffffffffffffffffffffffff8214156200109a5762001099620010e1565b5b600182019050919050565b6000620010b282620010c3565b9050919050565b6000819050919050565b6000620010d08262001164565b9050919050565b6000819050919050565b7f4e487b7100000000000000000000000000000000000000000000000000000000600052601160045260246000fd5b7f4e487b7100000000000000000000000000000000000000000000000000000000600052604160045260246000fd5b600080fd5b600080fd5b600080fd5b600080fd5b6000601f19601f8301169050919050565b60008160601b9050919050565b6200117c8162000f4c565b81146200118857600080fd5b50565b620011968162000f82565b8114620011a257600080fd5b5056fe60806040523480156200001157600080fd5b5060405162000f5c38038062000f5c833981810160405281019062000037919062000248565b336000806101000a81548173ffffffffffffffffffffffffffffffffffffffff021916908373ffffffffffffffffffffffffffffffffffffffff1602179055508660018190555085600281905550846003819055508360049080519060200190620000a4929190620000ec565b508260059080519060200190620000bd929190620000ec565b5081600660006101000a81548160ff021916908315150217905550806007819055505050505050505062000507565b828054620000fa90620003e4565b90600052602060002090601f0160209004810192826200011e57600085556200016a565b82601f106200013957805160ff19168380011785556200016a565b828001600101855582156200016a579182015b82811115620001695782518255916020019190600101906200014c565b5b5090506200017991906200017d565b5090565b5b80821115620001985760008160009055506001016200017e565b5090565b6000620001b3620001ad8462000362565b62000339565b905082815260208101848484011115620001d257620001d1620004b3565b5b620001df848285620003ae565b509392505050565b600081519050620001f881620004d3565b92915050565b600082601f830112620002165762000215620004ae565b5b8151620002288482602086016200019c565b91505092915050565b6000815190506200024281620004ed565b92915050565b600080600080600080600060e0888a0312156200026a5762000269620004bd565b5b60006200027a8a828b0162000231565b97505060206200028d8a828b0162000231565b9650506040620002a08a828b0162000231565b955050606088015167ffffffffffffffff811115620002c457620002c3620004b8565b5b620002d28a828b01620001fe565b945050608088015167ffffffffffffffff811115620002f657620002f5620004b8565b5b620003048a828b01620001fe565b93505060a0620003178a828b01620001e7565b92505060c06200032a8a828b0162000231565b91505092959891949750929550565b60006200034562000358565b90506200035382826200041a565b919050565b6000604051905090565b600067ffffffffffffffff82111562000380576200037f6200047f565b5b6200038b82620004c2565b9050602081019050919050565b60008115159050919050565b6000819050919050565b60005b83811015620003ce578082015181840152602081019050620003b1565b83811115620003de576000848401525b50505050565b60006002820490506001821680620003fd57607f821691505b6020821081141562000414576200041362000450565b5b50919050565b6200042582620004c2565b810181811067ffffffffffffffff821117156200044757620004466200047f565b5b80604052505050565b7f4e487b7100000000000000000000000000000000000000000000000000000000600052602260045260246000fd5b7f4e487b7100000000000000000000000000000000000000000000000000000000600052604160045260246000fd5b600080fd5b600080fd5b600080fd5b600080fd5b6000601f19601f8301169050919050565b620004de8162000398565b8114620004ea57600080fd5b50565b620004f881620003a4565b81146200050457600080fd5b50565b610a4580620005176000396000f3fe60806040526004361061003f5760003560e01c8063485f4767146100445780635e3754751461006d578063a6f9dae114610096578063fbbf93a0146100b2575b600080fd5b34801561005057600080fd5b5061006b60048036038101906100669190610672565b6100e3565b005b34801561007957600080fd5b50610094600480360381019061008f9190610632565b61017e565b005b6100b060048036038101906100ab9190610605565b61022c565b005b3480156100be57600080fd5b506100c761046c565b6040516100da97969594939291906107c7565b60405180910390f35b8060008054906101000a900473ffffffffffffffffffffffffffffffffffffffff1673ffffffffffffffffffffffffffffffffffffffff168173ffffffffffffffffffffffffffffffffffffffff1614610172576040517f08c379a000000000000000000000000000000000000000000000000000000000815260040161016990610787565b60405180910390fd5b82600781905550505050565b8060008054906101000a900473ffffffffffffffffffffffffffffffffffffffff1673ffffffffffffffffffffffffffffffffffffffff168173ffffffffffffffffffffffffffffffffffffffff161461020d576040517f08c379a000000000000000000000000000000000000000000000000000000000815260040161020490610787565b60405180910390fd5b82600660006101000a81548160ff021916908315150217905550505050565b60011515600660009054906101000a900460ff1615151461024c57600080fd5b6007543410156102d8578073ffffffffffffffffffffffffffffffffffffffff166108fc349081150290604051600060405180830381858888f1935050505015801561029c573d6000803e3d6000fd5b506040517f08c379a00000000000000000000000000000000000000000000000000000000081526004016102cf906107a7565b60405180910390fd5b60008054906101000a900473ffffffffffffffffffffffffffffffffffffffff1673ffffffffffffffffffffffffffffffffffffffff166108fc349081150290604051600060405180830381858888f1935050505015801561033e573d6000803e3d6000fd5b5060008054906101000a900473ffffffffffffffffffffffffffffffffffffffff16600960006101000a81548173ffffffffffffffffffffffffffffffffffffffff021916908373ffffffffffffffffffffffffffffffffffffffff160217905550806000806101000a81548173ffffffffffffffffffffffffffffffffffffffff021916908373ffffffffffffffffffffffffffffffffffffffff1602179055506000600660006101000a81548160ff02191690831515021790555060075460088190555060006007819055507f4dc7e7dcee44619d786319fc36fdafae2d190c6bc41a6110bcb967a6b10ffa52600960009054906101000a900473ffffffffffffffffffffffffffffffffffffffff1660085460405161046192919061075e565b60405180910390a150565b600080600060608060008060015460025460035460046005600660009054906101000a900460ff166007548380546104a3906108db565b80601f01602080910402602001604051908101604052809291908181526020018280546104cf906108db565b801561051c5780601f106104f15761010080835404028352916020019161051c565b820191906000526020600020905b8154815290600101906020018083116104ff57829003601f168201915b5050505050935082805461052f906108db565b80601f016020809104026020016040519081016040528092919081815260200182805461055b906108db565b80156105a85780601f1061057d576101008083540402835291602001916105a8565b820191906000526020600020905b81548152906001019060200180831161058b57829003601f168201915b50505050509250965096509650965096509650965090919293949596565b6000813590506105d5816109ca565b92915050565b6000813590506105ea816109e1565b92915050565b6000813590506105ff816109f8565b92915050565b60006020828403121561061b5761061a61093c565b5b6000610629848285016105c6565b91505092915050565b600080604083850312156106495761064861093c565b5b6000610657858286016105db565b9250506020610668858286016105c6565b9150509250929050565b600080604083850312156106895761068861093c565b5b6000610697858286016105f0565b92505060206106a8858286016105c6565b9150509250929050565b6106bb81610860565b82525050565b6106ca81610872565b82525050565b60006106db82610844565b6106e5818561084f565b93506106f58185602086016108a8565b6106fe81610941565b840191505092915050565b600061071660258361084f565b915061072182610952565b604082019050919050565b600061073960198361084f565b9150610744826109a1565b602082019050919050565b6107588161089e565b82525050565b600060408201905061077360008301856106b2565b610780602083018461074f565b9392505050565b600060208201905081810360008301526107a081610709565b9050919050565b600060208201905081810360008301526107c08161072c565b9050919050565b600060e0820190506107dc600083018a61074f565b6107e9602083018961074f565b6107f6604083018861074f565b818103606083015261080881876106d0565b9050818103608083015261081c81866106d0565b905061082b60a08301856106c1565b61083860c083018461074f565b98975050505050505050565b600081519050919050565b600082825260208201905092915050565b600061086b8261087e565b9050919050565b60008115159050919050565b600073ffffffffffffffffffffffffffffffffffffffff82169050919050565b6000819050919050565b60005b838110156108c65780820151818401526020810190506108ab565b838111156108d5576000848401525b50505050565b600060028204905060018216806108f357607f821691505b602082108114156109075761090661090d565b5b50919050565b7f4e487b7100000000000000000000000000000000000000000000000000000000600052602260045260246000fd5b600080fd5b6000601f19601f8301169050919050565b7f4f6e6c7920746865206f776e65722063616e2063616c6c20746869732066756e60008201527f6374696f6e000000000000000000000000000000000000000000000000000000602082015250565b7f4e6f7420656e6f756768206574686572207761732073656e7400000000000000600082015250565b6109d381610860565b81146109de57600080fd5b50565b6109ea81610872565b81146109f557600080fd5b50565b610a018161089e565b8114610a0c57600080fd5b5056fea2646970667358221220b4faa5c7ac6bb3b6a807a45ab8adfa58c5fcbd8f3a206c39d86502e85eb7078764736f6c6343000807003360806040523480156200001157600080fd5b5060405162000f9138038062000f91833981810160405281019062000037919062000250565b336000806101000a81548173ffffffffffffffffffffffffffffffffffffffff021916908373ffffffffffffffffffffffffffffffffffffffff160217905550876001819055508660028190555085600381905550846004819055508360059080519060200190620000ab929190620000f4565b508260069080519060200190620000c4929190620000f4565b5081600760006101000a81548160ff02191690831515021790555080600881905550505050505050505062000525565b828054620001029062000402565b90600052602060002090601f01602090048101928262000126576000855562000172565b82601f106200014157805160ff191683800117855562000172565b8280016001018555821562000172579182015b828111156200017157825182559160200191906001019062000154565b5b50905062000181919062000185565b5090565b5b80821115620001a057600081600090555060010162000186565b5090565b6000620001bb620001b58462000380565b62000357565b905082815260208101848484011115620001da57620001d9620004d1565b5b620001e7848285620003cc565b509392505050565b6000815190506200020081620004f1565b92915050565b600082601f8301126200021e576200021d620004cc565b5b815162000230848260208601620001a4565b91505092915050565b6000815190506200024a816200050b565b92915050565b600080600080600080600080610100898b031215620002745762000273620004db565b5b6000620002848b828c0162000239565b9850506020620002978b828c0162000239565b9750506040620002aa8b828c0162000239565b9650506060620002bd8b828c0162000239565b955050608089015167ffffffffffffffff811115620002e157620002e0620004d6565b5b620002ef8b828c0162000206565b94505060a089015167ffffffffffffffff811115620003135762000312620004d6565b5b620003218b828c0162000206565b93505060c0620003348b828c01620001ef565b92505060e0620003478b828c0162000239565b9150509295985092959890939650565b60006200036362000376565b905062000371828262000438565b919050565b6000604051905090565b600067ffffffffffffffff8211156200039e576200039d6200049d565b5b620003a982620004e0565b9050602081019050919050565b60008115159050919050565b6000819050919050565b60005b83811015620003ec578082015181840152602081019050620003cf565b83811115620003fc576000848401525b50505050565b600060028204905060018216806200041b57607f821691505b602082108114156200043257620004316200046e565b5b50919050565b6200044382620004e0565b810181811067ffffffffffffffff821117156200046557620004646200049d565b5b80604052505050565b7f4e487b7100000000000000000000000000000000000000000000000000000000600052602260045260246000fd5b7f4e487b7100000000000000000000000000000000000000000000000000000000600052604160045260246000fd5b600080fd5b600080fd5b600080fd5b600080fd5b6000601f19601f8301169050919050565b620004fc81620003b6565b81146200050857600080fd5b50565b6200051681620003c2565b81146200052257600080fd5b50565b610a5c80620005356000396000f3fe60806040526004361061003f5760003560e01c8063485f4767146100445780635e3754751461006d578063a6f9dae114610096578063fbbf93a0146100b2575b600080fd5b34801561005057600080fd5b5061006b6004803603810190610066919061067a565b6100e4565b005b34801561007957600080fd5b50610094600480360381019061008f919061063a565b61017f565b005b6100b060048036038101906100ab919061060d565b61022d565b005b3480156100be57600080fd5b506100c761046d565b6040516100db9897969594939291906107cf565b60405180910390f35b8060008054906101000a900473ffffffffffffffffffffffffffffffffffffffff1673ffffffffffffffffffffffffffffffffffffffff168173ffffffffffffffffffffffffffffffffffffffff1614610173576040517f08c379a000000000000000000000000000000000000000000000000000000000815260040161016a9061078f565b60405180910390fd5b82600881905550505050565b8060008054906101000a900473ffffffffffffffffffffffffffffffffffffffff1673ffffffffffffffffffffffffffffffffffffffff168173ffffffffffffffffffffffffffffffffffffffff161461020e576040517f08c379a00000000000000000000000000000000000000000000000000000000081526004016102059061078f565b60405180910390fd5b82600760006101000a81548160ff021916908315150217905550505050565b60011515600760009054906101000a900460ff1615151461024d57600080fd5b6008543410156102d9578073ffffffffffffffffffffffffffffffffffffffff166108fc349081150290604051600060405180830381858888f1935050505015801561029d573d6000803e3d6000fd5b506040517f08c379a00000000000000000000000000000000000000000000000000000000081526004016102d0906107af565b60405180910390fd5b60008054906101000a900473ffffffffffffffffffffffffffffffffffffffff1673ffffffffffffffffffffffffffffffffffffffff166108fc349081150290604051600060405180830381858888f1935050505015801561033f573d6000803e3d6000fd5b5060008054906101000a900473ffffffffffffffffffffffffffffffffffffffff16600a60006101000a81548173ffffffffffffffffffffffffffffffffffffffff021916908373ffffffffffffffffffffffffffffffffffffffff160217905550806000806101000a81548173ffffffffffffffffffffffffffffffffffffffff021916908373ffffffffffffffffffffffffffffffffffffffff1602179055506000600760006101000a81548160ff02191690831515021790555060085460098190555060006008819055507f4dc7e7dcee44619d786319fc36fdafae2d190c6bc41a6110bcb967a6b10ffa52600a60009054906101000a900473ffffffffffffffffffffffffffffffffffffffff16600954604051610462929190610766565b60405180910390a150565b60008060008060608060008060015460025460045460035460056006600760009054906101000a900460ff166008548380546104a8906108f2565b80601f01602080910402602001604051908101604052809291908181526020018280546104d4906108f2565b80156105215780601f106104f657610100808354040283529160200191610521565b820191906000526020600020905b81548152906001019060200180831161050457829003601f168201915b50505050509350828054610534906108f2565b80601f0160208091040260200160405190810160405280929190818152602001828054610560906108f2565b80156105ad5780601f10610582576101008083540402835291602001916105ad565b820191906000526020600020905b81548152906001019060200180831161059057829003601f168201915b50505050509250975097509750975097509750975097509091929394959697565b6000813590506105dd816109e1565b92915050565b6000813590506105f2816109f8565b92915050565b60008135905061060781610a0f565b92915050565b60006020828403121561062357610622610953565b5b6000610631848285016105ce565b91505092915050565b6000806040838503121561065157610650610953565b5b600061065f858286016105e3565b9250506020610670858286016105ce565b9150509250929050565b6000806040838503121561069157610690610953565b5b600061069f858286016105f8565b92505060206106b0858286016105ce565b9150509250929050565b6106c381610877565b82525050565b6106d281610889565b82525050565b60006106e38261085b565b6106ed8185610866565b93506106fd8185602086016108bf565b61070681610958565b840191505092915050565b600061071e602583610866565b915061072982610969565b604082019050919050565b6000610741601983610866565b915061074c826109b8565b602082019050919050565b610760816108b5565b82525050565b600060408201905061077b60008301856106ba565b6107886020830184610757565b9392505050565b600060208201905081810360008301526107a881610711565b9050919050565b600060208201905081810360008301526107c881610734565b9050919050565b6000610100820190506107e5600083018b610757565b6107f2602083018a610757565b6107ff6040830189610757565b61080c6060830188610757565b818103608083015261081e81876106d8565b905081810360a083015261083281866106d8565b905061084160c08301856106c9565b61084e60e0830184610757565b9998505050505050505050565b600081519050919050565b600082825260208201905092915050565b600061088282610895565b9050919050565b60008115159050919050565b600073ffffffffffffffffffffffffffffffffffffffff82169050919050565b6000819050919050565b60005b838110156108dd5780820151818401526020810190506108c2565b838111156108ec576000848401525b50505050565b6000600282049050600182168061090a57607f821691505b6020821081141561091e5761091d610924565b5b50919050565b7f4e487b7100000000000000000000000000000000000000000000000000000000600052602260045260246000fd5b600080fd5b6000601f19601f8301169050919050565b7f4f6e6c7920746865206f776e65722063616e2063616c6c20746869732066756e60008201527f6374696f6e000000000000000000000000000000000000000000000000000000602082015250565b7f4e6f7420656e6f756768206574686572207761732073656e7400000000000000600082015250565b6109ea81610877565b81146109f557600080fd5b50565b610a0181610889565b8114610a0c57600080fd5b50565b610a18816108b5565b8114610a2357600080fd5b5056fea26469706673582212208803ae96e23b98c0c17853e363adf355d3adf69efe2ad2c84411481d2886323d64736f6c63430008070033a26469706673582212206ac035edc2d723f5ebbfe45d06b45016742e0b0ea68659698c97fc8b5dc8422664736f6c63430008070033",
          "opcodes": "PUSH1 0x80 PUSH1 0x40 MSTORE CALLVALUE DUP1 ISZERO PUSH2 0x10 JUMPI PUSH1 0x0 DUP1 REVERT JUMPDEST POP CALLER PUSH1 0x2 PUSH1 0x0 PUSH2 0x100 EXP DUP2 SLOAD DUP2 PUSH20 0xFFFFFFFFFFFFFFFFFFFFFFFFFFFFFFFFFFFFFFFF MUL NOT AND SWAP1 DUP4 PUSH20 0xFFFFFFFFFFFFFFFFFFFFFFFFFFFFFFFFFFFFFFFF AND MUL OR SWAP1 SSTORE POP PUSH1 0x0 PUSH1 0x3 DUP2 SWAP1 SSTORE POP PUSH2 0x30C8 DUP1 PUSH2 0x69 PUSH1 0x0 CODECOPY PUSH1 0x0 RETURN INVALID PUSH1 0x80 PUSH1 0x40 MSTORE PUSH1 0x4 CALLDATASIZE LT PUSH3 0x5C JUMPI PUSH1 0x0 CALLDATALOAD PUSH1 0xE0 SHR DUP1 PUSH4 0x234333E EQ PUSH3 0x61 JUMPI DUP1 PUSH4 0x1F34486F EQ PUSH3 0xA5 JUMPI DUP1 PUSH4 0x8DA5CB5B EQ PUSH3 0xC5 JUMPI DUP1 PUSH4 0xB93A89F7 EQ PUSH3 0xF5 JUMPI DUP1 PUSH4 0xC2937025 EQ PUSH3 0x140 JUMPI DUP1 PUSH4 0xEDDC4269 EQ PUSH3 0x184 JUMPI JUMPDEST PUSH1 0x0 DUP1 REVERT JUMPDEST CALLVALUE DUP1 ISZERO PUSH3 0x6E JUMPI PUSH1 0x0 DUP1 REVERT JUMPDEST POP PUSH3 0x8D PUSH1 0x4 DUP1 CALLDATASIZE SUB DUP2 ADD SWAP1 PUSH3 0x87 SWAP2 SWAP1 PUSH3 0x86D JUMP JUMPDEST PUSH3 0x1A4 JUMP JUMPDEST PUSH1 0x40 MLOAD PUSH3 0x9C SWAP2 SWAP1 PUSH3 0xCEB JUMP JUMPDEST PUSH1 0x40 MLOAD DUP1 SWAP2 SUB SWAP1 RETURN JUMPDEST PUSH3 0xC3 PUSH1 0x4 DUP1 CALLDATASIZE SUB DUP2 ADD SWAP1 PUSH3 0xBD SWAP2 SWAP1 PUSH3 0x83B JUMP JUMPDEST PUSH3 0x303 JUMP JUMPDEST STOP JUMPDEST CALLVALUE DUP1 ISZERO PUSH3 0xD2 JUMPI PUSH1 0x0 DUP1 REVERT JUMPDEST POP PUSH3 0xDD PUSH3 0x3AF JUMP JUMPDEST PUSH1 0x40 MLOAD PUSH3 0xEC SWAP2 SWAP1 PUSH3 0xCCE JUMP JUMPDEST PUSH1 0x40 MLOAD DUP1 SWAP2 SUB SWAP1 RETURN JUMPDEST CALLVALUE DUP1 ISZERO PUSH3 0x102 JUMPI PUSH1 0x0 DUP1 REVERT JUMPDEST POP PUSH3 0x121 PUSH1 0x4 DUP1 CALLDATASIZE SUB DUP2 ADD SWAP1 PUSH3 0x11B SWAP2 SWAP1 PUSH3 0x83B JUMP JUMPDEST PUSH3 0x3D5 JUMP JUMPDEST PUSH1 0x40 MLOAD PUSH3 0x137 SWAP9 SWAP8 SWAP7 SWAP6 SWAP5 SWAP4 SWAP3 SWAP2 SWAP1 PUSH3 0xE0D JUMP JUMPDEST PUSH1 0x40 MLOAD DUP1 SWAP2 SUB SWAP1 RETURN JUMPDEST CALLVALUE DUP1 ISZERO PUSH3 0x14D JUMPI PUSH1 0x0 DUP1 REVERT JUMPDEST POP PUSH3 0x16C PUSH1 0x4 DUP1 CALLDATASIZE SUB DUP2 ADD SWAP1 PUSH3 0x166 SWAP2 SWAP1 PUSH3 0x95E JUMP JUMPDEST PUSH3 0x4BB JUMP JUMPDEST PUSH1 0x40 MLOAD PUSH3 0x17B SWAP2 SWAP1 PUSH3 0xCEB JUMP JUMPDEST PUSH1 0x40 MLOAD DUP1 SWAP2 SUB SWAP1 RETURN JUMPDEST PUSH3 0x1A2 PUSH1 0x4 DUP1 CALLDATASIZE SUB DUP2 ADD SWAP1 PUSH3 0x19C SWAP2 SWAP1 PUSH3 0x83B JUMP JUMPDEST PUSH3 0x61C JUMP JUMPDEST STOP JUMPDEST PUSH1 0x0 DUP1 DUP9 DUP9 DUP9 DUP9 DUP9 DUP9 DUP9 PUSH1 0x40 MLOAD PUSH3 0x1BC SWAP1 PUSH3 0x6C7 JUMP JUMPDEST PUSH3 0x1CE SWAP8 SWAP7 SWAP6 SWAP5 SWAP4 SWAP3 SWAP2 SWAP1 PUSH3 0xD82 JUMP JUMPDEST PUSH1 0x40 MLOAD DUP1 SWAP2 SUB SWAP1 PUSH1 0x0 CREATE DUP1 ISZERO DUP1 ISZERO PUSH3 0x1EB JUMPI RETURNDATASIZE PUSH1 0x0 DUP1 RETURNDATACOPY RETURNDATASIZE PUSH1 0x0 REVERT JUMPDEST POP SWAP1 POP PUSH1 0x3 PUSH1 0x0 DUP2 SLOAD DUP1 SWAP3 SWAP2 SWAP1 PUSH3 0x203 SWAP1 PUSH3 0x1057 JUMP JUMPDEST SWAP2 SWAP1 POP SSTORE POP PUSH1 0x0 CALLER PUSH1 0x3 SLOAD PUSH1 0x40 MLOAD PUSH1 0x20 ADD PUSH3 0x220 SWAP2 SWAP1 PUSH3 0xC94 JUMP JUMPDEST PUSH1 0x40 MLOAD PUSH1 0x20 DUP2 DUP4 SUB SUB DUP2 MSTORE SWAP1 PUSH1 0x40 MSTORE DUP1 MLOAD SWAP1 PUSH1 0x20 ADD KECCAK256 PUSH1 0x40 MLOAD PUSH1 0x20 ADD PUSH3 0x249 SWAP3 SWAP2 SWAP1 PUSH3 0xC64 JUMP JUMPDEST PUSH1 0x40 MLOAD PUSH1 0x20 DUP2 DUP4 SUB SUB DUP2 MSTORE SWAP1 PUSH1 0x40 MSTORE DUP1 MLOAD SWAP1 PUSH1 0x20 ADD KECCAK256 PUSH1 0x0 SHR SWAP1 POP DUP2 PUSH1 0x1 PUSH1 0x0 DUP4 DUP2 MSTORE PUSH1 0x20 ADD SWAP1 DUP2 MSTORE PUSH1 0x20 ADD PUSH1 0x0 KECCAK256 PUSH1 0x0 PUSH2 0x100 EXP DUP2 SLOAD DUP2 PUSH20 0xFFFFFFFFFFFFFFFFFFFFFFFFFFFFFFFFFFFFFFFF MUL NOT AND SWAP1 DUP4 PUSH20 0xFFFFFFFFFFFFFFFFFFFFFFFFFFFFFFFFFFFFFFFF AND MUL OR SWAP1 SSTORE POP PUSH32 0x1834AAA59A684C87830F389308FDBDFEEDD9692177638855C71E46F1A8EDA746 DUP2 DUP4 CALLER PUSH1 0x40 MLOAD PUSH3 0x2EB SWAP4 SWAP3 SWAP2 SWAP1 PUSH3 0xD08 JUMP JUMPDEST PUSH1 0x40 MLOAD DUP1 SWAP2 SUB SWAP1 LOG1 DUP1 SWAP3 POP POP POP SWAP8 SWAP7 POP POP POP POP POP POP POP JUMP JUMPDEST PUSH1 0x0 PUSH1 0x1 PUSH1 0x0 DUP4 DUP2 MSTORE PUSH1 0x20 ADD SWAP1 DUP2 MSTORE PUSH1 0x20 ADD PUSH1 0x0 KECCAK256 PUSH1 0x0 SWAP1 SLOAD SWAP1 PUSH2 0x100 EXP SWAP1 DIV PUSH20 0xFFFFFFFFFFFFFFFFFFFFFFFFFFFFFFFFFFFFFFFF AND SWAP1 POP DUP1 PUSH20 0xFFFFFFFFFFFFFFFFFFFFFFFFFFFFFFFFFFFFFFFF AND PUSH4 0xA6F9DAE1 CALLVALUE CALLER PUSH1 0x40 MLOAD DUP4 PUSH4 0xFFFFFFFF AND PUSH1 0xE0 SHL DUP2 MSTORE PUSH1 0x4 ADD PUSH3 0x377 SWAP2 SWAP1 PUSH3 0xCB1 JUMP JUMPDEST PUSH1 0x0 PUSH1 0x40 MLOAD DUP1 DUP4 SUB DUP2 DUP6 DUP9 DUP1 EXTCODESIZE ISZERO DUP1 ISZERO PUSH3 0x391 JUMPI PUSH1 0x0 DUP1 REVERT JUMPDEST POP GAS CALL ISZERO DUP1 ISZERO PUSH3 0x3A6 JUMPI RETURNDATASIZE PUSH1 0x0 DUP1 RETURNDATACOPY RETURNDATASIZE PUSH1 0x0 REVERT JUMPDEST POP POP POP POP POP POP POP JUMP JUMPDEST PUSH1 0x2 PUSH1 0x0 SWAP1 SLOAD SWAP1 PUSH2 0x100 EXP SWAP1 DIV PUSH20 0xFFFFFFFFFFFFFFFFFFFFFFFFFFFFFFFFFFFFFFFF AND DUP2 JUMP JUMPDEST PUSH1 0x0 DUP1 PUSH1 0x0 DUP1 PUSH1 0x60 DUP1 PUSH1 0x0 DUP1 PUSH1 0x0 DUP1 PUSH1 0x0 DUP12 DUP2 MSTORE PUSH1 0x20 ADD SWAP1 DUP2 MSTORE PUSH1 0x20 ADD PUSH1 0x0 KECCAK256 PUSH1 0x0 SWAP1 SLOAD SWAP1 PUSH2 0x100 EXP SWAP1 DIV PUSH20 0xFFFFFFFFFFFFFFFFFFFFFFFFFFFFFFFFFFFFFFFF AND SWAP1 POP DUP1 PUSH20 0xFFFFFFFFFFFFFFFFFFFFFFFFFFFFFFFFFFFFFFFF AND PUSH4 0xFBBF93A0 PUSH1 0x40 MLOAD DUP2 PUSH4 0xFFFFFFFF AND PUSH1 0xE0 SHL DUP2 MSTORE PUSH1 0x4 ADD PUSH1 0x0 PUSH1 0x40 MLOAD DUP1 DUP4 SUB DUP2 DUP7 DUP1 EXTCODESIZE ISZERO DUP1 ISZERO PUSH3 0x45F JUMPI PUSH1 0x0 DUP1 REVERT JUMPDEST POP GAS STATICCALL ISZERO DUP1 ISZERO PUSH3 0x474 JUMPI RETURNDATASIZE PUSH1 0x0 DUP1 RETURNDATACOPY RETURNDATASIZE PUSH1 0x0 REVERT JUMPDEST POP POP POP POP PUSH1 0x40 MLOAD RETURNDATASIZE PUSH1 0x0 DUP3 RETURNDATACOPY RETURNDATASIZE PUSH1 0x1F NOT PUSH1 0x1F DUP3 ADD AND DUP3 ADD DUP1 PUSH1 0x40 MSTORE POP DUP2 ADD SWAP1 PUSH3 0x49F SWAP2 SWAP1 PUSH3 0xA65 JUMP JUMPDEST SWAP9 POP SWAP9 POP SWAP9 POP SWAP9 POP SWAP9 POP SWAP9 POP SWAP9 POP SWAP9 POP POP SWAP2 SWAP4 SWAP6 SWAP8 POP SWAP2 SWAP4 SWAP6 SWAP8 JUMP JUMPDEST PUSH1 0x0 DUP1 DUP10 DUP10 DUP10 DUP10 DUP10 DUP10 DUP10 DUP10 PUSH1 0x40 MLOAD PUSH3 0x4D4 SWAP1 PUSH3 0x6D5 JUMP JUMPDEST PUSH3 0x4E7 SWAP9 SWAP8 SWAP7 SWAP6 SWAP5 SWAP4 SWAP3 SWAP2 SWAP1 PUSH3 0xE0D JUMP JUMPDEST PUSH1 0x40 MLOAD DUP1 SWAP2 SUB SWAP1 PUSH1 0x0 CREATE DUP1 ISZERO DUP1 ISZERO PUSH3 0x504 JUMPI RETURNDATASIZE PUSH1 0x0 DUP1 RETURNDATACOPY RETURNDATASIZE PUSH1 0x0 REVERT JUMPDEST POP SWAP1 POP PUSH1 0x3 PUSH1 0x0 DUP2 SLOAD DUP1 SWAP3 SWAP2 SWAP1 PUSH3 0x51C SWAP1 PUSH3 0x1057 JUMP JUMPDEST SWAP2 SWAP1 POP SSTORE POP PUSH1 0x0 CALLER PUSH1 0x3 SLOAD PUSH1 0x40 MLOAD PUSH1 0x20 ADD PUSH3 0x539 SWAP2 SWAP1 PUSH3 0xC94 JUMP JUMPDEST PUSH1 0x40 MLOAD PUSH1 0x20 DUP2 DUP4 SUB SUB DUP2 MSTORE SWAP1 PUSH1 0x40 MSTORE DUP1 MLOAD SWAP1 PUSH1 0x20 ADD KECCAK256 PUSH1 0x40 MLOAD PUSH1 0x20 ADD PUSH3 0x562 SWAP3 SWAP2 SWAP1 PUSH3 0xC64 JUMP JUMPDEST PUSH1 0x40 MLOAD PUSH1 0x20 DUP2 DUP4 SUB SUB DUP2 MSTORE SWAP1 PUSH1 0x40 MSTORE DUP1 MLOAD SWAP1 PUSH1 0x20 ADD KECCAK256 PUSH1 0x0 SHR SWAP1 POP DUP2 PUSH1 0x0 DUP1 DUP4 DUP2 MSTORE PUSH1 0x20 ADD SWAP1 DUP2 MSTORE PUSH1 0x20 ADD PUSH1 0x0 KECCAK256 PUSH1 0x0 PUSH2 0x100 EXP DUP2 SLOAD DUP2 PUSH20 0xFFFFFFFFFFFFFFFFFFFFFFFFFFFFFFFFFFFFFFFF MUL NOT AND SWAP1 DUP4 PUSH20 0xFFFFFFFFFFFFFFFFFFFFFFFFFFFFFFFFFFFFFFFF AND MUL OR SWAP1 SSTORE POP PUSH32 0x32F3D3BCA60F559E4DB02A6A6DF5D79F05B34E56D933ED6FC8CE1F2DA6AD4A4E DUP2 DUP4 CALLER PUSH1 0x40 MLOAD PUSH3 0x603 SWAP4 SWAP3 SWAP2 SWAP1 PUSH3 0xD45 JUMP JUMPDEST PUSH1 0x40 MLOAD DUP1 SWAP2 SUB SWAP1 LOG1 DUP1 SWAP3 POP POP POP SWAP9 SWAP8 POP POP POP POP POP POP POP POP JUMP JUMPDEST PUSH1 0x0 DUP1 PUSH1 0x0 DUP4 DUP2 MSTORE PUSH1 0x20 ADD SWAP1 DUP2 MSTORE PUSH1 0x20 ADD PUSH1 0x0 KECCAK256 PUSH1 0x0 SWAP1 SLOAD SWAP1 PUSH2 0x100 EXP SWAP1 DIV PUSH20 0xFFFFFFFFFFFFFFFFFFFFFFFFFFFFFFFFFFFFFFFF AND SWAP1 POP DUP1 PUSH20 0xFFFFFFFFFFFFFFFFFFFFFFFFFFFFFFFFFFFFFFFF AND PUSH4 0xA6F9DAE1 CALLVALUE CALLER PUSH1 0x40 MLOAD DUP4 PUSH4 0xFFFFFFFF AND PUSH1 0xE0 SHL DUP2 MSTORE PUSH1 0x4 ADD PUSH3 0x68F SWAP2 SWAP1 PUSH3 0xCB1 JUMP JUMPDEST PUSH1 0x0 PUSH1 0x40 MLOAD DUP1 DUP4 SUB DUP2 DUP6 DUP9 DUP1 EXTCODESIZE ISZERO DUP1 ISZERO PUSH3 0x6A9 JUMPI PUSH1 0x0 DUP1 REVERT JUMPDEST POP GAS CALL ISZERO DUP1 ISZERO PUSH3 0x6BE JUMPI RETURNDATASIZE PUSH1 0x0 DUP1 RETURNDATACOPY RETURNDATASIZE PUSH1 0x0 REVERT JUMPDEST POP POP POP POP POP POP POP JUMP JUMPDEST PUSH2 0xF5C DUP1 PUSH3 0x11A6 DUP4 CODECOPY ADD SWAP1 JUMP JUMPDEST PUSH2 0xF91 DUP1 PUSH3 0x2102 DUP4 CODECOPY ADD SWAP1 JUMP JUMPDEST PUSH1 0x0 PUSH3 0x6FA PUSH3 0x6F4 DUP5 PUSH3 0xED2 JUMP JUMPDEST PUSH3 0xEA9 JUMP JUMPDEST SWAP1 POP DUP3 DUP2 MSTORE PUSH1 0x20 DUP2 ADD DUP5 DUP5 DUP5 ADD GT ISZERO PUSH3 0x719 JUMPI PUSH3 0x718 PUSH3 0x1144 JUMP JUMPDEST JUMPDEST PUSH3 0x726 DUP5 DUP3 DUP6 PUSH3 0xFDC JUMP JUMPDEST POP SWAP4 SWAP3 POP POP POP JUMP JUMPDEST PUSH1 0x0 PUSH3 0x745 PUSH3 0x73F DUP5 PUSH3 0xED2 JUMP JUMPDEST PUSH3 0xEA9 JUMP JUMPDEST SWAP1 POP DUP3 DUP2 MSTORE PUSH1 0x20 DUP2 ADD DUP5 DUP5 DUP5 ADD GT ISZERO PUSH3 0x764 JUMPI PUSH3 0x763 PUSH3 0x1144 JUMP JUMPDEST JUMPDEST PUSH3 0x771 DUP5 DUP3 DUP6 PUSH3 0xFEB JUMP JUMPDEST POP SWAP4 SWAP3 POP POP POP JUMP JUMPDEST PUSH1 0x0 DUP2 CALLDATALOAD SWAP1 POP PUSH3 0x78A DUP2 PUSH3 0x1171 JUMP JUMPDEST SWAP3 SWAP2 POP POP JUMP JUMPDEST PUSH1 0x0 DUP2 MLOAD SWAP1 POP PUSH3 0x7A1 DUP2 PUSH3 0x1171 JUMP JUMPDEST SWAP3 SWAP2 POP POP JUMP JUMPDEST PUSH1 0x0 DUP3 PUSH1 0x1F DUP4 ADD SLT PUSH3 0x7BF JUMPI PUSH3 0x7BE PUSH3 0x113F JUMP JUMPDEST JUMPDEST DUP2 CALLDATALOAD PUSH3 0x7D1 DUP5 DUP3 PUSH1 0x20 DUP7 ADD PUSH3 0x6E3 JUMP JUMPDEST SWAP2 POP POP SWAP3 SWAP2 POP POP JUMP JUMPDEST PUSH1 0x0 DUP3 PUSH1 0x1F DUP4 ADD SLT PUSH3 0x7F2 JUMPI PUSH3 0x7F1 PUSH3 0x113F JUMP JUMPDEST JUMPDEST DUP2 MLOAD PUSH3 0x804 DUP5 DUP3 PUSH1 0x20 DUP7 ADD PUSH3 0x72E JUMP JUMPDEST SWAP2 POP POP SWAP3 SWAP2 POP POP JUMP JUMPDEST PUSH1 0x0 DUP2 CALLDATALOAD SWAP1 POP PUSH3 0x81E DUP2 PUSH3 0x118B JUMP JUMPDEST SWAP3 SWAP2 POP POP JUMP JUMPDEST PUSH1 0x0 DUP2 MLOAD SWAP1 POP PUSH3 0x835 DUP2 PUSH3 0x118B JUMP JUMPDEST SWAP3 SWAP2 POP POP JUMP JUMPDEST PUSH1 0x0 PUSH1 0x20 DUP3 DUP5 SUB SLT ISZERO PUSH3 0x854 JUMPI PUSH3 0x853 PUSH3 0x114E JUMP JUMPDEST JUMPDEST PUSH1 0x0 PUSH3 0x864 DUP5 DUP3 DUP6 ADD PUSH3 0x80D JUMP JUMPDEST SWAP2 POP POP SWAP3 SWAP2 POP POP JUMP JUMPDEST PUSH1 0x0 DUP1 PUSH1 0x0 DUP1 PUSH1 0x0 DUP1 PUSH1 0x0 PUSH1 0xE0 DUP9 DUP11 SUB SLT ISZERO PUSH3 0x88F JUMPI PUSH3 0x88E PUSH3 0x114E JUMP JUMPDEST JUMPDEST PUSH1 0x0 PUSH3 0x89F DUP11 DUP3 DUP12 ADD PUSH3 0x80D JUMP JUMPDEST SWAP8 POP POP PUSH1 0x20 PUSH3 0x8B2 DUP11 DUP3 DUP12 ADD PUSH3 0x80D JUMP JUMPDEST SWAP7 POP POP PUSH1 0x40 PUSH3 0x8C5 DUP11 DUP3 DUP12 ADD PUSH3 0x80D JUMP JUMPDEST SWAP6 POP POP PUSH1 0x60 DUP9 ADD CALLDATALOAD PUSH8 0xFFFFFFFFFFFFFFFF DUP2 GT ISZERO PUSH3 0x8E9 JUMPI PUSH3 0x8E8 PUSH3 0x1149 JUMP JUMPDEST JUMPDEST PUSH3 0x8F7 DUP11 DUP3 DUP12 ADD PUSH3 0x7A7 JUMP JUMPDEST SWAP5 POP POP PUSH1 0x80 DUP9 ADD CALLDATALOAD PUSH8 0xFFFFFFFFFFFFFFFF DUP2 GT ISZERO PUSH3 0x91B JUMPI PUSH3 0x91A PUSH3 0x1149 JUMP JUMPDEST JUMPDEST PUSH3 0x929 DUP11 DUP3 DUP12 ADD PUSH3 0x7A7 JUMP JUMPDEST SWAP4 POP POP PUSH1 0xA0 PUSH3 0x93C DUP11 DUP3 DUP12 ADD PUSH3 0x779 JUMP JUMPDEST SWAP3 POP POP PUSH1 0xC0 PUSH3 0x94F DUP11 DUP3 DUP12 ADD PUSH3 0x80D JUMP JUMPDEST SWAP2 POP POP SWAP3 SWAP6 SWAP9 SWAP2 SWAP5 SWAP8 POP SWAP3 SWAP6 POP JUMP JUMPDEST PUSH1 0x0 DUP1 PUSH1 0x0 DUP1 PUSH1 0x0 DUP1 PUSH1 0x0 DUP1 PUSH2 0x100 DUP10 DUP12 SUB SLT ISZERO PUSH3 0x982 JUMPI PUSH3 0x981 PUSH3 0x114E JUMP JUMPDEST JUMPDEST PUSH1 0x0 PUSH3 0x992 DUP12 DUP3 DUP13 ADD PUSH3 0x80D JUMP JUMPDEST SWAP9 POP POP PUSH1 0x20 PUSH3 0x9A5 DUP12 DUP3 DUP13 ADD PUSH3 0x80D JUMP JUMPDEST SWAP8 POP POP PUSH1 0x40 PUSH3 0x9B8 DUP12 DUP3 DUP13 ADD PUSH3 0x80D JUMP JUMPDEST SWAP7 POP POP PUSH1 0x60 PUSH3 0x9CB DUP12 DUP3 DUP13 ADD PUSH3 0x80D JUMP JUMPDEST SWAP6 POP POP PUSH1 0x80 DUP10 ADD CALLDATALOAD PUSH8 0xFFFFFFFFFFFFFFFF DUP2 GT ISZERO PUSH3 0x9EF JUMPI PUSH3 0x9EE PUSH3 0x1149 JUMP JUMPDEST JUMPDEST PUSH3 0x9FD DUP12 DUP3 DUP13 ADD PUSH3 0x7A7 JUMP JUMPDEST SWAP5 POP POP PUSH1 0xA0 DUP10 ADD CALLDATALOAD PUSH8 0xFFFFFFFFFFFFFFFF DUP2 GT ISZERO PUSH3 0xA21 JUMPI PUSH3 0xA20 PUSH3 0x1149 JUMP JUMPDEST JUMPDEST PUSH3 0xA2F DUP12 DUP3 DUP13 ADD PUSH3 0x7A7 JUMP JUMPDEST SWAP4 POP POP PUSH1 0xC0 PUSH3 0xA42 DUP12 DUP3 DUP13 ADD PUSH3 0x779 JUMP JUMPDEST SWAP3 POP POP PUSH1 0xE0 PUSH3 0xA55 DUP12 DUP3 DUP13 ADD PUSH3 0x80D JUMP JUMPDEST SWAP2 POP POP SWAP3 SWAP6 SWAP9 POP SWAP3 SWAP6 SWAP9 SWAP1 SWAP4 SWAP7 POP JUMP JUMPDEST PUSH1 0x0 DUP1 PUSH1 0x0 DUP1 PUSH1 0x0 DUP1 PUSH1 0x0 DUP1 PUSH2 0x100 DUP10 DUP12 SUB SLT ISZERO PUSH3 0xA89 JUMPI PUSH3 0xA88 PUSH3 0x114E JUMP JUMPDEST JUMPDEST PUSH1 0x0 PUSH3 0xA99 DUP12 DUP3 DUP13 ADD PUSH3 0x824 JUMP JUMPDEST SWAP9 POP POP PUSH1 0x20 PUSH3 0xAAC DUP12 DUP3 DUP13 ADD PUSH3 0x824 JUMP JUMPDEST SWAP8 POP POP PUSH1 0x40 PUSH3 0xABF DUP12 DUP3 DUP13 ADD PUSH3 0x824 JUMP JUMPDEST SWAP7 POP POP PUSH1 0x60 PUSH3 0xAD2 DUP12 DUP3 DUP13 ADD PUSH3 0x824 JUMP JUMPDEST SWAP6 POP POP PUSH1 0x80 DUP10 ADD MLOAD PUSH8 0xFFFFFFFFFFFFFFFF DUP2 GT ISZERO PUSH3 0xAF6 JUMPI PUSH3 0xAF5 PUSH3 0x1149 JUMP JUMPDEST JUMPDEST PUSH3 0xB04 DUP12 DUP3 DUP13 ADD PUSH3 0x7DA JUMP JUMPDEST SWAP5 POP POP PUSH1 0xA0 DUP10 ADD MLOAD PUSH8 0xFFFFFFFFFFFFFFFF DUP2 GT ISZERO PUSH3 0xB28 JUMPI PUSH3 0xB27 PUSH3 0x1149 JUMP JUMPDEST JUMPDEST PUSH3 0xB36 DUP12 DUP3 DUP13 ADD PUSH3 0x7DA JUMP JUMPDEST SWAP4 POP POP PUSH1 0xC0 PUSH3 0xB49 DUP12 DUP3 DUP13 ADD PUSH3 0x790 JUMP JUMPDEST SWAP3 POP POP PUSH1 0xE0 PUSH3 0xB5C DUP12 DUP3 DUP13 ADD PUSH3 0x824 JUMP JUMPDEST SWAP2 POP POP SWAP3 SWAP6 SWAP9 POP SWAP3 SWAP6 SWAP9 SWAP1 SWAP4 SWAP7 POP JUMP JUMPDEST PUSH3 0xB77 DUP2 PUSH3 0xF38 JUMP JUMPDEST DUP3 MSTORE POP POP JUMP JUMPDEST PUSH3 0xB88 DUP2 PUSH3 0xF24 JUMP JUMPDEST DUP3 MSTORE POP POP JUMP JUMPDEST PUSH3 0xBA3 PUSH3 0xB9D DUP3 PUSH3 0xF24 JUMP JUMPDEST PUSH3 0x10A5 JUMP JUMPDEST DUP3 MSTORE POP POP JUMP JUMPDEST PUSH3 0xBB4 DUP2 PUSH3 0xF4C JUMP JUMPDEST DUP3 MSTORE POP POP JUMP JUMPDEST PUSH3 0xBCF PUSH3 0xBC9 DUP3 PUSH3 0xF58 JUMP JUMPDEST PUSH3 0x10B9 JUMP JUMPDEST DUP3 MSTORE POP POP JUMP JUMPDEST PUSH3 0xBE0 DUP2 PUSH3 0xF8C JUMP JUMPDEST DUP3 MSTORE POP POP JUMP JUMPDEST PUSH3 0xBF1 DUP2 PUSH3 0xFA0 JUMP JUMPDEST DUP3 MSTORE POP POP JUMP JUMPDEST PUSH1 0x0 PUSH3 0xC04 DUP3 PUSH3 0xF08 JUMP JUMPDEST PUSH3 0xC10 DUP2 DUP6 PUSH3 0xF13 JUMP JUMPDEST SWAP4 POP PUSH3 0xC22 DUP2 DUP6 PUSH1 0x20 DUP7 ADD PUSH3 0xFEB JUMP JUMPDEST PUSH3 0xC2D DUP2 PUSH3 0x1153 JUMP JUMPDEST DUP5 ADD SWAP2 POP POP SWAP3 SWAP2 POP POP JUMP JUMPDEST PUSH3 0xC43 DUP2 PUSH3 0xF82 JUMP JUMPDEST DUP3 MSTORE POP POP JUMP JUMPDEST PUSH3 0xC5E PUSH3 0xC58 DUP3 PUSH3 0xF82 JUMP JUMPDEST PUSH3 0x10D7 JUMP JUMPDEST DUP3 MSTORE POP POP JUMP JUMPDEST PUSH1 0x0 PUSH3 0xC72 DUP3 DUP6 PUSH3 0xB8E JUMP JUMPDEST PUSH1 0x14 DUP3 ADD SWAP2 POP PUSH3 0xC84 DUP3 DUP5 PUSH3 0xBBA JUMP JUMPDEST PUSH1 0x20 DUP3 ADD SWAP2 POP DUP2 SWAP1 POP SWAP4 SWAP3 POP POP POP JUMP JUMPDEST PUSH1 0x0 PUSH3 0xCA2 DUP3 DUP5 PUSH3 0xC49 JUMP JUMPDEST PUSH1 0x20 DUP3 ADD SWAP2 POP DUP2 SWAP1 POP SWAP3 SWAP2 POP POP JUMP JUMPDEST PUSH1 0x0 PUSH1 0x20 DUP3 ADD SWAP1 POP PUSH3 0xCC8 PUSH1 0x0 DUP4 ADD DUP5 PUSH3 0xB7D JUMP JUMPDEST SWAP3 SWAP2 POP POP JUMP JUMPDEST PUSH1 0x0 PUSH1 0x20 DUP3 ADD SWAP1 POP PUSH3 0xCE5 PUSH1 0x0 DUP4 ADD DUP5 PUSH3 0xB6C JUMP JUMPDEST SWAP3 SWAP2 POP POP JUMP JUMPDEST PUSH1 0x0 PUSH1 0x20 DUP3 ADD SWAP1 POP PUSH3 0xD02 PUSH1 0x0 DUP4 ADD DUP5 PUSH3 0xC38 JUMP JUMPDEST SWAP3 SWAP2 POP POP JUMP JUMPDEST PUSH1 0x0 PUSH1 0x60 DUP3 ADD SWAP1 POP PUSH3 0xD1F PUSH1 0x0 DUP4 ADD DUP7 PUSH3 0xC38 JUMP JUMPDEST PUSH3 0xD2E PUSH1 0x20 DUP4 ADD DUP6 PUSH3 0xBD5 JUMP JUMPDEST PUSH3 0xD3D PUSH1 0x40 DUP4 ADD DUP5 PUSH3 0xB7D JUMP JUMPDEST SWAP5 SWAP4 POP POP POP POP JUMP JUMPDEST PUSH1 0x0 PUSH1 0x60 DUP3 ADD SWAP1 POP PUSH3 0xD5C PUSH1 0x0 DUP4 ADD DUP7 PUSH3 0xC38 JUMP JUMPDEST PUSH3 0xD6B PUSH1 0x20 DUP4 ADD DUP6 PUSH3 0xBE6 JUMP JUMPDEST PUSH3 0xD7A PUSH1 0x40 DUP4 ADD DUP5 PUSH3 0xB7D JUMP JUMPDEST SWAP5 SWAP4 POP POP POP POP JUMP JUMPDEST PUSH1 0x0 PUSH1 0xE0 DUP3 ADD SWAP1 POP PUSH3 0xD99 PUSH1 0x0 DUP4 ADD DUP11 PUSH3 0xC38 JUMP JUMPDEST PUSH3 0xDA8 PUSH1 0x20 DUP4 ADD DUP10 PUSH3 0xC38 JUMP JUMPDEST PUSH3 0xDB7 PUSH1 0x40 DUP4 ADD DUP9 PUSH3 0xC38 JUMP JUMPDEST DUP2 DUP2 SUB PUSH1 0x60 DUP4 ADD MSTORE PUSH3 0xDCB DUP2 DUP8 PUSH3 0xBF7 JUMP JUMPDEST SWAP1 POP DUP2 DUP2 SUB PUSH1 0x80 DUP4 ADD MSTORE PUSH3 0xDE1 DUP2 DUP7 PUSH3 0xBF7 JUMP JUMPDEST SWAP1 POP PUSH3 0xDF2 PUSH1 0xA0 DUP4 ADD DUP6 PUSH3 0xBA9 JUMP JUMPDEST PUSH3 0xE01 PUSH1 0xC0 DUP4 ADD DUP5 PUSH3 0xC38 JUMP JUMPDEST SWAP9 SWAP8 POP POP POP POP POP POP POP POP JUMP JUMPDEST PUSH1 0x0 PUSH2 0x100 DUP3 ADD SWAP1 POP PUSH3 0xE25 PUSH1 0x0 DUP4 ADD DUP12 PUSH3 0xC38 JUMP JUMPDEST PUSH3 0xE34 PUSH1 0x20 DUP4 ADD DUP11 PUSH3 0xC38 JUMP JUMPDEST PUSH3 0xE43 PUSH1 0x40 DUP4 ADD DUP10 PUSH3 0xC38 JUMP JUMPDEST PUSH3 0xE52 PUSH1 0x60 DUP4 ADD DUP9 PUSH3 0xC38 JUMP JUMPDEST DUP2 DUP2 SUB PUSH1 0x80 DUP4 ADD MSTORE PUSH3 0xE66 DUP2 DUP8 PUSH3 0xBF7 JUMP JUMPDEST SWAP1 POP DUP2 DUP2 SUB PUSH1 0xA0 DUP4 ADD MSTORE PUSH3 0xE7C DUP2 DUP7 PUSH3 0xBF7 JUMP JUMPDEST SWAP1 POP PUSH3 0xE8D PUSH1 0xC0 DUP4 ADD DUP6 PUSH3 0xBA9 JUMP JUMPDEST PUSH3 0xE9C PUSH1 0xE0 DUP4 ADD DUP5 PUSH3 0xC38 JUMP JUMPDEST SWAP10 SWAP9 POP POP POP POP POP POP POP POP POP JUMP JUMPDEST PUSH1 0x0 PUSH3 0xEB5 PUSH3 0xEC8 JUMP JUMPDEST SWAP1 POP PUSH3 0xEC3 DUP3 DUP3 PUSH3 0x1021 JUMP JUMPDEST SWAP2 SWAP1 POP JUMP JUMPDEST PUSH1 0x0 PUSH1 0x40 MLOAD SWAP1 POP SWAP1 JUMP JUMPDEST PUSH1 0x0 PUSH8 0xFFFFFFFFFFFFFFFF DUP3 GT ISZERO PUSH3 0xEF0 JUMPI PUSH3 0xEEF PUSH3 0x1110 JUMP JUMPDEST JUMPDEST PUSH3 0xEFB DUP3 PUSH3 0x1153 JUMP JUMPDEST SWAP1 POP PUSH1 0x20 DUP2 ADD SWAP1 POP SWAP2 SWAP1 POP JUMP JUMPDEST PUSH1 0x0 DUP2 MLOAD SWAP1 POP SWAP2 SWAP1 POP JUMP JUMPDEST PUSH1 0x0 DUP3 DUP3 MSTORE PUSH1 0x20 DUP3 ADD SWAP1 POP SWAP3 SWAP2 POP POP JUMP JUMPDEST PUSH1 0x0 PUSH3 0xF31 DUP3 PUSH3 0xF62 JUMP JUMPDEST SWAP1 POP SWAP2 SWAP1 POP JUMP JUMPDEST PUSH1 0x0 PUSH3 0xF45 DUP3 PUSH3 0xF62 JUMP JUMPDEST SWAP1 POP SWAP2 SWAP1 POP JUMP JUMPDEST PUSH1 0x0 DUP2 ISZERO ISZERO SWAP1 POP SWAP2 SWAP1 POP JUMP JUMPDEST PUSH1 0x0 DUP2 SWAP1 POP SWAP2 SWAP1 POP JUMP JUMPDEST PUSH1 0x0 PUSH20 0xFFFFFFFFFFFFFFFFFFFFFFFFFFFFFFFFFFFFFFFF DUP3 AND SWAP1 POP SWAP2 SWAP1 POP JUMP JUMPDEST PUSH1 0x0 DUP2 SWAP1 POP SWAP2 SWAP1 POP JUMP JUMPDEST PUSH1 0x0 PUSH3 0xF99 DUP3 PUSH3 0xFB4 JUMP JUMPDEST SWAP1 POP SWAP2 SWAP1 POP JUMP JUMPDEST PUSH1 0x0 PUSH3 0xFAD DUP3 PUSH3 0xFB4 JUMP JUMPDEST SWAP1 POP SWAP2 SWAP1 POP JUMP JUMPDEST PUSH1 0x0 PUSH3 0xFC1 DUP3 PUSH3 0xFC8 JUMP JUMPDEST SWAP1 POP SWAP2 SWAP1 POP JUMP JUMPDEST PUSH1 0x0 PUSH3 0xFD5 DUP3 PUSH3 0xF62 JUMP JUMPDEST SWAP1 POP SWAP2 SWAP1 POP JUMP JUMPDEST DUP3 DUP2 DUP4 CALLDATACOPY PUSH1 0x0 DUP4 DUP4 ADD MSTORE POP POP POP JUMP JUMPDEST PUSH1 0x0 JUMPDEST DUP4 DUP2 LT ISZERO PUSH3 0x100B JUMPI DUP1 DUP3 ADD MLOAD DUP2 DUP5 ADD MSTORE PUSH1 0x20 DUP2 ADD SWAP1 POP PUSH3 0xFEE JUMP JUMPDEST DUP4 DUP2 GT ISZERO PUSH3 0x101B JUMPI PUSH1 0x0 DUP5 DUP5 ADD MSTORE JUMPDEST POP POP POP POP JUMP JUMPDEST PUSH3 0x102C DUP3 PUSH3 0x1153 JUMP JUMPDEST DUP2 ADD DUP2 DUP2 LT PUSH8 0xFFFFFFFFFFFFFFFF DUP3 GT OR ISZERO PUSH3 0x104E JUMPI PUSH3 0x104D PUSH3 0x1110 JUMP JUMPDEST JUMPDEST DUP1 PUSH1 0x40 MSTORE POP POP POP JUMP JUMPDEST PUSH1 0x0 PUSH3 0x1064 DUP3 PUSH3 0xF82 JUMP JUMPDEST SWAP2 POP PUSH32 0xFFFFFFFFFFFFFFFFFFFFFFFFFFFFFFFFFFFFFFFFFFFFFFFFFFFFFFFFFFFFFFFF DUP3 EQ ISZERO PUSH3 0x109A JUMPI PUSH3 0x1099 PUSH3 0x10E1 JUMP JUMPDEST JUMPDEST PUSH1 0x1 DUP3 ADD SWAP1 POP SWAP2 SWAP1 POP JUMP JUMPDEST PUSH1 0x0 PUSH3 0x10B2 DUP3 PUSH3 0x10C3 JUMP JUMPDEST SWAP1 POP SWAP2 SWAP1 POP JUMP JUMPDEST PUSH1 0x0 DUP2 SWAP1 POP SWAP2 SWAP1 POP JUMP JUMPDEST PUSH1 0x0 PUSH3 0x10D0 DUP3 PUSH3 0x1164 JUMP JUMPDEST SWAP1 POP SWAP2 SWAP1 POP JUMP JUMPDEST PUSH1 0x0 DUP2 SWAP1 POP SWAP2 SWAP1 POP JUMP JUMPDEST PUSH32 0x4E487B7100000000000000000000000000000000000000000000000000000000 PUSH1 0x0 MSTORE PUSH1 0x11 PUSH1 0x4 MSTORE PUSH1 0x24 PUSH1 0x0 REVERT JUMPDEST PUSH32 0x4E487B7100000000000000000000000000000000000000000000000000000000 PUSH1 0x0 MSTORE PUSH1 0x41 PUSH1 0x4 MSTORE PUSH1 0x24 PUSH1 0x0 REVERT JUMPDEST PUSH1 0x0 DUP1 REVERT JUMPDEST PUSH1 0x0 DUP1 REVERT JUMPDEST PUSH1 0x0 DUP1 REVERT JUMPDEST PUSH1 0x0 DUP1 REVERT JUMPDEST PUSH1 0x0 PUSH1 0x1F NOT PUSH1 0x1F DUP4 ADD AND SWAP1 POP SWAP2 SWAP1 POP JUMP JUMPDEST PUSH1 0x0 DUP2 PUSH1 0x60 SHL SWAP1 POP SWAP2 SWAP1 POP JUMP JUMPDEST PUSH3 0x117C DUP2 PUSH3 0xF4C JUMP JUMPDEST DUP2 EQ PUSH3 0x1188 JUMPI PUSH1 0x0 DUP1 REVERT JUMPDEST POP JUMP JUMPDEST PUSH3 0x1196 DUP2 PUSH3 0xF82 JUMP JUMPDEST DUP2 EQ PUSH3 0x11A2 JUMPI PUSH1 0x0 DUP1 REVERT JUMPDEST POP JUMP INVALID PUSH1 0x80 PUSH1 0x40 MSTORE CALLVALUE DUP1 ISZERO PUSH3 0x11 JUMPI PUSH1 0x0 DUP1 REVERT JUMPDEST POP PUSH1 0x40 MLOAD PUSH3 0xF5C CODESIZE SUB DUP1 PUSH3 0xF5C DUP4 CODECOPY DUP2 DUP2 ADD PUSH1 0x40 MSTORE DUP2 ADD SWAP1 PUSH3 0x37 SWAP2 SWAP1 PUSH3 0x248 JUMP JUMPDEST CALLER PUSH1 0x0 DUP1 PUSH2 0x100 EXP DUP2 SLOAD DUP2 PUSH20 0xFFFFFFFFFFFFFFFFFFFFFFFFFFFFFFFFFFFFFFFF MUL NOT AND SWAP1 DUP4 PUSH20 0xFFFFFFFFFFFFFFFFFFFFFFFFFFFFFFFFFFFFFFFF AND MUL OR SWAP1 SSTORE POP DUP7 PUSH1 0x1 DUP2 SWAP1 SSTORE POP DUP6 PUSH1 0x2 DUP2 SWAP1 SSTORE POP DUP5 PUSH1 0x3 DUP2 SWAP1 SSTORE POP DUP4 PUSH1 0x4 SWAP1 DUP1 MLOAD SWAP1 PUSH1 0x20 ADD SWAP1 PUSH3 0xA4 SWAP3 SWAP2 SWAP1 PUSH3 0xEC JUMP JUMPDEST POP DUP3 PUSH1 0x5 SWAP1 DUP1 MLOAD SWAP1 PUSH1 0x20 ADD SWAP1 PUSH3 0xBD SWAP3 SWAP2 SWAP1 PUSH3 0xEC JUMP JUMPDEST POP DUP2 PUSH1 0x6 PUSH1 0x0 PUSH2 0x100 EXP DUP2 SLOAD DUP2 PUSH1 0xFF MUL NOT AND SWAP1 DUP4 ISZERO ISZERO MUL OR SWAP1 SSTORE POP DUP1 PUSH1 0x7 DUP2 SWAP1 SSTORE POP POP POP POP POP POP POP POP PUSH3 0x507 JUMP JUMPDEST DUP3 DUP1 SLOAD PUSH3 0xFA SWAP1 PUSH3 0x3E4 JUMP JUMPDEST SWAP1 PUSH1 0x0 MSTORE PUSH1 0x20 PUSH1 0x0 KECCAK256 SWAP1 PUSH1 0x1F ADD PUSH1 0x20 SWAP1 DIV DUP2 ADD SWAP3 DUP3 PUSH3 0x11E JUMPI PUSH1 0x0 DUP6 SSTORE PUSH3 0x16A JUMP JUMPDEST DUP3 PUSH1 0x1F LT PUSH3 0x139 JUMPI DUP1 MLOAD PUSH1 0xFF NOT AND DUP4 DUP1 ADD OR DUP6 SSTORE PUSH3 0x16A JUMP JUMPDEST DUP3 DUP1 ADD PUSH1 0x1 ADD DUP6 SSTORE DUP3 ISZERO PUSH3 0x16A JUMPI SWAP2 DUP3 ADD JUMPDEST DUP3 DUP2 GT ISZERO PUSH3 0x169 JUMPI DUP3 MLOAD DUP3 SSTORE SWAP2 PUSH1 0x20 ADD SWAP2 SWAP1 PUSH1 0x1 ADD SWAP1 PUSH3 0x14C JUMP JUMPDEST JUMPDEST POP SWAP1 POP PUSH3 0x179 SWAP2 SWAP1 PUSH3 0x17D JUMP JUMPDEST POP SWAP1 JUMP JUMPDEST JUMPDEST DUP1 DUP3 GT ISZERO PUSH3 0x198 JUMPI PUSH1 0x0 DUP2 PUSH1 0x0 SWAP1 SSTORE POP PUSH1 0x1 ADD PUSH3 0x17E JUMP JUMPDEST POP SWAP1 JUMP JUMPDEST PUSH1 0x0 PUSH3 0x1B3 PUSH3 0x1AD DUP5 PUSH3 0x362 JUMP JUMPDEST PUSH3 0x339 JUMP JUMPDEST SWAP1 POP DUP3 DUP2 MSTORE PUSH1 0x20 DUP2 ADD DUP5 DUP5 DUP5 ADD GT ISZERO PUSH3 0x1D2 JUMPI PUSH3 0x1D1 PUSH3 0x4B3 JUMP JUMPDEST JUMPDEST PUSH3 0x1DF DUP5 DUP3 DUP6 PUSH3 0x3AE JUMP JUMPDEST POP SWAP4 SWAP3 POP POP POP JUMP JUMPDEST PUSH1 0x0 DUP2 MLOAD SWAP1 POP PUSH3 0x1F8 DUP2 PUSH3 0x4D3 JUMP JUMPDEST SWAP3 SWAP2 POP POP JUMP JUMPDEST PUSH1 0x0 DUP3 PUSH1 0x1F DUP4 ADD SLT PUSH3 0x216 JUMPI PUSH3 0x215 PUSH3 0x4AE JUMP JUMPDEST JUMPDEST DUP2 MLOAD PUSH3 0x228 DUP5 DUP3 PUSH1 0x20 DUP7 ADD PUSH3 0x19C JUMP JUMPDEST SWAP2 POP POP SWAP3 SWAP2 POP POP JUMP JUMPDEST PUSH1 0x0 DUP2 MLOAD SWAP1 POP PUSH3 0x242 DUP2 PUSH3 0x4ED JUMP JUMPDEST SWAP3 SWAP2 POP POP JUMP JUMPDEST PUSH1 0x0 DUP1 PUSH1 0x0 DUP1 PUSH1 0x0 DUP1 PUSH1 0x0 PUSH1 0xE0 DUP9 DUP11 SUB SLT ISZERO PUSH3 0x26A JUMPI PUSH3 0x269 PUSH3 0x4BD JUMP JUMPDEST JUMPDEST PUSH1 0x0 PUSH3 0x27A DUP11 DUP3 DUP12 ADD PUSH3 0x231 JUMP JUMPDEST SWAP8 POP POP PUSH1 0x20 PUSH3 0x28D DUP11 DUP3 DUP12 ADD PUSH3 0x231 JUMP JUMPDEST SWAP7 POP POP PUSH1 0x40 PUSH3 0x2A0 DUP11 DUP3 DUP12 ADD PUSH3 0x231 JUMP JUMPDEST SWAP6 POP POP PUSH1 0x60 DUP9 ADD MLOAD PUSH8 0xFFFFFFFFFFFFFFFF DUP2 GT ISZERO PUSH3 0x2C4 JUMPI PUSH3 0x2C3 PUSH3 0x4B8 JUMP JUMPDEST JUMPDEST PUSH3 0x2D2 DUP11 DUP3 DUP12 ADD PUSH3 0x1FE JUMP JUMPDEST SWAP5 POP POP PUSH1 0x80 DUP9 ADD MLOAD PUSH8 0xFFFFFFFFFFFFFFFF DUP2 GT ISZERO PUSH3 0x2F6 JUMPI PUSH3 0x2F5 PUSH3 0x4B8 JUMP JUMPDEST JUMPDEST PUSH3 0x304 DUP11 DUP3 DUP12 ADD PUSH3 0x1FE JUMP JUMPDEST SWAP4 POP POP PUSH1 0xA0 PUSH3 0x317 DUP11 DUP3 DUP12 ADD PUSH3 0x1E7 JUMP JUMPDEST SWAP3 POP POP PUSH1 0xC0 PUSH3 0x32A DUP11 DUP3 DUP12 ADD PUSH3 0x231 JUMP JUMPDEST SWAP2 POP POP SWAP3 SWAP6 SWAP9 SWAP2 SWAP5 SWAP8 POP SWAP3 SWAP6 POP JUMP JUMPDEST PUSH1 0x0 PUSH3 0x345 PUSH3 0x358 JUMP JUMPDEST SWAP1 POP PUSH3 0x353 DUP3 DUP3 PUSH3 0x41A JUMP JUMPDEST SWAP2 SWAP1 POP JUMP JUMPDEST PUSH1 0x0 PUSH1 0x40 MLOAD SWAP1 POP SWAP1 JUMP JUMPDEST PUSH1 0x0 PUSH8 0xFFFFFFFFFFFFFFFF DUP3 GT ISZERO PUSH3 0x380 JUMPI PUSH3 0x37F PUSH3 0x47F JUMP JUMPDEST JUMPDEST PUSH3 0x38B DUP3 PUSH3 0x4C2 JUMP JUMPDEST SWAP1 POP PUSH1 0x20 DUP2 ADD SWAP1 POP SWAP2 SWAP1 POP JUMP JUMPDEST PUSH1 0x0 DUP2 ISZERO ISZERO SWAP1 POP SWAP2 SWAP1 POP JUMP JUMPDEST PUSH1 0x0 DUP2 SWAP1 POP SWAP2 SWAP1 POP JUMP JUMPDEST PUSH1 0x0 JUMPDEST DUP4 DUP2 LT ISZERO PUSH3 0x3CE JUMPI DUP1 DUP3 ADD MLOAD DUP2 DUP5 ADD MSTORE PUSH1 0x20 DUP2 ADD SWAP1 POP PUSH3 0x3B1 JUMP JUMPDEST DUP4 DUP2 GT ISZERO PUSH3 0x3DE JUMPI PUSH1 0x0 DUP5 DUP5 ADD MSTORE JUMPDEST POP POP POP POP JUMP JUMPDEST PUSH1 0x0 PUSH1 0x2 DUP3 DIV SWAP1 POP PUSH1 0x1 DUP3 AND DUP1 PUSH3 0x3FD JUMPI PUSH1 0x7F DUP3 AND SWAP2 POP JUMPDEST PUSH1 0x20 DUP3 LT DUP2 EQ ISZERO PUSH3 0x414 JUMPI PUSH3 0x413 PUSH3 0x450 JUMP JUMPDEST JUMPDEST POP SWAP2 SWAP1 POP JUMP JUMPDEST PUSH3 0x425 DUP3 PUSH3 0x4C2 JUMP JUMPDEST DUP2 ADD DUP2 DUP2 LT PUSH8 0xFFFFFFFFFFFFFFFF DUP3 GT OR ISZERO PUSH3 0x447 JUMPI PUSH3 0x446 PUSH3 0x47F JUMP JUMPDEST JUMPDEST DUP1 PUSH1 0x40 MSTORE POP POP POP JUMP JUMPDEST PUSH32 0x4E487B7100000000000000000000000000000000000000000000000000000000 PUSH1 0x0 MSTORE PUSH1 0x22 PUSH1 0x4 MSTORE PUSH1 0x24 PUSH1 0x0 REVERT JUMPDEST PUSH32 0x4E487B7100000000000000000000000000000000000000000000000000000000 PUSH1 0x0 MSTORE PUSH1 0x41 PUSH1 0x4 MSTORE PUSH1 0x24 PUSH1 0x0 REVERT JUMPDEST PUSH1 0x0 DUP1 REVERT JUMPDEST PUSH1 0x0 DUP1 REVERT JUMPDEST PUSH1 0x0 DUP1 REVERT JUMPDEST PUSH1 0x0 DUP1 REVERT JUMPDEST PUSH1 0x0 PUSH1 0x1F NOT PUSH1 0x1F DUP4 ADD AND SWAP1 POP SWAP2 SWAP1 POP JUMP JUMPDEST PUSH3 0x4DE DUP2 PUSH3 0x398 JUMP JUMPDEST DUP2 EQ PUSH3 0x4EA JUMPI PUSH1 0x0 DUP1 REVERT JUMPDEST POP JUMP JUMPDEST PUSH3 0x4F8 DUP2 PUSH3 0x3A4 JUMP JUMPDEST DUP2 EQ PUSH3 0x504 JUMPI PUSH1 0x0 DUP1 REVERT JUMPDEST POP JUMP JUMPDEST PUSH2 0xA45 DUP1 PUSH3 0x517 PUSH1 0x0 CODECOPY PUSH1 0x0 RETURN INVALID PUSH1 0x80 PUSH1 0x40 MSTORE PUSH1 0x4 CALLDATASIZE LT PUSH2 0x3F JUMPI PUSH1 0x0 CALLDATALOAD PUSH1 0xE0 SHR DUP1 PUSH4 0x485F4767 EQ PUSH2 0x44 JUMPI DUP1 PUSH4 0x5E375475 EQ PUSH2 0x6D JUMPI DUP1 PUSH4 0xA6F9DAE1 EQ PUSH2 0x96 JUMPI DUP1 PUSH4 0xFBBF93A0 EQ PUSH2 0xB2 JUMPI JUMPDEST PUSH1 0x0 DUP1 REVERT JUMPDEST CALLVALUE DUP1 ISZERO PUSH2 0x50 JUMPI PUSH1 0x0 DUP1 REVERT JUMPDEST POP PUSH2 0x6B PUSH1 0x4 DUP1 CALLDATASIZE SUB DUP2 ADD SWAP1 PUSH2 0x66 SWAP2 SWAP1 PUSH2 0x672 JUMP JUMPDEST PUSH2 0xE3 JUMP JUMPDEST STOP JUMPDEST CALLVALUE DUP1 ISZERO PUSH2 0x79 JUMPI PUSH1 0x0 DUP1 REVERT JUMPDEST POP PUSH2 0x94 PUSH1 0x4 DUP1 CALLDATASIZE SUB DUP2 ADD SWAP1 PUSH2 0x8F SWAP2 SWAP1 PUSH2 0x632 JUMP JUMPDEST PUSH2 0x17E JUMP JUMPDEST STOP JUMPDEST PUSH2 0xB0 PUSH1 0x4 DUP1 CALLDATASIZE SUB DUP2 ADD SWAP1 PUSH2 0xAB SWAP2 SWAP1 PUSH2 0x605 JUMP JUMPDEST PUSH2 0x22C JUMP JUMPDEST STOP JUMPDEST CALLVALUE DUP1 ISZERO PUSH2 0xBE JUMPI PUSH1 0x0 DUP1 REVERT JUMPDEST POP PUSH2 0xC7 PUSH2 0x46C JUMP JUMPDEST PUSH1 0x40 MLOAD PUSH2 0xDA SWAP8 SWAP7 SWAP6 SWAP5 SWAP4 SWAP3 SWAP2 SWAP1 PUSH2 0x7C7 JUMP JUMPDEST PUSH1 0x40 MLOAD DUP1 SWAP2 SUB SWAP1 RETURN JUMPDEST DUP1 PUSH1 0x0 DUP1 SLOAD SWAP1 PUSH2 0x100 EXP SWAP1 DIV PUSH20 0xFFFFFFFFFFFFFFFFFFFFFFFFFFFFFFFFFFFFFFFF AND PUSH20 0xFFFFFFFFFFFFFFFFFFFFFFFFFFFFFFFFFFFFFFFF AND DUP2 PUSH20 0xFFFFFFFFFFFFFFFFFFFFFFFFFFFFFFFFFFFFFFFF AND EQ PUSH2 0x172 JUMPI PUSH1 0x40 MLOAD PUSH32 0x8C379A000000000000000000000000000000000000000000000000000000000 DUP2 MSTORE PUSH1 0x4 ADD PUSH2 0x169 SWAP1 PUSH2 0x787 JUMP JUMPDEST PUSH1 0x40 MLOAD DUP1 SWAP2 SUB SWAP1 REVERT JUMPDEST DUP3 PUSH1 0x7 DUP2 SWAP1 SSTORE POP POP POP POP JUMP JUMPDEST DUP1 PUSH1 0x0 DUP1 SLOAD SWAP1 PUSH2 0x100 EXP SWAP1 DIV PUSH20 0xFFFFFFFFFFFFFFFFFFFFFFFFFFFFFFFFFFFFFFFF AND PUSH20 0xFFFFFFFFFFFFFFFFFFFFFFFFFFFFFFFFFFFFFFFF AND DUP2 PUSH20 0xFFFFFFFFFFFFFFFFFFFFFFFFFFFFFFFFFFFFFFFF AND EQ PUSH2 0x20D JUMPI PUSH1 0x40 MLOAD PUSH32 0x8C379A000000000000000000000000000000000000000000000000000000000 DUP2 MSTORE PUSH1 0x4 ADD PUSH2 0x204 SWAP1 PUSH2 0x787 JUMP JUMPDEST PUSH1 0x40 MLOAD DUP1 SWAP2 SUB SWAP1 REVERT JUMPDEST DUP3 PUSH1 0x6 PUSH1 0x0 PUSH2 0x100 EXP DUP2 SLOAD DUP2 PUSH1 0xFF MUL NOT AND SWAP1 DUP4 ISZERO ISZERO MUL OR SWAP1 SSTORE POP POP POP POP JUMP JUMPDEST PUSH1 0x1 ISZERO ISZERO PUSH1 0x6 PUSH1 0x0 SWAP1 SLOAD SWAP1 PUSH2 0x100 EXP SWAP1 DIV PUSH1 0xFF AND ISZERO ISZERO EQ PUSH2 0x24C JUMPI PUSH1 0x0 DUP1 REVERT JUMPDEST PUSH1 0x7 SLOAD CALLVALUE LT ISZERO PUSH2 0x2D8 JUMPI DUP1 PUSH20 0xFFFFFFFFFFFFFFFFFFFFFFFFFFFFFFFFFFFFFFFF AND PUSH2 0x8FC CALLVALUE SWAP1 DUP2 ISZERO MUL SWAP1 PUSH1 0x40 MLOAD PUSH1 0x0 PUSH1 0x40 MLOAD DUP1 DUP4 SUB DUP2 DUP6 DUP9 DUP9 CALL SWAP4 POP POP POP POP ISZERO DUP1 ISZERO PUSH2 0x29C JUMPI RETURNDATASIZE PUSH1 0x0 DUP1 RETURNDATACOPY RETURNDATASIZE PUSH1 0x0 REVERT JUMPDEST POP PUSH1 0x40 MLOAD PUSH32 0x8C379A000000000000000000000000000000000000000000000000000000000 DUP2 MSTORE PUSH1 0x4 ADD PUSH2 0x2CF SWAP1 PUSH2 0x7A7 JUMP JUMPDEST PUSH1 0x40 MLOAD DUP1 SWAP2 SUB SWAP1 REVERT JUMPDEST PUSH1 0x0 DUP1 SLOAD SWAP1 PUSH2 0x100 EXP SWAP1 DIV PUSH20 0xFFFFFFFFFFFFFFFFFFFFFFFFFFFFFFFFFFFFFFFF AND PUSH20 0xFFFFFFFFFFFFFFFFFFFFFFFFFFFFFFFFFFFFFFFF AND PUSH2 0x8FC CALLVALUE SWAP1 DUP2 ISZERO MUL SWAP1 PUSH1 0x40 MLOAD PUSH1 0x0 PUSH1 0x40 MLOAD DUP1 DUP4 SUB DUP2 DUP6 DUP9 DUP9 CALL SWAP4 POP POP POP POP ISZERO DUP1 ISZERO PUSH2 0x33E JUMPI RETURNDATASIZE PUSH1 0x0 DUP1 RETURNDATACOPY RETURNDATASIZE PUSH1 0x0 REVERT JUMPDEST POP PUSH1 0x0 DUP1 SLOAD SWAP1 PUSH2 0x100 EXP SWAP1 DIV PUSH20 0xFFFFFFFFFFFFFFFFFFFFFFFFFFFFFFFFFFFFFFFF AND PUSH1 0x9 PUSH1 0x0 PUSH2 0x100 EXP DUP2 SLOAD DUP2 PUSH20 0xFFFFFFFFFFFFFFFFFFFFFFFFFFFFFFFFFFFFFFFF MUL NOT AND SWAP1 DUP4 PUSH20 0xFFFFFFFFFFFFFFFFFFFFFFFFFFFFFFFFFFFFFFFF AND MUL OR SWAP1 SSTORE POP DUP1 PUSH1 0x0 DUP1 PUSH2 0x100 EXP DUP2 SLOAD DUP2 PUSH20 0xFFFFFFFFFFFFFFFFFFFFFFFFFFFFFFFFFFFFFFFF MUL NOT AND SWAP1 DUP4 PUSH20 0xFFFFFFFFFFFFFFFFFFFFFFFFFFFFFFFFFFFFFFFF AND MUL OR SWAP1 SSTORE POP PUSH1 0x0 PUSH1 0x6 PUSH1 0x0 PUSH2 0x100 EXP DUP2 SLOAD DUP2 PUSH1 0xFF MUL NOT AND SWAP1 DUP4 ISZERO ISZERO MUL OR SWAP1 SSTORE POP PUSH1 0x7 SLOAD PUSH1 0x8 DUP2 SWAP1 SSTORE POP PUSH1 0x0 PUSH1 0x7 DUP2 SWAP1 SSTORE POP PUSH32 0x4DC7E7DCEE44619D786319FC36FDAFAE2D190C6BC41A6110BCB967A6B10FFA52 PUSH1 0x9 PUSH1 0x0 SWAP1 SLOAD SWAP1 PUSH2 0x100 EXP SWAP1 DIV PUSH20 0xFFFFFFFFFFFFFFFFFFFFFFFFFFFFFFFFFFFFFFFF AND PUSH1 0x8 SLOAD PUSH1 0x40 MLOAD PUSH2 0x461 SWAP3 SWAP2 SWAP1 PUSH2 0x75E JUMP JUMPDEST PUSH1 0x40 MLOAD DUP1 SWAP2 SUB SWAP1 LOG1 POP JUMP JUMPDEST PUSH1 0x0 DUP1 PUSH1 0x0 PUSH1 0x60 DUP1 PUSH1 0x0 DUP1 PUSH1 0x1 SLOAD PUSH1 0x2 SLOAD PUSH1 0x3 SLOAD PUSH1 0x4 PUSH1 0x5 PUSH1 0x6 PUSH1 0x0 SWAP1 SLOAD SWAP1 PUSH2 0x100 EXP SWAP1 DIV PUSH1 0xFF AND PUSH1 0x7 SLOAD DUP4 DUP1 SLOAD PUSH2 0x4A3 SWAP1 PUSH2 0x8DB JUMP JUMPDEST DUP1 PUSH1 0x1F ADD PUSH1 0x20 DUP1 SWAP2 DIV MUL PUSH1 0x20 ADD PUSH1 0x40 MLOAD SWAP1 DUP2 ADD PUSH1 0x40 MSTORE DUP1 SWAP3 SWAP2 SWAP1 DUP2 DUP2 MSTORE PUSH1 0x20 ADD DUP3 DUP1 SLOAD PUSH2 0x4CF SWAP1 PUSH2 0x8DB JUMP JUMPDEST DUP1 ISZERO PUSH2 0x51C JUMPI DUP1 PUSH1 0x1F LT PUSH2 0x4F1 JUMPI PUSH2 0x100 DUP1 DUP4 SLOAD DIV MUL DUP4 MSTORE SWAP2 PUSH1 0x20 ADD SWAP2 PUSH2 0x51C JUMP JUMPDEST DUP3 ADD SWAP2 SWAP1 PUSH1 0x0 MSTORE PUSH1 0x20 PUSH1 0x0 KECCAK256 SWAP1 JUMPDEST DUP2 SLOAD DUP2 MSTORE SWAP1 PUSH1 0x1 ADD SWAP1 PUSH1 0x20 ADD DUP1 DUP4 GT PUSH2 0x4FF JUMPI DUP3 SWAP1 SUB PUSH1 0x1F AND DUP3 ADD SWAP2 JUMPDEST POP POP POP POP POP SWAP4 POP DUP3 DUP1 SLOAD PUSH2 0x52F SWAP1 PUSH2 0x8DB JUMP JUMPDEST DUP1 PUSH1 0x1F ADD PUSH1 0x20 DUP1 SWAP2 DIV MUL PUSH1 0x20 ADD PUSH1 0x40 MLOAD SWAP1 DUP2 ADD PUSH1 0x40 MSTORE DUP1 SWAP3 SWAP2 SWAP1 DUP2 DUP2 MSTORE PUSH1 0x20 ADD DUP3 DUP1 SLOAD PUSH2 0x55B SWAP1 PUSH2 0x8DB JUMP JUMPDEST DUP1 ISZERO PUSH2 0x5A8 JUMPI DUP1 PUSH1 0x1F LT PUSH2 0x57D JUMPI PUSH2 0x100 DUP1 DUP4 SLOAD DIV MUL DUP4 MSTORE SWAP2 PUSH1 0x20 ADD SWAP2 PUSH2 0x5A8 JUMP JUMPDEST DUP3 ADD SWAP2 SWAP1 PUSH1 0x0 MSTORE PUSH1 0x20 PUSH1 0x0 KECCAK256 SWAP1 JUMPDEST DUP2 SLOAD DUP2 MSTORE SWAP1 PUSH1 0x1 ADD SWAP1 PUSH1 0x20 ADD DUP1 DUP4 GT PUSH2 0x58B JUMPI DUP3 SWAP1 SUB PUSH1 0x1F AND DUP3 ADD SWAP2 JUMPDEST POP POP POP POP POP SWAP3 POP SWAP7 POP SWAP7 POP SWAP7 POP SWAP7 POP SWAP7 POP SWAP7 POP SWAP7 POP SWAP1 SWAP2 SWAP3 SWAP4 SWAP5 SWAP6 SWAP7 JUMP JUMPDEST PUSH1 0x0 DUP2 CALLDATALOAD SWAP1 POP PUSH2 0x5D5 DUP2 PUSH2 0x9CA JUMP JUMPDEST SWAP3 SWAP2 POP POP JUMP JUMPDEST PUSH1 0x0 DUP2 CALLDATALOAD SWAP1 POP PUSH2 0x5EA DUP2 PUSH2 0x9E1 JUMP JUMPDEST SWAP3 SWAP2 POP POP JUMP JUMPDEST PUSH1 0x0 DUP2 CALLDATALOAD SWAP1 POP PUSH2 0x5FF DUP2 PUSH2 0x9F8 JUMP JUMPDEST SWAP3 SWAP2 POP POP JUMP JUMPDEST PUSH1 0x0 PUSH1 0x20 DUP3 DUP5 SUB SLT ISZERO PUSH2 0x61B JUMPI PUSH2 0x61A PUSH2 0x93C JUMP JUMPDEST JUMPDEST PUSH1 0x0 PUSH2 0x629 DUP5 DUP3 DUP6 ADD PUSH2 0x5C6 JUMP JUMPDEST SWAP2 POP POP SWAP3 SWAP2 POP POP JUMP JUMPDEST PUSH1 0x0 DUP1 PUSH1 0x40 DUP4 DUP6 SUB SLT ISZERO PUSH2 0x649 JUMPI PUSH2 0x648 PUSH2 0x93C JUMP JUMPDEST JUMPDEST PUSH1 0x0 PUSH2 0x657 DUP6 DUP3 DUP7 ADD PUSH2 0x5DB JUMP JUMPDEST SWAP3 POP POP PUSH1 0x20 PUSH2 0x668 DUP6 DUP3 DUP7 ADD PUSH2 0x5C6 JUMP JUMPDEST SWAP2 POP POP SWAP3 POP SWAP3 SWAP1 POP JUMP JUMPDEST PUSH1 0x0 DUP1 PUSH1 0x40 DUP4 DUP6 SUB SLT ISZERO PUSH2 0x689 JUMPI PUSH2 0x688 PUSH2 0x93C JUMP JUMPDEST JUMPDEST PUSH1 0x0 PUSH2 0x697 DUP6 DUP3 DUP7 ADD PUSH2 0x5F0 JUMP JUMPDEST SWAP3 POP POP PUSH1 0x20 PUSH2 0x6A8 DUP6 DUP3 DUP7 ADD PUSH2 0x5C6 JUMP JUMPDEST SWAP2 POP POP SWAP3 POP SWAP3 SWAP1 POP JUMP JUMPDEST PUSH2 0x6BB DUP2 PUSH2 0x860 JUMP JUMPDEST DUP3 MSTORE POP POP JUMP JUMPDEST PUSH2 0x6CA DUP2 PUSH2 0x872 JUMP JUMPDEST DUP3 MSTORE POP POP JUMP JUMPDEST PUSH1 0x0 PUSH2 0x6DB DUP3 PUSH2 0x844 JUMP JUMPDEST PUSH2 0x6E5 DUP2 DUP6 PUSH2 0x84F JUMP JUMPDEST SWAP4 POP PUSH2 0x6F5 DUP2 DUP6 PUSH1 0x20 DUP7 ADD PUSH2 0x8A8 JUMP JUMPDEST PUSH2 0x6FE DUP2 PUSH2 0x941 JUMP JUMPDEST DUP5 ADD SWAP2 POP POP SWAP3 SWAP2 POP POP JUMP JUMPDEST PUSH1 0x0 PUSH2 0x716 PUSH1 0x25 DUP4 PUSH2 0x84F JUMP JUMPDEST SWAP2 POP PUSH2 0x721 DUP3 PUSH2 0x952 JUMP JUMPDEST PUSH1 0x40 DUP3 ADD SWAP1 POP SWAP2 SWAP1 POP JUMP JUMPDEST PUSH1 0x0 PUSH2 0x739 PUSH1 0x19 DUP4 PUSH2 0x84F JUMP JUMPDEST SWAP2 POP PUSH2 0x744 DUP3 PUSH2 0x9A1 JUMP JUMPDEST PUSH1 0x20 DUP3 ADD SWAP1 POP SWAP2 SWAP1 POP JUMP JUMPDEST PUSH2 0x758 DUP2 PUSH2 0x89E JUMP JUMPDEST DUP3 MSTORE POP POP JUMP JUMPDEST PUSH1 0x0 PUSH1 0x40 DUP3 ADD SWAP1 POP PUSH2 0x773 PUSH1 0x0 DUP4 ADD DUP6 PUSH2 0x6B2 JUMP JUMPDEST PUSH2 0x780 PUSH1 0x20 DUP4 ADD DUP5 PUSH2 0x74F JUMP JUMPDEST SWAP4 SWAP3 POP POP POP JUMP JUMPDEST PUSH1 0x0 PUSH1 0x20 DUP3 ADD SWAP1 POP DUP2 DUP2 SUB PUSH1 0x0 DUP4 ADD MSTORE PUSH2 0x7A0 DUP2 PUSH2 0x709 JUMP JUMPDEST SWAP1 POP SWAP2 SWAP1 POP JUMP JUMPDEST PUSH1 0x0 PUSH1 0x20 DUP3 ADD SWAP1 POP DUP2 DUP2 SUB PUSH1 0x0 DUP4 ADD MSTORE PUSH2 0x7C0 DUP2 PUSH2 0x72C JUMP JUMPDEST SWAP1 POP SWAP2 SWAP1 POP JUMP JUMPDEST PUSH1 0x0 PUSH1 0xE0 DUP3 ADD SWAP1 POP PUSH2 0x7DC PUSH1 0x0 DUP4 ADD DUP11 PUSH2 0x74F JUMP JUMPDEST PUSH2 0x7E9 PUSH1 0x20 DUP4 ADD DUP10 PUSH2 0x74F JUMP JUMPDEST PUSH2 0x7F6 PUSH1 0x40 DUP4 ADD DUP9 PUSH2 0x74F JUMP JUMPDEST DUP2 DUP2 SUB PUSH1 0x60 DUP4 ADD MSTORE PUSH2 0x808 DUP2 DUP8 PUSH2 0x6D0 JUMP JUMPDEST SWAP1 POP DUP2 DUP2 SUB PUSH1 0x80 DUP4 ADD MSTORE PUSH2 0x81C DUP2 DUP7 PUSH2 0x6D0 JUMP JUMPDEST SWAP1 POP PUSH2 0x82B PUSH1 0xA0 DUP4 ADD DUP6 PUSH2 0x6C1 JUMP JUMPDEST PUSH2 0x838 PUSH1 0xC0 DUP4 ADD DUP5 PUSH2 0x74F JUMP JUMPDEST SWAP9 SWAP8 POP POP POP POP POP POP POP POP JUMP JUMPDEST PUSH1 0x0 DUP2 MLOAD SWAP1 POP SWAP2 SWAP1 POP JUMP JUMPDEST PUSH1 0x0 DUP3 DUP3 MSTORE PUSH1 0x20 DUP3 ADD SWAP1 POP SWAP3 SWAP2 POP POP JUMP JUMPDEST PUSH1 0x0 PUSH2 0x86B DUP3 PUSH2 0x87E JUMP JUMPDEST SWAP1 POP SWAP2 SWAP1 POP JUMP JUMPDEST PUSH1 0x0 DUP2 ISZERO ISZERO SWAP1 POP SWAP2 SWAP1 POP JUMP JUMPDEST PUSH1 0x0 PUSH20 0xFFFFFFFFFFFFFFFFFFFFFFFFFFFFFFFFFFFFFFFF DUP3 AND SWAP1 POP SWAP2 SWAP1 POP JUMP JUMPDEST PUSH1 0x0 DUP2 SWAP1 POP SWAP2 SWAP1 POP JUMP JUMPDEST PUSH1 0x0 JUMPDEST DUP4 DUP2 LT ISZERO PUSH2 0x8C6 JUMPI DUP1 DUP3 ADD MLOAD DUP2 DUP5 ADD MSTORE PUSH1 0x20 DUP2 ADD SWAP1 POP PUSH2 0x8AB JUMP JUMPDEST DUP4 DUP2 GT ISZERO PUSH2 0x8D5 JUMPI PUSH1 0x0 DUP5 DUP5 ADD MSTORE JUMPDEST POP POP POP POP JUMP JUMPDEST PUSH1 0x0 PUSH1 0x2 DUP3 DIV SWAP1 POP PUSH1 0x1 DUP3 AND DUP1 PUSH2 0x8F3 JUMPI PUSH1 0x7F DUP3 AND SWAP2 POP JUMPDEST PUSH1 0x20 DUP3 LT DUP2 EQ ISZERO PUSH2 0x907 JUMPI PUSH2 0x906 PUSH2 0x90D JUMP JUMPDEST JUMPDEST POP SWAP2 SWAP1 POP JUMP JUMPDEST PUSH32 0x4E487B7100000000000000000000000000000000000000000000000000000000 PUSH1 0x0 MSTORE PUSH1 0x22 PUSH1 0x4 MSTORE PUSH1 0x24 PUSH1 0x0 REVERT JUMPDEST PUSH1 0x0 DUP1 REVERT JUMPDEST PUSH1 0x0 PUSH1 0x1F NOT PUSH1 0x1F DUP4 ADD AND SWAP1 POP SWAP2 SWAP1 POP JUMP JUMPDEST PUSH32 0x4F6E6C7920746865206F776E65722063616E2063616C6C20746869732066756E PUSH1 0x0 DUP3 ADD MSTORE PUSH32 0x6374696F6E000000000000000000000000000000000000000000000000000000 PUSH1 0x20 DUP3 ADD MSTORE POP JUMP JUMPDEST PUSH32 0x4E6F7420656E6F756768206574686572207761732073656E7400000000000000 PUSH1 0x0 DUP3 ADD MSTORE POP JUMP JUMPDEST PUSH2 0x9D3 DUP2 PUSH2 0x860 JUMP JUMPDEST DUP2 EQ PUSH2 0x9DE JUMPI PUSH1 0x0 DUP1 REVERT JUMPDEST POP JUMP JUMPDEST PUSH2 0x9EA DUP2 PUSH2 0x872 JUMP JUMPDEST DUP2 EQ PUSH2 0x9F5 JUMPI PUSH1 0x0 DUP1 REVERT JUMPDEST POP JUMP JUMPDEST PUSH2 0xA01 DUP2 PUSH2 0x89E JUMP JUMPDEST DUP2 EQ PUSH2 0xA0C JUMPI PUSH1 0x0 DUP1 REVERT JUMPDEST POP JUMP INVALID LOG2 PUSH5 0x6970667358 0x22 SLT KECCAK256 0xB4 STATICCALL 0xA5 0xC7 0xAC PUSH12 0xB3B6A807A45AB8ADFA58C5FC 0xBD DUP16 GASPRICE KECCAK256 PUSH13 0x39D86502E85EB7078764736F6C PUSH4 0x43000807 STOP CALLER PUSH1 0x80 PUSH1 0x40 MSTORE CALLVALUE DUP1 ISZERO PUSH3 0x11 JUMPI PUSH1 0x0 DUP1 REVERT JUMPDEST POP PUSH1 0x40 MLOAD PUSH3 0xF91 CODESIZE SUB DUP1 PUSH3 0xF91 DUP4 CODECOPY DUP2 DUP2 ADD PUSH1 0x40 MSTORE DUP2 ADD SWAP1 PUSH3 0x37 SWAP2 SWAP1 PUSH3 0x250 JUMP JUMPDEST CALLER PUSH1 0x0 DUP1 PUSH2 0x100 EXP DUP2 SLOAD DUP2 PUSH20 0xFFFFFFFFFFFFFFFFFFFFFFFFFFFFFFFFFFFFFFFF MUL NOT AND SWAP1 DUP4 PUSH20 0xFFFFFFFFFFFFFFFFFFFFFFFFFFFFFFFFFFFFFFFF AND MUL OR SWAP1 SSTORE POP DUP8 PUSH1 0x1 DUP2 SWAP1 SSTORE POP DUP7 PUSH1 0x2 DUP2 SWAP1 SSTORE POP DUP6 PUSH1 0x3 DUP2 SWAP1 SSTORE POP DUP5 PUSH1 0x4 DUP2 SWAP1 SSTORE POP DUP4 PUSH1 0x5 SWAP1 DUP1 MLOAD SWAP1 PUSH1 0x20 ADD SWAP1 PUSH3 0xAB SWAP3 SWAP2 SWAP1 PUSH3 0xF4 JUMP JUMPDEST POP DUP3 PUSH1 0x6 SWAP1 DUP1 MLOAD SWAP1 PUSH1 0x20 ADD SWAP1 PUSH3 0xC4 SWAP3 SWAP2 SWAP1 PUSH3 0xF4 JUMP JUMPDEST POP DUP2 PUSH1 0x7 PUSH1 0x0 PUSH2 0x100 EXP DUP2 SLOAD DUP2 PUSH1 0xFF MUL NOT AND SWAP1 DUP4 ISZERO ISZERO MUL OR SWAP1 SSTORE POP DUP1 PUSH1 0x8 DUP2 SWAP1 SSTORE POP POP POP POP POP POP POP POP POP PUSH3 0x525 JUMP JUMPDEST DUP3 DUP1 SLOAD PUSH3 0x102 SWAP1 PUSH3 0x402 JUMP JUMPDEST SWAP1 PUSH1 0x0 MSTORE PUSH1 0x20 PUSH1 0x0 KECCAK256 SWAP1 PUSH1 0x1F ADD PUSH1 0x20 SWAP1 DIV DUP2 ADD SWAP3 DUP3 PUSH3 0x126 JUMPI PUSH1 0x0 DUP6 SSTORE PUSH3 0x172 JUMP JUMPDEST DUP3 PUSH1 0x1F LT PUSH3 0x141 JUMPI DUP1 MLOAD PUSH1 0xFF NOT AND DUP4 DUP1 ADD OR DUP6 SSTORE PUSH3 0x172 JUMP JUMPDEST DUP3 DUP1 ADD PUSH1 0x1 ADD DUP6 SSTORE DUP3 ISZERO PUSH3 0x172 JUMPI SWAP2 DUP3 ADD JUMPDEST DUP3 DUP2 GT ISZERO PUSH3 0x171 JUMPI DUP3 MLOAD DUP3 SSTORE SWAP2 PUSH1 0x20 ADD SWAP2 SWAP1 PUSH1 0x1 ADD SWAP1 PUSH3 0x154 JUMP JUMPDEST JUMPDEST POP SWAP1 POP PUSH3 0x181 SWAP2 SWAP1 PUSH3 0x185 JUMP JUMPDEST POP SWAP1 JUMP JUMPDEST JUMPDEST DUP1 DUP3 GT ISZERO PUSH3 0x1A0 JUMPI PUSH1 0x0 DUP2 PUSH1 0x0 SWAP1 SSTORE POP PUSH1 0x1 ADD PUSH3 0x186 JUMP JUMPDEST POP SWAP1 JUMP JUMPDEST PUSH1 0x0 PUSH3 0x1BB PUSH3 0x1B5 DUP5 PUSH3 0x380 JUMP JUMPDEST PUSH3 0x357 JUMP JUMPDEST SWAP1 POP DUP3 DUP2 MSTORE PUSH1 0x20 DUP2 ADD DUP5 DUP5 DUP5 ADD GT ISZERO PUSH3 0x1DA JUMPI PUSH3 0x1D9 PUSH3 0x4D1 JUMP JUMPDEST JUMPDEST PUSH3 0x1E7 DUP5 DUP3 DUP6 PUSH3 0x3CC JUMP JUMPDEST POP SWAP4 SWAP3 POP POP POP JUMP JUMPDEST PUSH1 0x0 DUP2 MLOAD SWAP1 POP PUSH3 0x200 DUP2 PUSH3 0x4F1 JUMP JUMPDEST SWAP3 SWAP2 POP POP JUMP JUMPDEST PUSH1 0x0 DUP3 PUSH1 0x1F DUP4 ADD SLT PUSH3 0x21E JUMPI PUSH3 0x21D PUSH3 0x4CC JUMP JUMPDEST JUMPDEST DUP2 MLOAD PUSH3 0x230 DUP5 DUP3 PUSH1 0x20 DUP7 ADD PUSH3 0x1A4 JUMP JUMPDEST SWAP2 POP POP SWAP3 SWAP2 POP POP JUMP JUMPDEST PUSH1 0x0 DUP2 MLOAD SWAP1 POP PUSH3 0x24A DUP2 PUSH3 0x50B JUMP JUMPDEST SWAP3 SWAP2 POP POP JUMP JUMPDEST PUSH1 0x0 DUP1 PUSH1 0x0 DUP1 PUSH1 0x0 DUP1 PUSH1 0x0 DUP1 PUSH2 0x100 DUP10 DUP12 SUB SLT ISZERO PUSH3 0x274 JUMPI PUSH3 0x273 PUSH3 0x4DB JUMP JUMPDEST JUMPDEST PUSH1 0x0 PUSH3 0x284 DUP12 DUP3 DUP13 ADD PUSH3 0x239 JUMP JUMPDEST SWAP9 POP POP PUSH1 0x20 PUSH3 0x297 DUP12 DUP3 DUP13 ADD PUSH3 0x239 JUMP JUMPDEST SWAP8 POP POP PUSH1 0x40 PUSH3 0x2AA DUP12 DUP3 DUP13 ADD PUSH3 0x239 JUMP JUMPDEST SWAP7 POP POP PUSH1 0x60 PUSH3 0x2BD DUP12 DUP3 DUP13 ADD PUSH3 0x239 JUMP JUMPDEST SWAP6 POP POP PUSH1 0x80 DUP10 ADD MLOAD PUSH8 0xFFFFFFFFFFFFFFFF DUP2 GT ISZERO PUSH3 0x2E1 JUMPI PUSH3 0x2E0 PUSH3 0x4D6 JUMP JUMPDEST JUMPDEST PUSH3 0x2EF DUP12 DUP3 DUP13 ADD PUSH3 0x206 JUMP JUMPDEST SWAP5 POP POP PUSH1 0xA0 DUP10 ADD MLOAD PUSH8 0xFFFFFFFFFFFFFFFF DUP2 GT ISZERO PUSH3 0x313 JUMPI PUSH3 0x312 PUSH3 0x4D6 JUMP JUMPDEST JUMPDEST PUSH3 0x321 DUP12 DUP3 DUP13 ADD PUSH3 0x206 JUMP JUMPDEST SWAP4 POP POP PUSH1 0xC0 PUSH3 0x334 DUP12 DUP3 DUP13 ADD PUSH3 0x1EF JUMP JUMPDEST SWAP3 POP POP PUSH1 0xE0 PUSH3 0x347 DUP12 DUP3 DUP13 ADD PUSH3 0x239 JUMP JUMPDEST SWAP2 POP POP SWAP3 SWAP6 SWAP9 POP SWAP3 SWAP6 SWAP9 SWAP1 SWAP4 SWAP7 POP JUMP JUMPDEST PUSH1 0x0 PUSH3 0x363 PUSH3 0x376 JUMP JUMPDEST SWAP1 POP PUSH3 0x371 DUP3 DUP3 PUSH3 0x438 JUMP JUMPDEST SWAP2 SWAP1 POP JUMP JUMPDEST PUSH1 0x0 PUSH1 0x40 MLOAD SWAP1 POP SWAP1 JUMP JUMPDEST PUSH1 0x0 PUSH8 0xFFFFFFFFFFFFFFFF DUP3 GT ISZERO PUSH3 0x39E JUMPI PUSH3 0x39D PUSH3 0x49D JUMP JUMPDEST JUMPDEST PUSH3 0x3A9 DUP3 PUSH3 0x4E0 JUMP JUMPDEST SWAP1 POP PUSH1 0x20 DUP2 ADD SWAP1 POP SWAP2 SWAP1 POP JUMP JUMPDEST PUSH1 0x0 DUP2 ISZERO ISZERO SWAP1 POP SWAP2 SWAP1 POP JUMP JUMPDEST PUSH1 0x0 DUP2 SWAP1 POP SWAP2 SWAP1 POP JUMP JUMPDEST PUSH1 0x0 JUMPDEST DUP4 DUP2 LT ISZERO PUSH3 0x3EC JUMPI DUP1 DUP3 ADD MLOAD DUP2 DUP5 ADD MSTORE PUSH1 0x20 DUP2 ADD SWAP1 POP PUSH3 0x3CF JUMP JUMPDEST DUP4 DUP2 GT ISZERO PUSH3 0x3FC JUMPI PUSH1 0x0 DUP5 DUP5 ADD MSTORE JUMPDEST POP POP POP POP JUMP JUMPDEST PUSH1 0x0 PUSH1 0x2 DUP3 DIV SWAP1 POP PUSH1 0x1 DUP3 AND DUP1 PUSH3 0x41B JUMPI PUSH1 0x7F DUP3 AND SWAP2 POP JUMPDEST PUSH1 0x20 DUP3 LT DUP2 EQ ISZERO PUSH3 0x432 JUMPI PUSH3 0x431 PUSH3 0x46E JUMP JUMPDEST JUMPDEST POP SWAP2 SWAP1 POP JUMP JUMPDEST PUSH3 0x443 DUP3 PUSH3 0x4E0 JUMP JUMPDEST DUP2 ADD DUP2 DUP2 LT PUSH8 0xFFFFFFFFFFFFFFFF DUP3 GT OR ISZERO PUSH3 0x465 JUMPI PUSH3 0x464 PUSH3 0x49D JUMP JUMPDEST JUMPDEST DUP1 PUSH1 0x40 MSTORE POP POP POP JUMP JUMPDEST PUSH32 0x4E487B7100000000000000000000000000000000000000000000000000000000 PUSH1 0x0 MSTORE PUSH1 0x22 PUSH1 0x4 MSTORE PUSH1 0x24 PUSH1 0x0 REVERT JUMPDEST PUSH32 0x4E487B7100000000000000000000000000000000000000000000000000000000 PUSH1 0x0 MSTORE PUSH1 0x41 PUSH1 0x4 MSTORE PUSH1 0x24 PUSH1 0x0 REVERT JUMPDEST PUSH1 0x0 DUP1 REVERT JUMPDEST PUSH1 0x0 DUP1 REVERT JUMPDEST PUSH1 0x0 DUP1 REVERT JUMPDEST PUSH1 0x0 DUP1 REVERT JUMPDEST PUSH1 0x0 PUSH1 0x1F NOT PUSH1 0x1F DUP4 ADD AND SWAP1 POP SWAP2 SWAP1 POP JUMP JUMPDEST PUSH3 0x4FC DUP2 PUSH3 0x3B6 JUMP JUMPDEST DUP2 EQ PUSH3 0x508 JUMPI PUSH1 0x0 DUP1 REVERT JUMPDEST POP JUMP JUMPDEST PUSH3 0x516 DUP2 PUSH3 0x3C2 JUMP JUMPDEST DUP2 EQ PUSH3 0x522 JUMPI PUSH1 0x0 DUP1 REVERT JUMPDEST POP JUMP JUMPDEST PUSH2 0xA5C DUP1 PUSH3 0x535 PUSH1 0x0 CODECOPY PUSH1 0x0 RETURN INVALID PUSH1 0x80 PUSH1 0x40 MSTORE PUSH1 0x4 CALLDATASIZE LT PUSH2 0x3F JUMPI PUSH1 0x0 CALLDATALOAD PUSH1 0xE0 SHR DUP1 PUSH4 0x485F4767 EQ PUSH2 0x44 JUMPI DUP1 PUSH4 0x5E375475 EQ PUSH2 0x6D JUMPI DUP1 PUSH4 0xA6F9DAE1 EQ PUSH2 0x96 JUMPI DUP1 PUSH4 0xFBBF93A0 EQ PUSH2 0xB2 JUMPI JUMPDEST PUSH1 0x0 DUP1 REVERT JUMPDEST CALLVALUE DUP1 ISZERO PUSH2 0x50 JUMPI PUSH1 0x0 DUP1 REVERT JUMPDEST POP PUSH2 0x6B PUSH1 0x4 DUP1 CALLDATASIZE SUB DUP2 ADD SWAP1 PUSH2 0x66 SWAP2 SWAP1 PUSH2 0x67A JUMP JUMPDEST PUSH2 0xE4 JUMP JUMPDEST STOP JUMPDEST CALLVALUE DUP1 ISZERO PUSH2 0x79 JUMPI PUSH1 0x0 DUP1 REVERT JUMPDEST POP PUSH2 0x94 PUSH1 0x4 DUP1 CALLDATASIZE SUB DUP2 ADD SWAP1 PUSH2 0x8F SWAP2 SWAP1 PUSH2 0x63A JUMP JUMPDEST PUSH2 0x17F JUMP JUMPDEST STOP JUMPDEST PUSH2 0xB0 PUSH1 0x4 DUP1 CALLDATASIZE SUB DUP2 ADD SWAP1 PUSH2 0xAB SWAP2 SWAP1 PUSH2 0x60D JUMP JUMPDEST PUSH2 0x22D JUMP JUMPDEST STOP JUMPDEST CALLVALUE DUP1 ISZERO PUSH2 0xBE JUMPI PUSH1 0x0 DUP1 REVERT JUMPDEST POP PUSH2 0xC7 PUSH2 0x46D JUMP JUMPDEST PUSH1 0x40 MLOAD PUSH2 0xDB SWAP9 SWAP8 SWAP7 SWAP6 SWAP5 SWAP4 SWAP3 SWAP2 SWAP1 PUSH2 0x7CF JUMP JUMPDEST PUSH1 0x40 MLOAD DUP1 SWAP2 SUB SWAP1 RETURN JUMPDEST DUP1 PUSH1 0x0 DUP1 SLOAD SWAP1 PUSH2 0x100 EXP SWAP1 DIV PUSH20 0xFFFFFFFFFFFFFFFFFFFFFFFFFFFFFFFFFFFFFFFF AND PUSH20 0xFFFFFFFFFFFFFFFFFFFFFFFFFFFFFFFFFFFFFFFF AND DUP2 PUSH20 0xFFFFFFFFFFFFFFFFFFFFFFFFFFFFFFFFFFFFFFFF AND EQ PUSH2 0x173 JUMPI PUSH1 0x40 MLOAD PUSH32 0x8C379A000000000000000000000000000000000000000000000000000000000 DUP2 MSTORE PUSH1 0x4 ADD PUSH2 0x16A SWAP1 PUSH2 0x78F JUMP JUMPDEST PUSH1 0x40 MLOAD DUP1 SWAP2 SUB SWAP1 REVERT JUMPDEST DUP3 PUSH1 0x8 DUP2 SWAP1 SSTORE POP POP POP POP JUMP JUMPDEST DUP1 PUSH1 0x0 DUP1 SLOAD SWAP1 PUSH2 0x100 EXP SWAP1 DIV PUSH20 0xFFFFFFFFFFFFFFFFFFFFFFFFFFFFFFFFFFFFFFFF AND PUSH20 0xFFFFFFFFFFFFFFFFFFFFFFFFFFFFFFFFFFFFFFFF AND DUP2 PUSH20 0xFFFFFFFFFFFFFFFFFFFFFFFFFFFFFFFFFFFFFFFF AND EQ PUSH2 0x20E JUMPI PUSH1 0x40 MLOAD PUSH32 0x8C379A000000000000000000000000000000000000000000000000000000000 DUP2 MSTORE PUSH1 0x4 ADD PUSH2 0x205 SWAP1 PUSH2 0x78F JUMP JUMPDEST PUSH1 0x40 MLOAD DUP1 SWAP2 SUB SWAP1 REVERT JUMPDEST DUP3 PUSH1 0x7 PUSH1 0x0 PUSH2 0x100 EXP DUP2 SLOAD DUP2 PUSH1 0xFF MUL NOT AND SWAP1 DUP4 ISZERO ISZERO MUL OR SWAP1 SSTORE POP POP POP POP JUMP JUMPDEST PUSH1 0x1 ISZERO ISZERO PUSH1 0x7 PUSH1 0x0 SWAP1 SLOAD SWAP1 PUSH2 0x100 EXP SWAP1 DIV PUSH1 0xFF AND ISZERO ISZERO EQ PUSH2 0x24D JUMPI PUSH1 0x0 DUP1 REVERT JUMPDEST PUSH1 0x8 SLOAD CALLVALUE LT ISZERO PUSH2 0x2D9 JUMPI DUP1 PUSH20 0xFFFFFFFFFFFFFFFFFFFFFFFFFFFFFFFFFFFFFFFF AND PUSH2 0x8FC CALLVALUE SWAP1 DUP2 ISZERO MUL SWAP1 PUSH1 0x40 MLOAD PUSH1 0x0 PUSH1 0x40 MLOAD DUP1 DUP4 SUB DUP2 DUP6 DUP9 DUP9 CALL SWAP4 POP POP POP POP ISZERO DUP1 ISZERO PUSH2 0x29D JUMPI RETURNDATASIZE PUSH1 0x0 DUP1 RETURNDATACOPY RETURNDATASIZE PUSH1 0x0 REVERT JUMPDEST POP PUSH1 0x40 MLOAD PUSH32 0x8C379A000000000000000000000000000000000000000000000000000000000 DUP2 MSTORE PUSH1 0x4 ADD PUSH2 0x2D0 SWAP1 PUSH2 0x7AF JUMP JUMPDEST PUSH1 0x40 MLOAD DUP1 SWAP2 SUB SWAP1 REVERT JUMPDEST PUSH1 0x0 DUP1 SLOAD SWAP1 PUSH2 0x100 EXP SWAP1 DIV PUSH20 0xFFFFFFFFFFFFFFFFFFFFFFFFFFFFFFFFFFFFFFFF AND PUSH20 0xFFFFFFFFFFFFFFFFFFFFFFFFFFFFFFFFFFFFFFFF AND PUSH2 0x8FC CALLVALUE SWAP1 DUP2 ISZERO MUL SWAP1 PUSH1 0x40 MLOAD PUSH1 0x0 PUSH1 0x40 MLOAD DUP1 DUP4 SUB DUP2 DUP6 DUP9 DUP9 CALL SWAP4 POP POP POP POP ISZERO DUP1 ISZERO PUSH2 0x33F JUMPI RETURNDATASIZE PUSH1 0x0 DUP1 RETURNDATACOPY RETURNDATASIZE PUSH1 0x0 REVERT JUMPDEST POP PUSH1 0x0 DUP1 SLOAD SWAP1 PUSH2 0x100 EXP SWAP1 DIV PUSH20 0xFFFFFFFFFFFFFFFFFFFFFFFFFFFFFFFFFFFFFFFF AND PUSH1 0xA PUSH1 0x0 PUSH2 0x100 EXP DUP2 SLOAD DUP2 PUSH20 0xFFFFFFFFFFFFFFFFFFFFFFFFFFFFFFFFFFFFFFFF MUL NOT AND SWAP1 DUP4 PUSH20 0xFFFFFFFFFFFFFFFFFFFFFFFFFFFFFFFFFFFFFFFF AND MUL OR SWAP1 SSTORE POP DUP1 PUSH1 0x0 DUP1 PUSH2 0x100 EXP DUP2 SLOAD DUP2 PUSH20 0xFFFFFFFFFFFFFFFFFFFFFFFFFFFFFFFFFFFFFFFF MUL NOT AND SWAP1 DUP4 PUSH20 0xFFFFFFFFFFFFFFFFFFFFFFFFFFFFFFFFFFFFFFFF AND MUL OR SWAP1 SSTORE POP PUSH1 0x0 PUSH1 0x7 PUSH1 0x0 PUSH2 0x100 EXP DUP2 SLOAD DUP2 PUSH1 0xFF MUL NOT AND SWAP1 DUP4 ISZERO ISZERO MUL OR SWAP1 SSTORE POP PUSH1 0x8 SLOAD PUSH1 0x9 DUP2 SWAP1 SSTORE POP PUSH1 0x0 PUSH1 0x8 DUP2 SWAP1 SSTORE POP PUSH32 0x4DC7E7DCEE44619D786319FC36FDAFAE2D190C6BC41A6110BCB967A6B10FFA52 PUSH1 0xA PUSH1 0x0 SWAP1 SLOAD SWAP1 PUSH2 0x100 EXP SWAP1 DIV PUSH20 0xFFFFFFFFFFFFFFFFFFFFFFFFFFFFFFFFFFFFFFFF AND PUSH1 0x9 SLOAD PUSH1 0x40 MLOAD PUSH2 0x462 SWAP3 SWAP2 SWAP1 PUSH2 0x766 JUMP JUMPDEST PUSH1 0x40 MLOAD DUP1 SWAP2 SUB SWAP1 LOG1 POP JUMP JUMPDEST PUSH1 0x0 DUP1 PUSH1 0x0 DUP1 PUSH1 0x60 DUP1 PUSH1 0x0 DUP1 PUSH1 0x1 SLOAD PUSH1 0x2 SLOAD PUSH1 0x4 SLOAD PUSH1 0x3 SLOAD PUSH1 0x5 PUSH1 0x6 PUSH1 0x7 PUSH1 0x0 SWAP1 SLOAD SWAP1 PUSH2 0x100 EXP SWAP1 DIV PUSH1 0xFF AND PUSH1 0x8 SLOAD DUP4 DUP1 SLOAD PUSH2 0x4A8 SWAP1 PUSH2 0x8F2 JUMP JUMPDEST DUP1 PUSH1 0x1F ADD PUSH1 0x20 DUP1 SWAP2 DIV MUL PUSH1 0x20 ADD PUSH1 0x40 MLOAD SWAP1 DUP2 ADD PUSH1 0x40 MSTORE DUP1 SWAP3 SWAP2 SWAP1 DUP2 DUP2 MSTORE PUSH1 0x20 ADD DUP3 DUP1 SLOAD PUSH2 0x4D4 SWAP1 PUSH2 0x8F2 JUMP JUMPDEST DUP1 ISZERO PUSH2 0x521 JUMPI DUP1 PUSH1 0x1F LT PUSH2 0x4F6 JUMPI PUSH2 0x100 DUP1 DUP4 SLOAD DIV MUL DUP4 MSTORE SWAP2 PUSH1 0x20 ADD SWAP2 PUSH2 0x521 JUMP JUMPDEST DUP3 ADD SWAP2 SWAP1 PUSH1 0x0 MSTORE PUSH1 0x20 PUSH1 0x0 KECCAK256 SWAP1 JUMPDEST DUP2 SLOAD DUP2 MSTORE SWAP1 PUSH1 0x1 ADD SWAP1 PUSH1 0x20 ADD DUP1 DUP4 GT PUSH2 0x504 JUMPI DUP3 SWAP1 SUB PUSH1 0x1F AND DUP3 ADD SWAP2 JUMPDEST POP POP POP POP POP SWAP4 POP DUP3 DUP1 SLOAD PUSH2 0x534 SWAP1 PUSH2 0x8F2 JUMP JUMPDEST DUP1 PUSH1 0x1F ADD PUSH1 0x20 DUP1 SWAP2 DIV MUL PUSH1 0x20 ADD PUSH1 0x40 MLOAD SWAP1 DUP2 ADD PUSH1 0x40 MSTORE DUP1 SWAP3 SWAP2 SWAP1 DUP2 DUP2 MSTORE PUSH1 0x20 ADD DUP3 DUP1 SLOAD PUSH2 0x560 SWAP1 PUSH2 0x8F2 JUMP JUMPDEST DUP1 ISZERO PUSH2 0x5AD JUMPI DUP1 PUSH1 0x1F LT PUSH2 0x582 JUMPI PUSH2 0x100 DUP1 DUP4 SLOAD DIV MUL DUP4 MSTORE SWAP2 PUSH1 0x20 ADD SWAP2 PUSH2 0x5AD JUMP JUMPDEST DUP3 ADD SWAP2 SWAP1 PUSH1 0x0 MSTORE PUSH1 0x20 PUSH1 0x0 KECCAK256 SWAP1 JUMPDEST DUP2 SLOAD DUP2 MSTORE SWAP1 PUSH1 0x1 ADD SWAP1 PUSH1 0x20 ADD DUP1 DUP4 GT PUSH2 0x590 JUMPI DUP3 SWAP1 SUB PUSH1 0x1F AND DUP3 ADD SWAP2 JUMPDEST POP POP POP POP POP SWAP3 POP SWAP8 POP SWAP8 POP SWAP8 POP SWAP8 POP SWAP8 POP SWAP8 POP SWAP8 POP SWAP8 POP SWAP1 SWAP2 SWAP3 SWAP4 SWAP5 SWAP6 SWAP7 SWAP8 JUMP JUMPDEST PUSH1 0x0 DUP2 CALLDATALOAD SWAP1 POP PUSH2 0x5DD DUP2 PUSH2 0x9E1 JUMP JUMPDEST SWAP3 SWAP2 POP POP JUMP JUMPDEST PUSH1 0x0 DUP2 CALLDATALOAD SWAP1 POP PUSH2 0x5F2 DUP2 PUSH2 0x9F8 JUMP JUMPDEST SWAP3 SWAP2 POP POP JUMP JUMPDEST PUSH1 0x0 DUP2 CALLDATALOAD SWAP1 POP PUSH2 0x607 DUP2 PUSH2 0xA0F JUMP JUMPDEST SWAP3 SWAP2 POP POP JUMP JUMPDEST PUSH1 0x0 PUSH1 0x20 DUP3 DUP5 SUB SLT ISZERO PUSH2 0x623 JUMPI PUSH2 0x622 PUSH2 0x953 JUMP JUMPDEST JUMPDEST PUSH1 0x0 PUSH2 0x631 DUP5 DUP3 DUP6 ADD PUSH2 0x5CE JUMP JUMPDEST SWAP2 POP POP SWAP3 SWAP2 POP POP JUMP JUMPDEST PUSH1 0x0 DUP1 PUSH1 0x40 DUP4 DUP6 SUB SLT ISZERO PUSH2 0x651 JUMPI PUSH2 0x650 PUSH2 0x953 JUMP JUMPDEST JUMPDEST PUSH1 0x0 PUSH2 0x65F DUP6 DUP3 DUP7 ADD PUSH2 0x5E3 JUMP JUMPDEST SWAP3 POP POP PUSH1 0x20 PUSH2 0x670 DUP6 DUP3 DUP7 ADD PUSH2 0x5CE JUMP JUMPDEST SWAP2 POP POP SWAP3 POP SWAP3 SWAP1 POP JUMP JUMPDEST PUSH1 0x0 DUP1 PUSH1 0x40 DUP4 DUP6 SUB SLT ISZERO PUSH2 0x691 JUMPI PUSH2 0x690 PUSH2 0x953 JUMP JUMPDEST JUMPDEST PUSH1 0x0 PUSH2 0x69F DUP6 DUP3 DUP7 ADD PUSH2 0x5F8 JUMP JUMPDEST SWAP3 POP POP PUSH1 0x20 PUSH2 0x6B0 DUP6 DUP3 DUP7 ADD PUSH2 0x5CE JUMP JUMPDEST SWAP2 POP POP SWAP3 POP SWAP3 SWAP1 POP JUMP JUMPDEST PUSH2 0x6C3 DUP2 PUSH2 0x877 JUMP JUMPDEST DUP3 MSTORE POP POP JUMP JUMPDEST PUSH2 0x6D2 DUP2 PUSH2 0x889 JUMP JUMPDEST DUP3 MSTORE POP POP JUMP JUMPDEST PUSH1 0x0 PUSH2 0x6E3 DUP3 PUSH2 0x85B JUMP JUMPDEST PUSH2 0x6ED DUP2 DUP6 PUSH2 0x866 JUMP JUMPDEST SWAP4 POP PUSH2 0x6FD DUP2 DUP6 PUSH1 0x20 DUP7 ADD PUSH2 0x8BF JUMP JUMPDEST PUSH2 0x706 DUP2 PUSH2 0x958 JUMP JUMPDEST DUP5 ADD SWAP2 POP POP SWAP3 SWAP2 POP POP JUMP JUMPDEST PUSH1 0x0 PUSH2 0x71E PUSH1 0x25 DUP4 PUSH2 0x866 JUMP JUMPDEST SWAP2 POP PUSH2 0x729 DUP3 PUSH2 0x969 JUMP JUMPDEST PUSH1 0x40 DUP3 ADD SWAP1 POP SWAP2 SWAP1 POP JUMP JUMPDEST PUSH1 0x0 PUSH2 0x741 PUSH1 0x19 DUP4 PUSH2 0x866 JUMP JUMPDEST SWAP2 POP PUSH2 0x74C DUP3 PUSH2 0x9B8 JUMP JUMPDEST PUSH1 0x20 DUP3 ADD SWAP1 POP SWAP2 SWAP1 POP JUMP JUMPDEST PUSH2 0x760 DUP2 PUSH2 0x8B5 JUMP JUMPDEST DUP3 MSTORE POP POP JUMP JUMPDEST PUSH1 0x0 PUSH1 0x40 DUP3 ADD SWAP1 POP PUSH2 0x77B PUSH1 0x0 DUP4 ADD DUP6 PUSH2 0x6BA JUMP JUMPDEST PUSH2 0x788 PUSH1 0x20 DUP4 ADD DUP5 PUSH2 0x757 JUMP JUMPDEST SWAP4 SWAP3 POP POP POP JUMP JUMPDEST PUSH1 0x0 PUSH1 0x20 DUP3 ADD SWAP1 POP DUP2 DUP2 SUB PUSH1 0x0 DUP4 ADD MSTORE PUSH2 0x7A8 DUP2 PUSH2 0x711 JUMP JUMPDEST SWAP1 POP SWAP2 SWAP1 POP JUMP JUMPDEST PUSH1 0x0 PUSH1 0x20 DUP3 ADD SWAP1 POP DUP2 DUP2 SUB PUSH1 0x0 DUP4 ADD MSTORE PUSH2 0x7C8 DUP2 PUSH2 0x734 JUMP JUMPDEST SWAP1 POP SWAP2 SWAP1 POP JUMP JUMPDEST PUSH1 0x0 PUSH2 0x100 DUP3 ADD SWAP1 POP PUSH2 0x7E5 PUSH1 0x0 DUP4 ADD DUP12 PUSH2 0x757 JUMP JUMPDEST PUSH2 0x7F2 PUSH1 0x20 DUP4 ADD DUP11 PUSH2 0x757 JUMP JUMPDEST PUSH2 0x7FF PUSH1 0x40 DUP4 ADD DUP10 PUSH2 0x757 JUMP JUMPDEST PUSH2 0x80C PUSH1 0x60 DUP4 ADD DUP9 PUSH2 0x757 JUMP JUMPDEST DUP2 DUP2 SUB PUSH1 0x80 DUP4 ADD MSTORE PUSH2 0x81E DUP2 DUP8 PUSH2 0x6D8 JUMP JUMPDEST SWAP1 POP DUP2 DUP2 SUB PUSH1 0xA0 DUP4 ADD MSTORE PUSH2 0x832 DUP2 DUP7 PUSH2 0x6D8 JUMP JUMPDEST SWAP1 POP PUSH2 0x841 PUSH1 0xC0 DUP4 ADD DUP6 PUSH2 0x6C9 JUMP JUMPDEST PUSH2 0x84E PUSH1 0xE0 DUP4 ADD DUP5 PUSH2 0x757 JUMP JUMPDEST SWAP10 SWAP9 POP POP POP POP POP POP POP POP POP JUMP JUMPDEST PUSH1 0x0 DUP2 MLOAD SWAP1 POP SWAP2 SWAP1 POP JUMP JUMPDEST PUSH1 0x0 DUP3 DUP3 MSTORE PUSH1 0x20 DUP3 ADD SWAP1 POP SWAP3 SWAP2 POP POP JUMP JUMPDEST PUSH1 0x0 PUSH2 0x882 DUP3 PUSH2 0x895 JUMP JUMPDEST SWAP1 POP SWAP2 SWAP1 POP JUMP JUMPDEST PUSH1 0x0 DUP2 ISZERO ISZERO SWAP1 POP SWAP2 SWAP1 POP JUMP JUMPDEST PUSH1 0x0 PUSH20 0xFFFFFFFFFFFFFFFFFFFFFFFFFFFFFFFFFFFFFFFF DUP3 AND SWAP1 POP SWAP2 SWAP1 POP JUMP JUMPDEST PUSH1 0x0 DUP2 SWAP1 POP SWAP2 SWAP1 POP JUMP JUMPDEST PUSH1 0x0 JUMPDEST DUP4 DUP2 LT ISZERO PUSH2 0x8DD JUMPI DUP1 DUP3 ADD MLOAD DUP2 DUP5 ADD MSTORE PUSH1 0x20 DUP2 ADD SWAP1 POP PUSH2 0x8C2 JUMP JUMPDEST DUP4 DUP2 GT ISZERO PUSH2 0x8EC JUMPI PUSH1 0x0 DUP5 DUP5 ADD MSTORE JUMPDEST POP POP POP POP JUMP JUMPDEST PUSH1 0x0 PUSH1 0x2 DUP3 DIV SWAP1 POP PUSH1 0x1 DUP3 AND DUP1 PUSH2 0x90A JUMPI PUSH1 0x7F DUP3 AND SWAP2 POP JUMPDEST PUSH1 0x20 DUP3 LT DUP2 EQ ISZERO PUSH2 0x91E JUMPI PUSH2 0x91D PUSH2 0x924 JUMP JUMPDEST JUMPDEST POP SWAP2 SWAP1 POP JUMP JUMPDEST PUSH32 0x4E487B7100000000000000000000000000000000000000000000000000000000 PUSH1 0x0 MSTORE PUSH1 0x22 PUSH1 0x4 MSTORE PUSH1 0x24 PUSH1 0x0 REVERT JUMPDEST PUSH1 0x0 DUP1 REVERT JUMPDEST PUSH1 0x0 PUSH1 0x1F NOT PUSH1 0x1F DUP4 ADD AND SWAP1 POP SWAP2 SWAP1 POP JUMP JUMPDEST PUSH32 0x4F6E6C7920746865206F776E65722063616E2063616C6C20746869732066756E PUSH1 0x0 DUP3 ADD MSTORE PUSH32 0x6374696F6E000000000000000000000000000000000000000000000000000000 PUSH1 0x20 DUP3 ADD MSTORE POP JUMP JUMPDEST PUSH32 0x4E6F7420656E6F756768206574686572207761732073656E7400000000000000 PUSH1 0x0 DUP3 ADD MSTORE POP JUMP JUMPDEST PUSH2 0x9EA DUP2 PUSH2 0x877 JUMP JUMPDEST DUP2 EQ PUSH2 0x9F5 JUMPI PUSH1 0x0 DUP1 REVERT JUMPDEST POP JUMP JUMPDEST PUSH2 0xA01 DUP2 PUSH2 0x889 JUMP JUMPDEST DUP2 EQ PUSH2 0xA0C JUMPI PUSH1 0x0 DUP1 REVERT JUMPDEST POP JUMP JUMPDEST PUSH2 0xA18 DUP2 PUSH2 0x8B5 JUMP JUMPDEST DUP2 EQ PUSH2 0xA23 JUMPI PUSH1 0x0 DUP1 REVERT JUMPDEST POP JUMP INVALID LOG2 PUSH5 0x6970667358 0x22 SLT KECCAK256 DUP9 SUB 0xAE SWAP7 0xE2 EXTCODESIZE SWAP9 0xC0 0xC1 PUSH25 0x53E363ADF355D3ADF69EFE2AD2C84411481D2886323D64736F PUSH13 0x63430008070033A26469706673 PC 0x22 SLT KECCAK256 PUSH11 0xC035EDC2D723F5EBBFE45D MOD 0xB4 POP AND PUSH21 0x2E0B0EA68659698C97FC8B5DC8422664736F6C6343 STOP ADDMOD SMOD STOP CALLER "
        },
        "methodIdentifiers": {
          "AddFlat(uint256,uint256,uint256,string,string,bool,uint256)": "0234333e",
          "AddHouse(uint256,uint256,uint256,uint256,string,string,bool,uint256)": "c2937025",
          "buyFlat(uint256)": "1f34486f",
          "buyHouse(uint256)": "eddc4269",
          "getDetails(uint256)": "b93a89f7",
          "owner()": "8da5cb5b"
        }
      }
    }
  }
}