{
  "contracts/Main.sol": {
    "Main": {
      "abi": [
        {
          "inputs": [],
          "stateMutability": "nonpayable",
          "type": "constructor"
        },
        {
          "anonymous": false,
          "inputs": [
            {
              "indexed": false,
              "internalType": "uint256",
              "name": "flatId",
              "type": "uint256"
            },
            {
              "indexed": false,
              "internalType": "contract Flat",
              "name": "flat",
              "type": "address"
            },
            {
              "indexed": false,
              "internalType": "address",
              "name": "owner",
              "type": "address"
            }
          ],
          "name": "NewFlat",
          "type": "event"
        },
        {
          "anonymous": false,
          "inputs": [
            {
              "indexed": false,
              "internalType": "uint256",
              "name": "houseId",
              "type": "uint256"
            },
            {
              "indexed": false,
              "internalType": "address",
              "name": "house",
              "type": "address"
            },
            {
              "indexed": false,
              "internalType": "address",
              "name": "owner",
              "type": "address"
            }
          ],
          "name": "NewHouse",
          "type": "event"
        },
        {
          "inputs": [
            {
              "internalType": "uint256",
              "name": "_bedrooms",
              "type": "uint256"
            },
            {
              "internalType": "uint256",
              "name": "_bathrooms",
              "type": "uint256"
            },
            {
              "internalType": "uint256",
              "name": "_floor",
              "type": "uint256"
            },
            {
              "internalType": "string",
              "name": "_country",
              "type": "string"
            },
            {
              "internalType": "string",
              "name": "_city",
              "type": "string"
            },
            {
              "internalType": "bool",
              "name": "_forSale",
              "type": "bool"
            },
            {
              "internalType": "uint256",
              "name": "_price",
              "type": "uint256"
            }
          ],
          "name": "AddFlat",
          "outputs": [
            {
              "internalType": "uint256",
              "name": "",
              "type": "uint256"
            }
          ],
          "stateMutability": "nonpayable",
          "type": "function"
        },
        {
          "inputs": [
            {
              "internalType": "uint256",
              "name": "_bedrooms",
              "type": "uint256"
            },
            {
              "internalType": "uint256",
              "name": "_bathrooms",
              "type": "uint256"
            },
            {
              "internalType": "uint256",
              "name": "_sqrFootLand",
              "type": "uint256"
            },
            {
              "internalType": "uint256",
              "name": "_floors",
              "type": "uint256"
            },
            {
              "internalType": "string",
              "name": "_country",
              "type": "string"
            },
            {
              "internalType": "string",
              "name": "_city",
              "type": "string"
            },
            {
              "internalType": "bool",
              "name": "_forSale",
              "type": "bool"
            },
            {
              "internalType": "uint256",
              "name": "_price",
              "type": "uint256"
            }
          ],
          "name": "AddHouse",
          "outputs": [
            {
              "internalType": "uint256",
              "name": "",
              "type": "uint256"
            }
          ],
          "stateMutability": "nonpayable",
          "type": "function"
        },
        {
          "inputs": [
            {
              "internalType": "uint256",
              "name": "flatId",
              "type": "uint256"
            }
          ],
          "name": "buyFlat",
          "outputs": [],
          "stateMutability": "payable",
          "type": "function"
        },
        {
          "inputs": [
            {
              "internalType": "uint256",
              "name": "",
              "type": "uint256"
            }
          ],
          "name": "houses",
          "outputs": [
            {
              "internalType": "address",
              "name": "",
              "type": "address"
            }
          ],
          "stateMutability": "view",
          "type": "function"
        },
        {
          "inputs": [],
          "name": "owner",
          "outputs": [
            {
              "internalType": "address payable",
              "name": "",
              "type": "address"
            }
          ],
          "stateMutability": "view",
          "type": "function"
        }
      ],
      "evm": {
        "bytecode": {
          "linkReferences": {},
          "object": "608060405234801561001057600080fd5b5033600260006101000a81548173ffffffffffffffffffffffffffffffffffffffff021916908373ffffffffffffffffffffffffffffffffffffffff1602179055506000600381905550612dee806100696000396000f3fe608060405260043610620000505760003560e01c80630234333e14620000555780631f34486f14620000995780638da5cb5b14620000b9578063aeda852f14620000e9578063c2937025146200012d575b600080fd5b3480156200006257600080fd5b506200008160048036038101906200007b919062000632565b62000171565b60405162000090919062000998565b60405180910390f35b620000b76004803603810190620000b1919062000600565b620002d0565b005b348015620000c657600080fd5b50620000d16200037c565b604051620000e091906200097b565b60405180910390f35b348015620000f657600080fd5b506200011560048036038101906200010f919062000600565b620003a2565b6040516200012491906200095e565b60405180910390f35b3480156200013a57600080fd5b5062000159600480360381019062000153919062000723565b620003d5565b60405162000168919062000998565b60405180910390f35b60008088888888888888604051620001899062000538565b6200019b979695949392919062000a2f565b604051809103906000f080158015620001b8573d6000803e3d6000fd5b50905060036000815480929190620001d09062000d01565b9190505550600033600354604051602001620001ed919062000941565b604051602081830303815290604052805190602001206040516020016200021692919062000911565b6040516020818303038152906040528051906020012060001c9050816001600083815260200190815260200160002060006101000a81548173ffffffffffffffffffffffffffffffffffffffff021916908373ffffffffffffffffffffffffffffffffffffffff1602179055507f1834aaa59a684c87830f389308fdbdfeedd9692177638855c71e46f1a8eda746818333604051620002b893929190620009f2565b60405180910390a18092505050979650505050505050565b60006001600083815260200190815260200160002060009054906101000a900473ffffffffffffffffffffffffffffffffffffffff1690508073ffffffffffffffffffffffffffffffffffffffff1663a6f9dae134336040518363ffffffff1660e01b81526004016200034491906200095e565b6000604051808303818588803b1580156200035e57600080fd5b505af115801562000373573d6000803e3d6000fd5b50505050505050565b600260009054906101000a900473ffffffffffffffffffffffffffffffffffffffff1681565b60006020528060005260406000206000915054906101000a900473ffffffffffffffffffffffffffffffffffffffff1681565b600080898989898989898933604051620003ef9062000546565b620004039998979695949392919062000aba565b604051809103906000f08015801562000420573d6000803e3d6000fd5b50905060036000815480929190620004389062000d01565b919050555060003360035460405160200162000455919062000941565b604051602081830303815290604052805190602001206040516020016200047e92919062000911565b6040516020818303038152906040528051906020012060001c90508160008083815260200190815260200160002060006101000a81548173ffffffffffffffffffffffffffffffffffffffff021916908373ffffffffffffffffffffffffffffffffffffffff1602179055507f32f3d3bca60f559e4db02a6a6df5d79f05b34e56d933ed6fc8ce1f2da6ad4a4e8183336040516200051f93929190620009b5565b60405180910390a1809250505098975050505050505050565b610f5c8062000e5083390190565b61100d8062001dac83390190565b60006200056b620005658462000b90565b62000b67565b9050828152602081018484840111156200058a576200058962000dee565b5b6200059784828562000c86565b509392505050565b600081359050620005b08162000e1b565b92915050565b600082601f830112620005ce57620005cd62000de9565b5b8135620005e084826020860162000554565b91505092915050565b600081359050620005fa8162000e35565b92915050565b60006020828403121562000619576200061862000df8565b5b60006200062984828501620005e9565b91505092915050565b600080600080600080600060e0888a03121562000654576200065362000df8565b5b6000620006648a828b01620005e9565b9750506020620006778a828b01620005e9565b96505060406200068a8a828b01620005e9565b955050606088013567ffffffffffffffff811115620006ae57620006ad62000df3565b5b620006bc8a828b01620005b6565b945050608088013567ffffffffffffffff811115620006e057620006df62000df3565b5b620006ee8a828b01620005b6565b93505060a0620007018a828b016200059f565b92505060c0620007148a828b01620005e9565b91505092959891949750929550565b600080600080600080600080610100898b03121562000747576200074662000df8565b5b6000620007578b828c01620005e9565b98505060206200076a8b828c01620005e9565b97505060406200077d8b828c01620005e9565b9650506060620007908b828c01620005e9565b955050608089013567ffffffffffffffff811115620007b457620007b362000df3565b5b620007c28b828c01620005b6565b94505060a089013567ffffffffffffffff811115620007e657620007e562000df3565b5b620007f48b828c01620005b6565b93505060c0620008078b828c016200059f565b92505060e06200081a8b828c01620005e9565b9150509295985092959890939650565b620008358162000bf6565b82525050565b620008468162000be2565b82525050565b620008616200085b8262000be2565b62000d4f565b82525050565b620008728162000c0a565b82525050565b6200088d620008878262000c16565b62000d63565b82525050565b6200089e8162000c4a565b82525050565b6000620008b18262000bc6565b620008bd818562000bd1565b9350620008cf81856020860162000c95565b620008da8162000dfd565b840191505092915050565b620008f08162000c40565b82525050565b6200090b620009058262000c40565b62000d81565b82525050565b60006200091f82856200084c565b60148201915062000931828462000878565b6020820191508190509392505050565b60006200094f8284620008f6565b60208201915081905092915050565b60006020820190506200097560008301846200083b565b92915050565b60006020820190506200099260008301846200082a565b92915050565b6000602082019050620009af6000830184620008e5565b92915050565b6000606082019050620009cc6000830186620008e5565b620009db60208301856200083b565b620009ea60408301846200083b565b949350505050565b600060608201905062000a096000830186620008e5565b62000a18602083018562000893565b62000a2760408301846200083b565b949350505050565b600060e08201905062000a46600083018a620008e5565b62000a556020830189620008e5565b62000a646040830188620008e5565b818103606083015262000a788187620008a4565b9050818103608083015262000a8e8186620008a4565b905062000a9f60a083018562000867565b62000aae60c0830184620008e5565b98975050505050505050565b60006101208201905062000ad2600083018c620008e5565b62000ae1602083018b620008e5565b62000af0604083018a620008e5565b62000aff6060830189620008e5565b818103608083015262000b138188620008a4565b905081810360a083015262000b298187620008a4565b905062000b3a60c083018662000867565b62000b4960e0830185620008e5565b62000b596101008301846200083b565b9a9950505050505050505050565b600062000b7362000b86565b905062000b81828262000ccb565b919050565b6000604051905090565b600067ffffffffffffffff82111562000bae5762000bad62000dba565b5b62000bb98262000dfd565b9050602081019050919050565b600081519050919050565b600082825260208201905092915050565b600062000bef8262000c20565b9050919050565b600062000c038262000c20565b9050919050565b60008115159050919050565b6000819050919050565b600073ffffffffffffffffffffffffffffffffffffffff82169050919050565b6000819050919050565b600062000c578262000c5e565b9050919050565b600062000c6b8262000c72565b9050919050565b600062000c7f8262000c20565b9050919050565b82818337600083830152505050565b60005b8381101562000cb557808201518184015260208101905062000c98565b8381111562000cc5576000848401525b50505050565b62000cd68262000dfd565b810181811067ffffffffffffffff8211171562000cf85762000cf762000dba565b5b80604052505050565b600062000d0e8262000c40565b91507fffffffffffffffffffffffffffffffffffffffffffffffffffffffffffffffff82141562000d445762000d4362000d8b565b5b600182019050919050565b600062000d5c8262000d6d565b9050919050565b6000819050919050565b600062000d7a8262000e0e565b9050919050565b6000819050919050565b7f4e487b7100000000000000000000000000000000000000000000000000000000600052601160045260246000fd5b7f4e487b7100000000000000000000000000000000000000000000000000000000600052604160045260246000fd5b600080fd5b600080fd5b600080fd5b600080fd5b6000601f19601f8301169050919050565b60008160601b9050919050565b62000e268162000c0a565b811462000e3257600080fd5b50565b62000e408162000c40565b811462000e4c57600080fd5b5056fe60806040523480156200001157600080fd5b5060405162000f5c38038062000f5c833981810160405281019062000037919062000248565b336000806101000a81548173ffffffffffffffffffffffffffffffffffffffff021916908373ffffffffffffffffffffffffffffffffffffffff1602179055508660018190555085600281905550846003819055508360049080519060200190620000a4929190620000ec565b508260059080519060200190620000bd929190620000ec565b5081600660006101000a81548160ff021916908315150217905550806007819055505050505050505062000507565b828054620000fa90620003e4565b90600052602060002090601f0160209004810192826200011e57600085556200016a565b82601f106200013957805160ff19168380011785556200016a565b828001600101855582156200016a579182015b82811115620001695782518255916020019190600101906200014c565b5b5090506200017991906200017d565b5090565b5b80821115620001985760008160009055506001016200017e565b5090565b6000620001b3620001ad8462000362565b62000339565b905082815260208101848484011115620001d257620001d1620004b3565b5b620001df848285620003ae565b509392505050565b600081519050620001f881620004d3565b92915050565b600082601f830112620002165762000215620004ae565b5b8151620002288482602086016200019c565b91505092915050565b6000815190506200024281620004ed565b92915050565b600080600080600080600060e0888a0312156200026a5762000269620004bd565b5b60006200027a8a828b0162000231565b97505060206200028d8a828b0162000231565b9650506040620002a08a828b0162000231565b955050606088015167ffffffffffffffff811115620002c457620002c3620004b8565b5b620002d28a828b01620001fe565b945050608088015167ffffffffffffffff811115620002f657620002f5620004b8565b5b620003048a828b01620001fe565b93505060a0620003178a828b01620001e7565b92505060c06200032a8a828b0162000231565b91505092959891949750929550565b60006200034562000358565b90506200035382826200041a565b919050565b6000604051905090565b600067ffffffffffffffff82111562000380576200037f6200047f565b5b6200038b82620004c2565b9050602081019050919050565b60008115159050919050565b6000819050919050565b60005b83811015620003ce578082015181840152602081019050620003b1565b83811115620003de576000848401525b50505050565b60006002820490506001821680620003fd57607f821691505b6020821081141562000414576200041362000450565b5b50919050565b6200042582620004c2565b810181811067ffffffffffffffff821117156200044757620004466200047f565b5b80604052505050565b7f4e487b7100000000000000000000000000000000000000000000000000000000600052602260045260246000fd5b7f4e487b7100000000000000000000000000000000000000000000000000000000600052604160045260246000fd5b600080fd5b600080fd5b600080fd5b600080fd5b6000601f19601f8301169050919050565b620004de8162000398565b8114620004ea57600080fd5b50565b620004f881620003a4565b81146200050457600080fd5b50565b610a4580620005176000396000f3fe60806040526004361061003f5760003560e01c8063485f4767146100445780635e3754751461006d578063a6f9dae114610096578063fbbf93a0146100b2575b600080fd5b34801561005057600080fd5b5061006b60048036038101906100669190610672565b6100e3565b005b34801561007957600080fd5b50610094600480360381019061008f9190610632565b61017e565b005b6100b060048036038101906100ab9190610605565b61022c565b005b3480156100be57600080fd5b506100c761046c565b6040516100da97969594939291906107c7565b60405180910390f35b8060008054906101000a900473ffffffffffffffffffffffffffffffffffffffff1673ffffffffffffffffffffffffffffffffffffffff168173ffffffffffffffffffffffffffffffffffffffff1614610172576040517f08c379a000000000000000000000000000000000000000000000000000000000815260040161016990610787565b60405180910390fd5b82600781905550505050565b8060008054906101000a900473ffffffffffffffffffffffffffffffffffffffff1673ffffffffffffffffffffffffffffffffffffffff168173ffffffffffffffffffffffffffffffffffffffff161461020d576040517f08c379a000000000000000000000000000000000000000000000000000000000815260040161020490610787565b60405180910390fd5b82600660006101000a81548160ff021916908315150217905550505050565b60011515600660009054906101000a900460ff1615151461024c57600080fd5b6007543410156102d8578073ffffffffffffffffffffffffffffffffffffffff166108fc349081150290604051600060405180830381858888f1935050505015801561029c573d6000803e3d6000fd5b506040517f08c379a00000000000000000000000000000000000000000000000000000000081526004016102cf906107a7565b60405180910390fd5b60008054906101000a900473ffffffffffffffffffffffffffffffffffffffff1673ffffffffffffffffffffffffffffffffffffffff166108fc349081150290604051600060405180830381858888f1935050505015801561033e573d6000803e3d6000fd5b5060008054906101000a900473ffffffffffffffffffffffffffffffffffffffff16600960006101000a81548173ffffffffffffffffffffffffffffffffffffffff021916908373ffffffffffffffffffffffffffffffffffffffff160217905550806000806101000a81548173ffffffffffffffffffffffffffffffffffffffff021916908373ffffffffffffffffffffffffffffffffffffffff1602179055506000600660006101000a81548160ff02191690831515021790555060075460088190555060006007819055507f4dc7e7dcee44619d786319fc36fdafae2d190c6bc41a6110bcb967a6b10ffa52600960009054906101000a900473ffffffffffffffffffffffffffffffffffffffff1660085460405161046192919061075e565b60405180910390a150565b600080600060608060008060015460025460035460046005600660009054906101000a900460ff166007548380546104a3906108db565b80601f01602080910402602001604051908101604052809291908181526020018280546104cf906108db565b801561051c5780601f106104f15761010080835404028352916020019161051c565b820191906000526020600020905b8154815290600101906020018083116104ff57829003601f168201915b5050505050935082805461052f906108db565b80601f016020809104026020016040519081016040528092919081815260200182805461055b906108db565b80156105a85780601f1061057d576101008083540402835291602001916105a8565b820191906000526020600020905b81548152906001019060200180831161058b57829003601f168201915b50505050509250965096509650965096509650965090919293949596565b6000813590506105d5816109ca565b92915050565b6000813590506105ea816109e1565b92915050565b6000813590506105ff816109f8565b92915050565b60006020828403121561061b5761061a61093c565b5b6000610629848285016105c6565b91505092915050565b600080604083850312156106495761064861093c565b5b6000610657858286016105db565b9250506020610668858286016105c6565b9150509250929050565b600080604083850312156106895761068861093c565b5b6000610697858286016105f0565b92505060206106a8858286016105c6565b9150509250929050565b6106bb81610860565b82525050565b6106ca81610872565b82525050565b60006106db82610844565b6106e5818561084f565b93506106f58185602086016108a8565b6106fe81610941565b840191505092915050565b600061071660258361084f565b915061072182610952565b604082019050919050565b600061073960198361084f565b9150610744826109a1565b602082019050919050565b6107588161089e565b82525050565b600060408201905061077360008301856106b2565b610780602083018461074f565b9392505050565b600060208201905081810360008301526107a081610709565b9050919050565b600060208201905081810360008301526107c08161072c565b9050919050565b600060e0820190506107dc600083018a61074f565b6107e9602083018961074f565b6107f6604083018861074f565b818103606083015261080881876106d0565b9050818103608083015261081c81866106d0565b905061082b60a08301856106c1565b61083860c083018461074f565b98975050505050505050565b600081519050919050565b600082825260208201905092915050565b600061086b8261087e565b9050919050565b60008115159050919050565b600073ffffffffffffffffffffffffffffffffffffffff82169050919050565b6000819050919050565b60005b838110156108c65780820151818401526020810190506108ab565b838111156108d5576000848401525b50505050565b600060028204905060018216806108f357607f821691505b602082108114156109075761090661090d565b5b50919050565b7f4e487b7100000000000000000000000000000000000000000000000000000000600052602260045260246000fd5b600080fd5b6000601f19601f8301169050919050565b7f4f6e6c7920746865206f776e65722063616e2063616c6c20746869732066756e60008201527f6374696f6e000000000000000000000000000000000000000000000000000000602082015250565b7f4e6f7420656e6f756768206574686572207761732073656e7400000000000000600082015250565b6109d381610860565b81146109de57600080fd5b50565b6109ea81610872565b81146109f557600080fd5b50565b610a018161089e565b8114610a0c57600080fd5b5056fea2646970667358221220b4faa5c7ac6bb3b6a807a45ab8adfa58c5fcbd8f3a206c39d86502e85eb7078764736f6c6343000807003360806040523480156200001157600080fd5b506040516200100d3803806200100d833981810160405281019062000037919062000268565b806000806101000a81548173ffffffffffffffffffffffffffffffffffffffff021916908373ffffffffffffffffffffffffffffffffffffffff160217905550886001819055508760028190555086600381905550856004819055508460059080519060200190620000ab929190620000f5565b508360069080519060200190620000c4929190620000f5565b5082600760006101000a81548160ff02191690831515021790555081600881905550505050505050505050620005a1565b828054620001039062000464565b90600052602060002090601f01602090048101928262000127576000855562000173565b82601f106200014257805160ff191683800117855562000173565b8280016001018555821562000173579182015b828111156200017257825182559160200191906001019062000155565b5b50905062000182919062000186565b5090565b5b80821115620001a157600081600090555060010162000187565b5090565b6000620001bc620001b684620003ae565b62000385565b905082815260208101848484011115620001db57620001da62000533565b5b620001e88482856200042e565b509392505050565b600081519050620002018162000553565b92915050565b60008151905062000218816200056d565b92915050565b600082601f8301126200023657620002356200052e565b5b815162000248848260208601620001a5565b91505092915050565b600081519050620002628162000587565b92915050565b60008060008060008060008060006101208a8c0312156200028e576200028d6200053d565b5b60006200029e8c828d0162000251565b9950506020620002b18c828d0162000251565b9850506040620002c48c828d0162000251565b9750506060620002d78c828d0162000251565b96505060808a015167ffffffffffffffff811115620002fb57620002fa62000538565b5b620003098c828d016200021e565b95505060a08a015167ffffffffffffffff8111156200032d576200032c62000538565b5b6200033b8c828d016200021e565b94505060c06200034e8c828d0162000207565b93505060e0620003618c828d0162000251565b925050610100620003758c828d01620001f0565b9150509295985092959850929598565b600062000391620003a4565b90506200039f82826200049a565b919050565b6000604051905090565b600067ffffffffffffffff821115620003cc57620003cb620004ff565b5b620003d78262000542565b9050602081019050919050565b6000620003f18262000404565b9050919050565b60008115159050919050565b600073ffffffffffffffffffffffffffffffffffffffff82169050919050565b6000819050919050565b60005b838110156200044e57808201518184015260208101905062000431565b838111156200045e576000848401525b50505050565b600060028204905060018216806200047d57607f821691505b60208210811415620004945762000493620004d0565b5b50919050565b620004a58262000542565b810181811067ffffffffffffffff82111715620004c757620004c6620004ff565b5b80604052505050565b7f4e487b7100000000000000000000000000000000000000000000000000000000600052602260045260246000fd5b7f4e487b7100000000000000000000000000000000000000000000000000000000600052604160045260246000fd5b600080fd5b600080fd5b600080fd5b600080fd5b6000601f19601f8301169050919050565b6200055e81620003e4565b81146200056a57600080fd5b50565b6200057881620003f8565b81146200058457600080fd5b50565b620005928162000424565b81146200059e57600080fd5b50565b610a5c80620005b16000396000f3fe60806040526004361061003f5760003560e01c8063485f4767146100445780635e3754751461006d578063a6f9dae114610096578063fbbf93a0146100b2575b600080fd5b34801561005057600080fd5b5061006b6004803603810190610066919061067a565b6100e4565b005b34801561007957600080fd5b50610094600480360381019061008f919061063a565b61017f565b005b6100b060048036038101906100ab919061060d565b61022d565b005b3480156100be57600080fd5b506100c761046d565b6040516100db9897969594939291906107cf565b60405180910390f35b8060008054906101000a900473ffffffffffffffffffffffffffffffffffffffff1673ffffffffffffffffffffffffffffffffffffffff168173ffffffffffffffffffffffffffffffffffffffff1614610173576040517f08c379a000000000000000000000000000000000000000000000000000000000815260040161016a9061078f565b60405180910390fd5b82600881905550505050565b8060008054906101000a900473ffffffffffffffffffffffffffffffffffffffff1673ffffffffffffffffffffffffffffffffffffffff168173ffffffffffffffffffffffffffffffffffffffff161461020e576040517f08c379a00000000000000000000000000000000000000000000000000000000081526004016102059061078f565b60405180910390fd5b82600760006101000a81548160ff021916908315150217905550505050565b60011515600760009054906101000a900460ff1615151461024d57600080fd5b6008543410156102d9578073ffffffffffffffffffffffffffffffffffffffff166108fc349081150290604051600060405180830381858888f1935050505015801561029d573d6000803e3d6000fd5b506040517f08c379a00000000000000000000000000000000000000000000000000000000081526004016102d0906107af565b60405180910390fd5b60008054906101000a900473ffffffffffffffffffffffffffffffffffffffff1673ffffffffffffffffffffffffffffffffffffffff166108fc349081150290604051600060405180830381858888f1935050505015801561033f573d6000803e3d6000fd5b5060008054906101000a900473ffffffffffffffffffffffffffffffffffffffff16600a60006101000a81548173ffffffffffffffffffffffffffffffffffffffff021916908373ffffffffffffffffffffffffffffffffffffffff160217905550806000806101000a81548173ffffffffffffffffffffffffffffffffffffffff021916908373ffffffffffffffffffffffffffffffffffffffff1602179055506000600760006101000a81548160ff02191690831515021790555060085460098190555060006008819055507f4dc7e7dcee44619d786319fc36fdafae2d190c6bc41a6110bcb967a6b10ffa52600a60009054906101000a900473ffffffffffffffffffffffffffffffffffffffff16600954604051610462929190610766565b60405180910390a150565b60008060008060608060008060015460025460045460035460056006600760009054906101000a900460ff166008548380546104a8906108f2565b80601f01602080910402602001604051908101604052809291908181526020018280546104d4906108f2565b80156105215780601f106104f657610100808354040283529160200191610521565b820191906000526020600020905b81548152906001019060200180831161050457829003601f168201915b50505050509350828054610534906108f2565b80601f0160208091040260200160405190810160405280929190818152602001828054610560906108f2565b80156105ad5780601f10610582576101008083540402835291602001916105ad565b820191906000526020600020905b81548152906001019060200180831161059057829003601f168201915b50505050509250975097509750975097509750975097509091929394959697565b6000813590506105dd816109e1565b92915050565b6000813590506105f2816109f8565b92915050565b60008135905061060781610a0f565b92915050565b60006020828403121561062357610622610953565b5b6000610631848285016105ce565b91505092915050565b6000806040838503121561065157610650610953565b5b600061065f858286016105e3565b9250506020610670858286016105ce565b9150509250929050565b6000806040838503121561069157610690610953565b5b600061069f858286016105f8565b92505060206106b0858286016105ce565b9150509250929050565b6106c381610877565b82525050565b6106d281610889565b82525050565b60006106e38261085b565b6106ed8185610866565b93506106fd8185602086016108bf565b61070681610958565b840191505092915050565b600061071e602583610866565b915061072982610969565b604082019050919050565b6000610741601983610866565b915061074c826109b8565b602082019050919050565b610760816108b5565b82525050565b600060408201905061077b60008301856106ba565b6107886020830184610757565b9392505050565b600060208201905081810360008301526107a881610711565b9050919050565b600060208201905081810360008301526107c881610734565b9050919050565b6000610100820190506107e5600083018b610757565b6107f2602083018a610757565b6107ff6040830189610757565b61080c6060830188610757565b818103608083015261081e81876106d8565b905081810360a083015261083281866106d8565b905061084160c08301856106c9565b61084e60e0830184610757565b9998505050505050505050565b600081519050919050565b600082825260208201905092915050565b600061088282610895565b9050919050565b60008115159050919050565b600073ffffffffffffffffffffffffffffffffffffffff82169050919050565b6000819050919050565b60005b838110156108dd5780820151818401526020810190506108c2565b838111156108ec576000848401525b50505050565b6000600282049050600182168061090a57607f821691505b6020821081141561091e5761091d610924565b5b50919050565b7f4e487b7100000000000000000000000000000000000000000000000000000000600052602260045260246000fd5b600080fd5b6000601f19601f8301169050919050565b7f4f6e6c7920746865206f776e65722063616e2063616c6c20746869732066756e60008201527f6374696f6e000000000000000000000000000000000000000000000000000000602082015250565b7f4e6f7420656e6f756768206574686572207761732073656e7400000000000000600082015250565b6109ea81610877565b81146109f557600080fd5b50565b610a0181610889565b8114610a0c57600080fd5b50565b610a18816108b5565b8114610a2357600080fd5b5056fea26469706673582212202f65e0d6960889255b6976864afba984d7ba89d102f2d7a1276c69b9a7d7eb6f64736f6c63430008070033a26469706673582212202495fbc813c8533020ea90b73471169a01f5b62111762d926eecef3a7087685964736f6c63430008070033",
          "opcodes": "PUSH1 0x80 PUSH1 0x40 MSTORE CALLVALUE DUP1 ISZERO PUSH2 0x10 JUMPI PUSH1 0x0 DUP1 REVERT JUMPDEST POP CALLER PUSH1 0x2 PUSH1 0x0 PUSH2 0x100 EXP DUP2 SLOAD DUP2 PUSH20 0xFFFFFFFFFFFFFFFFFFFFFFFFFFFFFFFFFFFFFFFF MUL NOT AND SWAP1 DUP4 PUSH20 0xFFFFFFFFFFFFFFFFFFFFFFFFFFFFFFFFFFFFFFFF AND MUL OR SWAP1 SSTORE POP PUSH1 0x0 PUSH1 0x3 DUP2 SWAP1 SSTORE POP PUSH2 0x2DEE DUP1 PUSH2 0x69 PUSH1 0x0 CODECOPY PUSH1 0x0 RETURN INVALID PUSH1 0x80 PUSH1 0x40 MSTORE PUSH1 0x4 CALLDATASIZE LT PUSH3 0x50 JUMPI PUSH1 0x0 CALLDATALOAD PUSH1 0xE0 SHR DUP1 PUSH4 0x234333E EQ PUSH3 0x55 JUMPI DUP1 PUSH4 0x1F34486F EQ PUSH3 0x99 JUMPI DUP1 PUSH4 0x8DA5CB5B EQ PUSH3 0xB9 JUMPI DUP1 PUSH4 0xAEDA852F EQ PUSH3 0xE9 JUMPI DUP1 PUSH4 0xC2937025 EQ PUSH3 0x12D JUMPI JUMPDEST PUSH1 0x0 DUP1 REVERT JUMPDEST CALLVALUE DUP1 ISZERO PUSH3 0x62 JUMPI PUSH1 0x0 DUP1 REVERT JUMPDEST POP PUSH3 0x81 PUSH1 0x4 DUP1 CALLDATASIZE SUB DUP2 ADD SWAP1 PUSH3 0x7B SWAP2 SWAP1 PUSH3 0x632 JUMP JUMPDEST PUSH3 0x171 JUMP JUMPDEST PUSH1 0x40 MLOAD PUSH3 0x90 SWAP2 SWAP1 PUSH3 0x998 JUMP JUMPDEST PUSH1 0x40 MLOAD DUP1 SWAP2 SUB SWAP1 RETURN JUMPDEST PUSH3 0xB7 PUSH1 0x4 DUP1 CALLDATASIZE SUB DUP2 ADD SWAP1 PUSH3 0xB1 SWAP2 SWAP1 PUSH3 0x600 JUMP JUMPDEST PUSH3 0x2D0 JUMP JUMPDEST STOP JUMPDEST CALLVALUE DUP1 ISZERO PUSH3 0xC6 JUMPI PUSH1 0x0 DUP1 REVERT JUMPDEST POP PUSH3 0xD1 PUSH3 0x37C JUMP JUMPDEST PUSH1 0x40 MLOAD PUSH3 0xE0 SWAP2 SWAP1 PUSH3 0x97B JUMP JUMPDEST PUSH1 0x40 MLOAD DUP1 SWAP2 SUB SWAP1 RETURN JUMPDEST CALLVALUE DUP1 ISZERO PUSH3 0xF6 JUMPI PUSH1 0x0 DUP1 REVERT JUMPDEST POP PUSH3 0x115 PUSH1 0x4 DUP1 CALLDATASIZE SUB DUP2 ADD SWAP1 PUSH3 0x10F SWAP2 SWAP1 PUSH3 0x600 JUMP JUMPDEST PUSH3 0x3A2 JUMP JUMPDEST PUSH1 0x40 MLOAD PUSH3 0x124 SWAP2 SWAP1 PUSH3 0x95E JUMP JUMPDEST PUSH1 0x40 MLOAD DUP1 SWAP2 SUB SWAP1 RETURN JUMPDEST CALLVALUE DUP1 ISZERO PUSH3 0x13A JUMPI PUSH1 0x0 DUP1 REVERT JUMPDEST POP PUSH3 0x159 PUSH1 0x4 DUP1 CALLDATASIZE SUB DUP2 ADD SWAP1 PUSH3 0x153 SWAP2 SWAP1 PUSH3 0x723 JUMP JUMPDEST PUSH3 0x3D5 JUMP JUMPDEST PUSH1 0x40 MLOAD PUSH3 0x168 SWAP2 SWAP1 PUSH3 0x998 JUMP JUMPDEST PUSH1 0x40 MLOAD DUP1 SWAP2 SUB SWAP1 RETURN JUMPDEST PUSH1 0x0 DUP1 DUP9 DUP9 DUP9 DUP9 DUP9 DUP9 DUP9 PUSH1 0x40 MLOAD PUSH3 0x189 SWAP1 PUSH3 0x538 JUMP JUMPDEST PUSH3 0x19B SWAP8 SWAP7 SWAP6 SWAP5 SWAP4 SWAP3 SWAP2 SWAP1 PUSH3 0xA2F JUMP JUMPDEST PUSH1 0x40 MLOAD DUP1 SWAP2 SUB SWAP1 PUSH1 0x0 CREATE DUP1 ISZERO DUP1 ISZERO PUSH3 0x1B8 JUMPI RETURNDATASIZE PUSH1 0x0 DUP1 RETURNDATACOPY RETURNDATASIZE PUSH1 0x0 REVERT JUMPDEST POP SWAP1 POP PUSH1 0x3 PUSH1 0x0 DUP2 SLOAD DUP1 SWAP3 SWAP2 SWAP1 PUSH3 0x1D0 SWAP1 PUSH3 0xD01 JUMP JUMPDEST SWAP2 SWAP1 POP SSTORE POP PUSH1 0x0 CALLER PUSH1 0x3 SLOAD PUSH1 0x40 MLOAD PUSH1 0x20 ADD PUSH3 0x1ED SWAP2 SWAP1 PUSH3 0x941 JUMP JUMPDEST PUSH1 0x40 MLOAD PUSH1 0x20 DUP2 DUP4 SUB SUB DUP2 MSTORE SWAP1 PUSH1 0x40 MSTORE DUP1 MLOAD SWAP1 PUSH1 0x20 ADD KECCAK256 PUSH1 0x40 MLOAD PUSH1 0x20 ADD PUSH3 0x216 SWAP3 SWAP2 SWAP1 PUSH3 0x911 JUMP JUMPDEST PUSH1 0x40 MLOAD PUSH1 0x20 DUP2 DUP4 SUB SUB DUP2 MSTORE SWAP1 PUSH1 0x40 MSTORE DUP1 MLOAD SWAP1 PUSH1 0x20 ADD KECCAK256 PUSH1 0x0 SHR SWAP1 POP DUP2 PUSH1 0x1 PUSH1 0x0 DUP4 DUP2 MSTORE PUSH1 0x20 ADD SWAP1 DUP2 MSTORE PUSH1 0x20 ADD PUSH1 0x0 KECCAK256 PUSH1 0x0 PUSH2 0x100 EXP DUP2 SLOAD DUP2 PUSH20 0xFFFFFFFFFFFFFFFFFFFFFFFFFFFFFFFFFFFFFFFF MUL NOT AND SWAP1 DUP4 PUSH20 0xFFFFFFFFFFFFFFFFFFFFFFFFFFFFFFFFFFFFFFFF AND MUL OR SWAP1 SSTORE POP PUSH32 0x1834AAA59A684C87830F389308FDBDFEEDD9692177638855C71E46F1A8EDA746 DUP2 DUP4 CALLER PUSH1 0x40 MLOAD PUSH3 0x2B8 SWAP4 SWAP3 SWAP2 SWAP1 PUSH3 0x9F2 JUMP JUMPDEST PUSH1 0x40 MLOAD DUP1 SWAP2 SUB SWAP1 LOG1 DUP1 SWAP3 POP POP POP SWAP8 SWAP7 POP POP POP POP POP POP POP JUMP JUMPDEST PUSH1 0x0 PUSH1 0x1 PUSH1 0x0 DUP4 DUP2 MSTORE PUSH1 0x20 ADD SWAP1 DUP2 MSTORE PUSH1 0x20 ADD PUSH1 0x0 KECCAK256 PUSH1 0x0 SWAP1 SLOAD SWAP1 PUSH2 0x100 EXP SWAP1 DIV PUSH20 0xFFFFFFFFFFFFFFFFFFFFFFFFFFFFFFFFFFFFFFFF AND SWAP1 POP DUP1 PUSH20 0xFFFFFFFFFFFFFFFFFFFFFFFFFFFFFFFFFFFFFFFF AND PUSH4 0xA6F9DAE1 CALLVALUE CALLER PUSH1 0x40 MLOAD DUP4 PUSH4 0xFFFFFFFF AND PUSH1 0xE0 SHL DUP2 MSTORE PUSH1 0x4 ADD PUSH3 0x344 SWAP2 SWAP1 PUSH3 0x95E JUMP JUMPDEST PUSH1 0x0 PUSH1 0x40 MLOAD DUP1 DUP4 SUB DUP2 DUP6 DUP9 DUP1 EXTCODESIZE ISZERO DUP1 ISZERO PUSH3 0x35E JUMPI PUSH1 0x0 DUP1 REVERT JUMPDEST POP GAS CALL ISZERO DUP1 ISZERO PUSH3 0x373 JUMPI RETURNDATASIZE PUSH1 0x0 DUP1 RETURNDATACOPY RETURNDATASIZE PUSH1 0x0 REVERT JUMPDEST POP POP POP POP POP POP POP JUMP JUMPDEST PUSH1 0x2 PUSH1 0x0 SWAP1 SLOAD SWAP1 PUSH2 0x100 EXP SWAP1 DIV PUSH20 0xFFFFFFFFFFFFFFFFFFFFFFFFFFFFFFFFFFFFFFFF AND DUP2 JUMP JUMPDEST PUSH1 0x0 PUSH1 0x20 MSTORE DUP1 PUSH1 0x0 MSTORE PUSH1 0x40 PUSH1 0x0 KECCAK256 PUSH1 0x0 SWAP2 POP SLOAD SWAP1 PUSH2 0x100 EXP SWAP1 DIV PUSH20 0xFFFFFFFFFFFFFFFFFFFFFFFFFFFFFFFFFFFFFFFF AND DUP2 JUMP JUMPDEST PUSH1 0x0 DUP1 DUP10 DUP10 DUP10 DUP10 DUP10 DUP10 DUP10 DUP10 CALLER PUSH1 0x40 MLOAD PUSH3 0x3EF SWAP1 PUSH3 0x546 JUMP JUMPDEST PUSH3 0x403 SWAP10 SWAP9 SWAP8 SWAP7 SWAP6 SWAP5 SWAP4 SWAP3 SWAP2 SWAP1 PUSH3 0xABA JUMP JUMPDEST PUSH1 0x40 MLOAD DUP1 SWAP2 SUB SWAP1 PUSH1 0x0 CREATE DUP1 ISZERO DUP1 ISZERO PUSH3 0x420 JUMPI RETURNDATASIZE PUSH1 0x0 DUP1 RETURNDATACOPY RETURNDATASIZE PUSH1 0x0 REVERT JUMPDEST POP SWAP1 POP PUSH1 0x3 PUSH1 0x0 DUP2 SLOAD DUP1 SWAP3 SWAP2 SWAP1 PUSH3 0x438 SWAP1 PUSH3 0xD01 JUMP JUMPDEST SWAP2 SWAP1 POP SSTORE POP PUSH1 0x0 CALLER PUSH1 0x3 SLOAD PUSH1 0x40 MLOAD PUSH1 0x20 ADD PUSH3 0x455 SWAP2 SWAP1 PUSH3 0x941 JUMP JUMPDEST PUSH1 0x40 MLOAD PUSH1 0x20 DUP2 DUP4 SUB SUB DUP2 MSTORE SWAP1 PUSH1 0x40 MSTORE DUP1 MLOAD SWAP1 PUSH1 0x20 ADD KECCAK256 PUSH1 0x40 MLOAD PUSH1 0x20 ADD PUSH3 0x47E SWAP3 SWAP2 SWAP1 PUSH3 0x911 JUMP JUMPDEST PUSH1 0x40 MLOAD PUSH1 0x20 DUP2 DUP4 SUB SUB DUP2 MSTORE SWAP1 PUSH1 0x40 MSTORE DUP1 MLOAD SWAP1 PUSH1 0x20 ADD KECCAK256 PUSH1 0x0 SHR SWAP1 POP DUP2 PUSH1 0x0 DUP1 DUP4 DUP2 MSTORE PUSH1 0x20 ADD SWAP1 DUP2 MSTORE PUSH1 0x20 ADD PUSH1 0x0 KECCAK256 PUSH1 0x0 PUSH2 0x100 EXP DUP2 SLOAD DUP2 PUSH20 0xFFFFFFFFFFFFFFFFFFFFFFFFFFFFFFFFFFFFFFFF MUL NOT AND SWAP1 DUP4 PUSH20 0xFFFFFFFFFFFFFFFFFFFFFFFFFFFFFFFFFFFFFFFF AND MUL OR SWAP1 SSTORE POP PUSH32 0x32F3D3BCA60F559E4DB02A6A6DF5D79F05B34E56D933ED6FC8CE1F2DA6AD4A4E DUP2 DUP4 CALLER PUSH1 0x40 MLOAD PUSH3 0x51F SWAP4 SWAP3 SWAP2 SWAP1 PUSH3 0x9B5 JUMP JUMPDEST PUSH1 0x40 MLOAD DUP1 SWAP2 SUB SWAP1 LOG1 DUP1 SWAP3 POP POP POP SWAP9 SWAP8 POP POP POP POP POP POP POP POP JUMP JUMPDEST PUSH2 0xF5C DUP1 PUSH3 0xE50 DUP4 CODECOPY ADD SWAP1 JUMP JUMPDEST PUSH2 0x100D DUP1 PUSH3 0x1DAC DUP4 CODECOPY ADD SWAP1 JUMP JUMPDEST PUSH1 0x0 PUSH3 0x56B PUSH3 0x565 DUP5 PUSH3 0xB90 JUMP JUMPDEST PUSH3 0xB67 JUMP JUMPDEST SWAP1 POP DUP3 DUP2 MSTORE PUSH1 0x20 DUP2 ADD DUP5 DUP5 DUP5 ADD GT ISZERO PUSH3 0x58A JUMPI PUSH3 0x589 PUSH3 0xDEE JUMP JUMPDEST JUMPDEST PUSH3 0x597 DUP5 DUP3 DUP6 PUSH3 0xC86 JUMP JUMPDEST POP SWAP4 SWAP3 POP POP POP JUMP JUMPDEST PUSH1 0x0 DUP2 CALLDATALOAD SWAP1 POP PUSH3 0x5B0 DUP2 PUSH3 0xE1B JUMP JUMPDEST SWAP3 SWAP2 POP POP JUMP JUMPDEST PUSH1 0x0 DUP3 PUSH1 0x1F DUP4 ADD SLT PUSH3 0x5CE JUMPI PUSH3 0x5CD PUSH3 0xDE9 JUMP JUMPDEST JUMPDEST DUP2 CALLDATALOAD PUSH3 0x5E0 DUP5 DUP3 PUSH1 0x20 DUP7 ADD PUSH3 0x554 JUMP JUMPDEST SWAP2 POP POP SWAP3 SWAP2 POP POP JUMP JUMPDEST PUSH1 0x0 DUP2 CALLDATALOAD SWAP1 POP PUSH3 0x5FA DUP2 PUSH3 0xE35 JUMP JUMPDEST SWAP3 SWAP2 POP POP JUMP JUMPDEST PUSH1 0x0 PUSH1 0x20 DUP3 DUP5 SUB SLT ISZERO PUSH3 0x619 JUMPI PUSH3 0x618 PUSH3 0xDF8 JUMP JUMPDEST JUMPDEST PUSH1 0x0 PUSH3 0x629 DUP5 DUP3 DUP6 ADD PUSH3 0x5E9 JUMP JUMPDEST SWAP2 POP POP SWAP3 SWAP2 POP POP JUMP JUMPDEST PUSH1 0x0 DUP1 PUSH1 0x0 DUP1 PUSH1 0x0 DUP1 PUSH1 0x0 PUSH1 0xE0 DUP9 DUP11 SUB SLT ISZERO PUSH3 0x654 JUMPI PUSH3 0x653 PUSH3 0xDF8 JUMP JUMPDEST JUMPDEST PUSH1 0x0 PUSH3 0x664 DUP11 DUP3 DUP12 ADD PUSH3 0x5E9 JUMP JUMPDEST SWAP8 POP POP PUSH1 0x20 PUSH3 0x677 DUP11 DUP3 DUP12 ADD PUSH3 0x5E9 JUMP JUMPDEST SWAP7 POP POP PUSH1 0x40 PUSH3 0x68A DUP11 DUP3 DUP12 ADD PUSH3 0x5E9 JUMP JUMPDEST SWAP6 POP POP PUSH1 0x60 DUP9 ADD CALLDATALOAD PUSH8 0xFFFFFFFFFFFFFFFF DUP2 GT ISZERO PUSH3 0x6AE JUMPI PUSH3 0x6AD PUSH3 0xDF3 JUMP JUMPDEST JUMPDEST PUSH3 0x6BC DUP11 DUP3 DUP12 ADD PUSH3 0x5B6 JUMP JUMPDEST SWAP5 POP POP PUSH1 0x80 DUP9 ADD CALLDATALOAD PUSH8 0xFFFFFFFFFFFFFFFF DUP2 GT ISZERO PUSH3 0x6E0 JUMPI PUSH3 0x6DF PUSH3 0xDF3 JUMP JUMPDEST JUMPDEST PUSH3 0x6EE DUP11 DUP3 DUP12 ADD PUSH3 0x5B6 JUMP JUMPDEST SWAP4 POP POP PUSH1 0xA0 PUSH3 0x701 DUP11 DUP3 DUP12 ADD PUSH3 0x59F JUMP JUMPDEST SWAP3 POP POP PUSH1 0xC0 PUSH3 0x714 DUP11 DUP3 DUP12 ADD PUSH3 0x5E9 JUMP JUMPDEST SWAP2 POP POP SWAP3 SWAP6 SWAP9 SWAP2 SWAP5 SWAP8 POP SWAP3 SWAP6 POP JUMP JUMPDEST PUSH1 0x0 DUP1 PUSH1 0x0 DUP1 PUSH1 0x0 DUP1 PUSH1 0x0 DUP1 PUSH2 0x100 DUP10 DUP12 SUB SLT ISZERO PUSH3 0x747 JUMPI PUSH3 0x746 PUSH3 0xDF8 JUMP JUMPDEST JUMPDEST PUSH1 0x0 PUSH3 0x757 DUP12 DUP3 DUP13 ADD PUSH3 0x5E9 JUMP JUMPDEST SWAP9 POP POP PUSH1 0x20 PUSH3 0x76A DUP12 DUP3 DUP13 ADD PUSH3 0x5E9 JUMP JUMPDEST SWAP8 POP POP PUSH1 0x40 PUSH3 0x77D DUP12 DUP3 DUP13 ADD PUSH3 0x5E9 JUMP JUMPDEST SWAP7 POP POP PUSH1 0x60 PUSH3 0x790 DUP12 DUP3 DUP13 ADD PUSH3 0x5E9 JUMP JUMPDEST SWAP6 POP POP PUSH1 0x80 DUP10 ADD CALLDATALOAD PUSH8 0xFFFFFFFFFFFFFFFF DUP2 GT ISZERO PUSH3 0x7B4 JUMPI PUSH3 0x7B3 PUSH3 0xDF3 JUMP JUMPDEST JUMPDEST PUSH3 0x7C2 DUP12 DUP3 DUP13 ADD PUSH3 0x5B6 JUMP JUMPDEST SWAP5 POP POP PUSH1 0xA0 DUP10 ADD CALLDATALOAD PUSH8 0xFFFFFFFFFFFFFFFF DUP2 GT ISZERO PUSH3 0x7E6 JUMPI PUSH3 0x7E5 PUSH3 0xDF3 JUMP JUMPDEST JUMPDEST PUSH3 0x7F4 DUP12 DUP3 DUP13 ADD PUSH3 0x5B6 JUMP JUMPDEST SWAP4 POP POP PUSH1 0xC0 PUSH3 0x807 DUP12 DUP3 DUP13 ADD PUSH3 0x59F JUMP JUMPDEST SWAP3 POP POP PUSH1 0xE0 PUSH3 0x81A DUP12 DUP3 DUP13 ADD PUSH3 0x5E9 JUMP JUMPDEST SWAP2 POP POP SWAP3 SWAP6 SWAP9 POP SWAP3 SWAP6 SWAP9 SWAP1 SWAP4 SWAP7 POP JUMP JUMPDEST PUSH3 0x835 DUP2 PUSH3 0xBF6 JUMP JUMPDEST DUP3 MSTORE POP POP JUMP JUMPDEST PUSH3 0x846 DUP2 PUSH3 0xBE2 JUMP JUMPDEST DUP3 MSTORE POP POP JUMP JUMPDEST PUSH3 0x861 PUSH3 0x85B DUP3 PUSH3 0xBE2 JUMP JUMPDEST PUSH3 0xD4F JUMP JUMPDEST DUP3 MSTORE POP POP JUMP JUMPDEST PUSH3 0x872 DUP2 PUSH3 0xC0A JUMP JUMPDEST DUP3 MSTORE POP POP JUMP JUMPDEST PUSH3 0x88D PUSH3 0x887 DUP3 PUSH3 0xC16 JUMP JUMPDEST PUSH3 0xD63 JUMP JUMPDEST DUP3 MSTORE POP POP JUMP JUMPDEST PUSH3 0x89E DUP2 PUSH3 0xC4A JUMP JUMPDEST DUP3 MSTORE POP POP JUMP JUMPDEST PUSH1 0x0 PUSH3 0x8B1 DUP3 PUSH3 0xBC6 JUMP JUMPDEST PUSH3 0x8BD DUP2 DUP6 PUSH3 0xBD1 JUMP JUMPDEST SWAP4 POP PUSH3 0x8CF DUP2 DUP6 PUSH1 0x20 DUP7 ADD PUSH3 0xC95 JUMP JUMPDEST PUSH3 0x8DA DUP2 PUSH3 0xDFD JUMP JUMPDEST DUP5 ADD SWAP2 POP POP SWAP3 SWAP2 POP POP JUMP JUMPDEST PUSH3 0x8F0 DUP2 PUSH3 0xC40 JUMP JUMPDEST DUP3 MSTORE POP POP JUMP JUMPDEST PUSH3 0x90B PUSH3 0x905 DUP3 PUSH3 0xC40 JUMP JUMPDEST PUSH3 0xD81 JUMP JUMPDEST DUP3 MSTORE POP POP JUMP JUMPDEST PUSH1 0x0 PUSH3 0x91F DUP3 DUP6 PUSH3 0x84C JUMP JUMPDEST PUSH1 0x14 DUP3 ADD SWAP2 POP PUSH3 0x931 DUP3 DUP5 PUSH3 0x878 JUMP JUMPDEST PUSH1 0x20 DUP3 ADD SWAP2 POP DUP2 SWAP1 POP SWAP4 SWAP3 POP POP POP JUMP JUMPDEST PUSH1 0x0 PUSH3 0x94F DUP3 DUP5 PUSH3 0x8F6 JUMP JUMPDEST PUSH1 0x20 DUP3 ADD SWAP2 POP DUP2 SWAP1 POP SWAP3 SWAP2 POP POP JUMP JUMPDEST PUSH1 0x0 PUSH1 0x20 DUP3 ADD SWAP1 POP PUSH3 0x975 PUSH1 0x0 DUP4 ADD DUP5 PUSH3 0x83B JUMP JUMPDEST SWAP3 SWAP2 POP POP JUMP JUMPDEST PUSH1 0x0 PUSH1 0x20 DUP3 ADD SWAP1 POP PUSH3 0x992 PUSH1 0x0 DUP4 ADD DUP5 PUSH3 0x82A JUMP JUMPDEST SWAP3 SWAP2 POP POP JUMP JUMPDEST PUSH1 0x0 PUSH1 0x20 DUP3 ADD SWAP1 POP PUSH3 0x9AF PUSH1 0x0 DUP4 ADD DUP5 PUSH3 0x8E5 JUMP JUMPDEST SWAP3 SWAP2 POP POP JUMP JUMPDEST PUSH1 0x0 PUSH1 0x60 DUP3 ADD SWAP1 POP PUSH3 0x9CC PUSH1 0x0 DUP4 ADD DUP7 PUSH3 0x8E5 JUMP JUMPDEST PUSH3 0x9DB PUSH1 0x20 DUP4 ADD DUP6 PUSH3 0x83B JUMP JUMPDEST PUSH3 0x9EA PUSH1 0x40 DUP4 ADD DUP5 PUSH3 0x83B JUMP JUMPDEST SWAP5 SWAP4 POP POP POP POP JUMP JUMPDEST PUSH1 0x0 PUSH1 0x60 DUP3 ADD SWAP1 POP PUSH3 0xA09 PUSH1 0x0 DUP4 ADD DUP7 PUSH3 0x8E5 JUMP JUMPDEST PUSH3 0xA18 PUSH1 0x20 DUP4 ADD DUP6 PUSH3 0x893 JUMP JUMPDEST PUSH3 0xA27 PUSH1 0x40 DUP4 ADD DUP5 PUSH3 0x83B JUMP JUMPDEST SWAP5 SWAP4 POP POP POP POP JUMP JUMPDEST PUSH1 0x0 PUSH1 0xE0 DUP3 ADD SWAP1 POP PUSH3 0xA46 PUSH1 0x0 DUP4 ADD DUP11 PUSH3 0x8E5 JUMP JUMPDEST PUSH3 0xA55 PUSH1 0x20 DUP4 ADD DUP10 PUSH3 0x8E5 JUMP JUMPDEST PUSH3 0xA64 PUSH1 0x40 DUP4 ADD DUP9 PUSH3 0x8E5 JUMP JUMPDEST DUP2 DUP2 SUB PUSH1 0x60 DUP4 ADD MSTORE PUSH3 0xA78 DUP2 DUP8 PUSH3 0x8A4 JUMP JUMPDEST SWAP1 POP DUP2 DUP2 SUB PUSH1 0x80 DUP4 ADD MSTORE PUSH3 0xA8E DUP2 DUP7 PUSH3 0x8A4 JUMP JUMPDEST SWAP1 POP PUSH3 0xA9F PUSH1 0xA0 DUP4 ADD DUP6 PUSH3 0x867 JUMP JUMPDEST PUSH3 0xAAE PUSH1 0xC0 DUP4 ADD DUP5 PUSH3 0x8E5 JUMP JUMPDEST SWAP9 SWAP8 POP POP POP POP POP POP POP POP JUMP JUMPDEST PUSH1 0x0 PUSH2 0x120 DUP3 ADD SWAP1 POP PUSH3 0xAD2 PUSH1 0x0 DUP4 ADD DUP13 PUSH3 0x8E5 JUMP JUMPDEST PUSH3 0xAE1 PUSH1 0x20 DUP4 ADD DUP12 PUSH3 0x8E5 JUMP JUMPDEST PUSH3 0xAF0 PUSH1 0x40 DUP4 ADD DUP11 PUSH3 0x8E5 JUMP JUMPDEST PUSH3 0xAFF PUSH1 0x60 DUP4 ADD DUP10 PUSH3 0x8E5 JUMP JUMPDEST DUP2 DUP2 SUB PUSH1 0x80 DUP4 ADD MSTORE PUSH3 0xB13 DUP2 DUP9 PUSH3 0x8A4 JUMP JUMPDEST SWAP1 POP DUP2 DUP2 SUB PUSH1 0xA0 DUP4 ADD MSTORE PUSH3 0xB29 DUP2 DUP8 PUSH3 0x8A4 JUMP JUMPDEST SWAP1 POP PUSH3 0xB3A PUSH1 0xC0 DUP4 ADD DUP7 PUSH3 0x867 JUMP JUMPDEST PUSH3 0xB49 PUSH1 0xE0 DUP4 ADD DUP6 PUSH3 0x8E5 JUMP JUMPDEST PUSH3 0xB59 PUSH2 0x100 DUP4 ADD DUP5 PUSH3 0x83B JUMP JUMPDEST SWAP11 SWAP10 POP POP POP POP POP POP POP POP POP POP JUMP JUMPDEST PUSH1 0x0 PUSH3 0xB73 PUSH3 0xB86 JUMP JUMPDEST SWAP1 POP PUSH3 0xB81 DUP3 DUP3 PUSH3 0xCCB JUMP JUMPDEST SWAP2 SWAP1 POP JUMP JUMPDEST PUSH1 0x0 PUSH1 0x40 MLOAD SWAP1 POP SWAP1 JUMP JUMPDEST PUSH1 0x0 PUSH8 0xFFFFFFFFFFFFFFFF DUP3 GT ISZERO PUSH3 0xBAE JUMPI PUSH3 0xBAD PUSH3 0xDBA JUMP JUMPDEST JUMPDEST PUSH3 0xBB9 DUP3 PUSH3 0xDFD JUMP JUMPDEST SWAP1 POP PUSH1 0x20 DUP2 ADD SWAP1 POP SWAP2 SWAP1 POP JUMP JUMPDEST PUSH1 0x0 DUP2 MLOAD SWAP1 POP SWAP2 SWAP1 POP JUMP JUMPDEST PUSH1 0x0 DUP3 DUP3 MSTORE PUSH1 0x20 DUP3 ADD SWAP1 POP SWAP3 SWAP2 POP POP JUMP JUMPDEST PUSH1 0x0 PUSH3 0xBEF DUP3 PUSH3 0xC20 JUMP JUMPDEST SWAP1 POP SWAP2 SWAP1 POP JUMP JUMPDEST PUSH1 0x0 PUSH3 0xC03 DUP3 PUSH3 0xC20 JUMP JUMPDEST SWAP1 POP SWAP2 SWAP1 POP JUMP JUMPDEST PUSH1 0x0 DUP2 ISZERO ISZERO SWAP1 POP SWAP2 SWAP1 POP JUMP JUMPDEST PUSH1 0x0 DUP2 SWAP1 POP SWAP2 SWAP1 POP JUMP JUMPDEST PUSH1 0x0 PUSH20 0xFFFFFFFFFFFFFFFFFFFFFFFFFFFFFFFFFFFFFFFF DUP3 AND SWAP1 POP SWAP2 SWAP1 POP JUMP JUMPDEST PUSH1 0x0 DUP2 SWAP1 POP SWAP2 SWAP1 POP JUMP JUMPDEST PUSH1 0x0 PUSH3 0xC57 DUP3 PUSH3 0xC5E JUMP JUMPDEST SWAP1 POP SWAP2 SWAP1 POP JUMP JUMPDEST PUSH1 0x0 PUSH3 0xC6B DUP3 PUSH3 0xC72 JUMP JUMPDEST SWAP1 POP SWAP2 SWAP1 POP JUMP JUMPDEST PUSH1 0x0 PUSH3 0xC7F DUP3 PUSH3 0xC20 JUMP JUMPDEST SWAP1 POP SWAP2 SWAP1 POP JUMP JUMPDEST DUP3 DUP2 DUP4 CALLDATACOPY PUSH1 0x0 DUP4 DUP4 ADD MSTORE POP POP POP JUMP JUMPDEST PUSH1 0x0 JUMPDEST DUP4 DUP2 LT ISZERO PUSH3 0xCB5 JUMPI DUP1 DUP3 ADD MLOAD DUP2 DUP5 ADD MSTORE PUSH1 0x20 DUP2 ADD SWAP1 POP PUSH3 0xC98 JUMP JUMPDEST DUP4 DUP2 GT ISZERO PUSH3 0xCC5 JUMPI PUSH1 0x0 DUP5 DUP5 ADD MSTORE JUMPDEST POP POP POP POP JUMP JUMPDEST PUSH3 0xCD6 DUP3 PUSH3 0xDFD JUMP JUMPDEST DUP2 ADD DUP2 DUP2 LT PUSH8 0xFFFFFFFFFFFFFFFF DUP3 GT OR ISZERO PUSH3 0xCF8 JUMPI PUSH3 0xCF7 PUSH3 0xDBA JUMP JUMPDEST JUMPDEST DUP1 PUSH1 0x40 MSTORE POP POP POP JUMP JUMPDEST PUSH1 0x0 PUSH3 0xD0E DUP3 PUSH3 0xC40 JUMP JUMPDEST SWAP2 POP PUSH32 0xFFFFFFFFFFFFFFFFFFFFFFFFFFFFFFFFFFFFFFFFFFFFFFFFFFFFFFFFFFFFFFFF DUP3 EQ ISZERO PUSH3 0xD44 JUMPI PUSH3 0xD43 PUSH3 0xD8B JUMP JUMPDEST JUMPDEST PUSH1 0x1 DUP3 ADD SWAP1 POP SWAP2 SWAP1 POP JUMP JUMPDEST PUSH1 0x0 PUSH3 0xD5C DUP3 PUSH3 0xD6D JUMP JUMPDEST SWAP1 POP SWAP2 SWAP1 POP JUMP JUMPDEST PUSH1 0x0 DUP2 SWAP1 POP SWAP2 SWAP1 POP JUMP JUMPDEST PUSH1 0x0 PUSH3 0xD7A DUP3 PUSH3 0xE0E JUMP JUMPDEST SWAP1 POP SWAP2 SWAP1 POP JUMP JUMPDEST PUSH1 0x0 DUP2 SWAP1 POP SWAP2 SWAP1 POP JUMP JUMPDEST PUSH32 0x4E487B7100000000000000000000000000000000000000000000000000000000 PUSH1 0x0 MSTORE PUSH1 0x11 PUSH1 0x4 MSTORE PUSH1 0x24 PUSH1 0x0 REVERT JUMPDEST PUSH32 0x4E487B7100000000000000000000000000000000000000000000000000000000 PUSH1 0x0 MSTORE PUSH1 0x41 PUSH1 0x4 MSTORE PUSH1 0x24 PUSH1 0x0 REVERT JUMPDEST PUSH1 0x0 DUP1 REVERT JUMPDEST PUSH1 0x0 DUP1 REVERT JUMPDEST PUSH1 0x0 DUP1 REVERT JUMPDEST PUSH1 0x0 DUP1 REVERT JUMPDEST PUSH1 0x0 PUSH1 0x1F NOT PUSH1 0x1F DUP4 ADD AND SWAP1 POP SWAP2 SWAP1 POP JUMP JUMPDEST PUSH1 0x0 DUP2 PUSH1 0x60 SHL SWAP1 POP SWAP2 SWAP1 POP JUMP JUMPDEST PUSH3 0xE26 DUP2 PUSH3 0xC0A JUMP JUMPDEST DUP2 EQ PUSH3 0xE32 JUMPI PUSH1 0x0 DUP1 REVERT JUMPDEST POP JUMP JUMPDEST PUSH3 0xE40 DUP2 PUSH3 0xC40 JUMP JUMPDEST DUP2 EQ PUSH3 0xE4C JUMPI PUSH1 0x0 DUP1 REVERT JUMPDEST POP JUMP INVALID PUSH1 0x80 PUSH1 0x40 MSTORE CALLVALUE DUP1 ISZERO PUSH3 0x11 JUMPI PUSH1 0x0 DUP1 REVERT JUMPDEST POP PUSH1 0x40 MLOAD PUSH3 0xF5C CODESIZE SUB DUP1 PUSH3 0xF5C DUP4 CODECOPY DUP2 DUP2 ADD PUSH1 0x40 MSTORE DUP2 ADD SWAP1 PUSH3 0x37 SWAP2 SWAP1 PUSH3 0x248 JUMP JUMPDEST CALLER PUSH1 0x0 DUP1 PUSH2 0x100 EXP DUP2 SLOAD DUP2 PUSH20 0xFFFFFFFFFFFFFFFFFFFFFFFFFFFFFFFFFFFFFFFF MUL NOT AND SWAP1 DUP4 PUSH20 0xFFFFFFFFFFFFFFFFFFFFFFFFFFFFFFFFFFFFFFFF AND MUL OR SWAP1 SSTORE POP DUP7 PUSH1 0x1 DUP2 SWAP1 SSTORE POP DUP6 PUSH1 0x2 DUP2 SWAP1 SSTORE POP DUP5 PUSH1 0x3 DUP2 SWAP1 SSTORE POP DUP4 PUSH1 0x4 SWAP1 DUP1 MLOAD SWAP1 PUSH1 0x20 ADD SWAP1 PUSH3 0xA4 SWAP3 SWAP2 SWAP1 PUSH3 0xEC JUMP JUMPDEST POP DUP3 PUSH1 0x5 SWAP1 DUP1 MLOAD SWAP1 PUSH1 0x20 ADD SWAP1 PUSH3 0xBD SWAP3 SWAP2 SWAP1 PUSH3 0xEC JUMP JUMPDEST POP DUP2 PUSH1 0x6 PUSH1 0x0 PUSH2 0x100 EXP DUP2 SLOAD DUP2 PUSH1 0xFF MUL NOT AND SWAP1 DUP4 ISZERO ISZERO MUL OR SWAP1 SSTORE POP DUP1 PUSH1 0x7 DUP2 SWAP1 SSTORE POP POP POP POP POP POP POP POP PUSH3 0x507 JUMP JUMPDEST DUP3 DUP1 SLOAD PUSH3 0xFA SWAP1 PUSH3 0x3E4 JUMP JUMPDEST SWAP1 PUSH1 0x0 MSTORE PUSH1 0x20 PUSH1 0x0 KECCAK256 SWAP1 PUSH1 0x1F ADD PUSH1 0x20 SWAP1 DIV DUP2 ADD SWAP3 DUP3 PUSH3 0x11E JUMPI PUSH1 0x0 DUP6 SSTORE PUSH3 0x16A JUMP JUMPDEST DUP3 PUSH1 0x1F LT PUSH3 0x139 JUMPI DUP1 MLOAD PUSH1 0xFF NOT AND DUP4 DUP1 ADD OR DUP6 SSTORE PUSH3 0x16A JUMP JUMPDEST DUP3 DUP1 ADD PUSH1 0x1 ADD DUP6 SSTORE DUP3 ISZERO PUSH3 0x16A JUMPI SWAP2 DUP3 ADD JUMPDEST DUP3 DUP2 GT ISZERO PUSH3 0x169 JUMPI DUP3 MLOAD DUP3 SSTORE SWAP2 PUSH1 0x20 ADD SWAP2 SWAP1 PUSH1 0x1 ADD SWAP1 PUSH3 0x14C JUMP JUMPDEST JUMPDEST POP SWAP1 POP PUSH3 0x179 SWAP2 SWAP1 PUSH3 0x17D JUMP JUMPDEST POP SWAP1 JUMP JUMPDEST JUMPDEST DUP1 DUP3 GT ISZERO PUSH3 0x198 JUMPI PUSH1 0x0 DUP2 PUSH1 0x0 SWAP1 SSTORE POP PUSH1 0x1 ADD PUSH3 0x17E JUMP JUMPDEST POP SWAP1 JUMP JUMPDEST PUSH1 0x0 PUSH3 0x1B3 PUSH3 0x1AD DUP5 PUSH3 0x362 JUMP JUMPDEST PUSH3 0x339 JUMP JUMPDEST SWAP1 POP DUP3 DUP2 MSTORE PUSH1 0x20 DUP2 ADD DUP5 DUP5 DUP5 ADD GT ISZERO PUSH3 0x1D2 JUMPI PUSH3 0x1D1 PUSH3 0x4B3 JUMP JUMPDEST JUMPDEST PUSH3 0x1DF DUP5 DUP3 DUP6 PUSH3 0x3AE JUMP JUMPDEST POP SWAP4 SWAP3 POP POP POP JUMP JUMPDEST PUSH1 0x0 DUP2 MLOAD SWAP1 POP PUSH3 0x1F8 DUP2 PUSH3 0x4D3 JUMP JUMPDEST SWAP3 SWAP2 POP POP JUMP JUMPDEST PUSH1 0x0 DUP3 PUSH1 0x1F DUP4 ADD SLT PUSH3 0x216 JUMPI PUSH3 0x215 PUSH3 0x4AE JUMP JUMPDEST JUMPDEST DUP2 MLOAD PUSH3 0x228 DUP5 DUP3 PUSH1 0x20 DUP7 ADD PUSH3 0x19C JUMP JUMPDEST SWAP2 POP POP SWAP3 SWAP2 POP POP JUMP JUMPDEST PUSH1 0x0 DUP2 MLOAD SWAP1 POP PUSH3 0x242 DUP2 PUSH3 0x4ED JUMP JUMPDEST SWAP3 SWAP2 POP POP JUMP JUMPDEST PUSH1 0x0 DUP1 PUSH1 0x0 DUP1 PUSH1 0x0 DUP1 PUSH1 0x0 PUSH1 0xE0 DUP9 DUP11 SUB SLT ISZERO PUSH3 0x26A JUMPI PUSH3 0x269 PUSH3 0x4BD JUMP JUMPDEST JUMPDEST PUSH1 0x0 PUSH3 0x27A DUP11 DUP3 DUP12 ADD PUSH3 0x231 JUMP JUMPDEST SWAP8 POP POP PUSH1 0x20 PUSH3 0x28D DUP11 DUP3 DUP12 ADD PUSH3 0x231 JUMP JUMPDEST SWAP7 POP POP PUSH1 0x40 PUSH3 0x2A0 DUP11 DUP3 DUP12 ADD PUSH3 0x231 JUMP JUMPDEST SWAP6 POP POP PUSH1 0x60 DUP9 ADD MLOAD PUSH8 0xFFFFFFFFFFFFFFFF DUP2 GT ISZERO PUSH3 0x2C4 JUMPI PUSH3 0x2C3 PUSH3 0x4B8 JUMP JUMPDEST JUMPDEST PUSH3 0x2D2 DUP11 DUP3 DUP12 ADD PUSH3 0x1FE JUMP JUMPDEST SWAP5 POP POP PUSH1 0x80 DUP9 ADD MLOAD PUSH8 0xFFFFFFFFFFFFFFFF DUP2 GT ISZERO PUSH3 0x2F6 JUMPI PUSH3 0x2F5 PUSH3 0x4B8 JUMP JUMPDEST JUMPDEST PUSH3 0x304 DUP11 DUP3 DUP12 ADD PUSH3 0x1FE JUMP JUMPDEST SWAP4 POP POP PUSH1 0xA0 PUSH3 0x317 DUP11 DUP3 DUP12 ADD PUSH3 0x1E7 JUMP JUMPDEST SWAP3 POP POP PUSH1 0xC0 PUSH3 0x32A DUP11 DUP3 DUP12 ADD PUSH3 0x231 JUMP JUMPDEST SWAP2 POP POP SWAP3 SWAP6 SWAP9 SWAP2 SWAP5 SWAP8 POP SWAP3 SWAP6 POP JUMP JUMPDEST PUSH1 0x0 PUSH3 0x345 PUSH3 0x358 JUMP JUMPDEST SWAP1 POP PUSH3 0x353 DUP3 DUP3 PUSH3 0x41A JUMP JUMPDEST SWAP2 SWAP1 POP JUMP JUMPDEST PUSH1 0x0 PUSH1 0x40 MLOAD SWAP1 POP SWAP1 JUMP JUMPDEST PUSH1 0x0 PUSH8 0xFFFFFFFFFFFFFFFF DUP3 GT ISZERO PUSH3 0x380 JUMPI PUSH3 0x37F PUSH3 0x47F JUMP JUMPDEST JUMPDEST PUSH3 0x38B DUP3 PUSH3 0x4C2 JUMP JUMPDEST SWAP1 POP PUSH1 0x20 DUP2 ADD SWAP1 POP SWAP2 SWAP1 POP JUMP JUMPDEST PUSH1 0x0 DUP2 ISZERO ISZERO SWAP1 POP SWAP2 SWAP1 POP JUMP JUMPDEST PUSH1 0x0 DUP2 SWAP1 POP SWAP2 SWAP1 POP JUMP JUMPDEST PUSH1 0x0 JUMPDEST DUP4 DUP2 LT ISZERO PUSH3 0x3CE JUMPI DUP1 DUP3 ADD MLOAD DUP2 DUP5 ADD MSTORE PUSH1 0x20 DUP2 ADD SWAP1 POP PUSH3 0x3B1 JUMP JUMPDEST DUP4 DUP2 GT ISZERO PUSH3 0x3DE JUMPI PUSH1 0x0 DUP5 DUP5 ADD MSTORE JUMPDEST POP POP POP POP JUMP JUMPDEST PUSH1 0x0 PUSH1 0x2 DUP3 DIV SWAP1 POP PUSH1 0x1 DUP3 AND DUP1 PUSH3 0x3FD JUMPI PUSH1 0x7F DUP3 AND SWAP2 POP JUMPDEST PUSH1 0x20 DUP3 LT DUP2 EQ ISZERO PUSH3 0x414 JUMPI PUSH3 0x413 PUSH3 0x450 JUMP JUMPDEST JUMPDEST POP SWAP2 SWAP1 POP JUMP JUMPDEST PUSH3 0x425 DUP3 PUSH3 0x4C2 JUMP JUMPDEST DUP2 ADD DUP2 DUP2 LT PUSH8 0xFFFFFFFFFFFFFFFF DUP3 GT OR ISZERO PUSH3 0x447 JUMPI PUSH3 0x446 PUSH3 0x47F JUMP JUMPDEST JUMPDEST DUP1 PUSH1 0x40 MSTORE POP POP POP JUMP JUMPDEST PUSH32 0x4E487B7100000000000000000000000000000000000000000000000000000000 PUSH1 0x0 MSTORE PUSH1 0x22 PUSH1 0x4 MSTORE PUSH1 0x24 PUSH1 0x0 REVERT JUMPDEST PUSH32 0x4E487B7100000000000000000000000000000000000000000000000000000000 PUSH1 0x0 MSTORE PUSH1 0x41 PUSH1 0x4 MSTORE PUSH1 0x24 PUSH1 0x0 REVERT JUMPDEST PUSH1 0x0 DUP1 REVERT JUMPDEST PUSH1 0x0 DUP1 REVERT JUMPDEST PUSH1 0x0 DUP1 REVERT JUMPDEST PUSH1 0x0 DUP1 REVERT JUMPDEST PUSH1 0x0 PUSH1 0x1F NOT PUSH1 0x1F DUP4 ADD AND SWAP1 POP SWAP2 SWAP1 POP JUMP JUMPDEST PUSH3 0x4DE DUP2 PUSH3 0x398 JUMP JUMPDEST DUP2 EQ PUSH3 0x4EA JUMPI PUSH1 0x0 DUP1 REVERT JUMPDEST POP JUMP JUMPDEST PUSH3 0x4F8 DUP2 PUSH3 0x3A4 JUMP JUMPDEST DUP2 EQ PUSH3 0x504 JUMPI PUSH1 0x0 DUP1 REVERT JUMPDEST POP JUMP JUMPDEST PUSH2 0xA45 DUP1 PUSH3 0x517 PUSH1 0x0 CODECOPY PUSH1 0x0 RETURN INVALID PUSH1 0x80 PUSH1 0x40 MSTORE PUSH1 0x4 CALLDATASIZE LT PUSH2 0x3F JUMPI PUSH1 0x0 CALLDATALOAD PUSH1 0xE0 SHR DUP1 PUSH4 0x485F4767 EQ PUSH2 0x44 JUMPI DUP1 PUSH4 0x5E375475 EQ PUSH2 0x6D JUMPI DUP1 PUSH4 0xA6F9DAE1 EQ PUSH2 0x96 JUMPI DUP1 PUSH4 0xFBBF93A0 EQ PUSH2 0xB2 JUMPI JUMPDEST PUSH1 0x0 DUP1 REVERT JUMPDEST CALLVALUE DUP1 ISZERO PUSH2 0x50 JUMPI PUSH1 0x0 DUP1 REVERT JUMPDEST POP PUSH2 0x6B PUSH1 0x4 DUP1 CALLDATASIZE SUB DUP2 ADD SWAP1 PUSH2 0x66 SWAP2 SWAP1 PUSH2 0x672 JUMP JUMPDEST PUSH2 0xE3 JUMP JUMPDEST STOP JUMPDEST CALLVALUE DUP1 ISZERO PUSH2 0x79 JUMPI PUSH1 0x0 DUP1 REVERT JUMPDEST POP PUSH2 0x94 PUSH1 0x4 DUP1 CALLDATASIZE SUB DUP2 ADD SWAP1 PUSH2 0x8F SWAP2 SWAP1 PUSH2 0x632 JUMP JUMPDEST PUSH2 0x17E JUMP JUMPDEST STOP JUMPDEST PUSH2 0xB0 PUSH1 0x4 DUP1 CALLDATASIZE SUB DUP2 ADD SWAP1 PUSH2 0xAB SWAP2 SWAP1 PUSH2 0x605 JUMP JUMPDEST PUSH2 0x22C JUMP JUMPDEST STOP JUMPDEST CALLVALUE DUP1 ISZERO PUSH2 0xBE JUMPI PUSH1 0x0 DUP1 REVERT JUMPDEST POP PUSH2 0xC7 PUSH2 0x46C JUMP JUMPDEST PUSH1 0x40 MLOAD PUSH2 0xDA SWAP8 SWAP7 SWAP6 SWAP5 SWAP4 SWAP3 SWAP2 SWAP1 PUSH2 0x7C7 JUMP JUMPDEST PUSH1 0x40 MLOAD DUP1 SWAP2 SUB SWAP1 RETURN JUMPDEST DUP1 PUSH1 0x0 DUP1 SLOAD SWAP1 PUSH2 0x100 EXP SWAP1 DIV PUSH20 0xFFFFFFFFFFFFFFFFFFFFFFFFFFFFFFFFFFFFFFFF AND PUSH20 0xFFFFFFFFFFFFFFFFFFFFFFFFFFFFFFFFFFFFFFFF AND DUP2 PUSH20 0xFFFFFFFFFFFFFFFFFFFFFFFFFFFFFFFFFFFFFFFF AND EQ PUSH2 0x172 JUMPI PUSH1 0x40 MLOAD PUSH32 0x8C379A000000000000000000000000000000000000000000000000000000000 DUP2 MSTORE PUSH1 0x4 ADD PUSH2 0x169 SWAP1 PUSH2 0x787 JUMP JUMPDEST PUSH1 0x40 MLOAD DUP1 SWAP2 SUB SWAP1 REVERT JUMPDEST DUP3 PUSH1 0x7 DUP2 SWAP1 SSTORE POP POP POP POP JUMP JUMPDEST DUP1 PUSH1 0x0 DUP1 SLOAD SWAP1 PUSH2 0x100 EXP SWAP1 DIV PUSH20 0xFFFFFFFFFFFFFFFFFFFFFFFFFFFFFFFFFFFFFFFF AND PUSH20 0xFFFFFFFFFFFFFFFFFFFFFFFFFFFFFFFFFFFFFFFF AND DUP2 PUSH20 0xFFFFFFFFFFFFFFFFFFFFFFFFFFFFFFFFFFFFFFFF AND EQ PUSH2 0x20D JUMPI PUSH1 0x40 MLOAD PUSH32 0x8C379A000000000000000000000000000000000000000000000000000000000 DUP2 MSTORE PUSH1 0x4 ADD PUSH2 0x204 SWAP1 PUSH2 0x787 JUMP JUMPDEST PUSH1 0x40 MLOAD DUP1 SWAP2 SUB SWAP1 REVERT JUMPDEST DUP3 PUSH1 0x6 PUSH1 0x0 PUSH2 0x100 EXP DUP2 SLOAD DUP2 PUSH1 0xFF MUL NOT AND SWAP1 DUP4 ISZERO ISZERO MUL OR SWAP1 SSTORE POP POP POP POP JUMP JUMPDEST PUSH1 0x1 ISZERO ISZERO PUSH1 0x6 PUSH1 0x0 SWAP1 SLOAD SWAP1 PUSH2 0x100 EXP SWAP1 DIV PUSH1 0xFF AND ISZERO ISZERO EQ PUSH2 0x24C JUMPI PUSH1 0x0 DUP1 REVERT JUMPDEST PUSH1 0x7 SLOAD CALLVALUE LT ISZERO PUSH2 0x2D8 JUMPI DUP1 PUSH20 0xFFFFFFFFFFFFFFFFFFFFFFFFFFFFFFFFFFFFFFFF AND PUSH2 0x8FC CALLVALUE SWAP1 DUP2 ISZERO MUL SWAP1 PUSH1 0x40 MLOAD PUSH1 0x0 PUSH1 0x40 MLOAD DUP1 DUP4 SUB DUP2 DUP6 DUP9 DUP9 CALL SWAP4 POP POP POP POP ISZERO DUP1 ISZERO PUSH2 0x29C JUMPI RETURNDATASIZE PUSH1 0x0 DUP1 RETURNDATACOPY RETURNDATASIZE PUSH1 0x0 REVERT JUMPDEST POP PUSH1 0x40 MLOAD PUSH32 0x8C379A000000000000000000000000000000000000000000000000000000000 DUP2 MSTORE PUSH1 0x4 ADD PUSH2 0x2CF SWAP1 PUSH2 0x7A7 JUMP JUMPDEST PUSH1 0x40 MLOAD DUP1 SWAP2 SUB SWAP1 REVERT JUMPDEST PUSH1 0x0 DUP1 SLOAD SWAP1 PUSH2 0x100 EXP SWAP1 DIV PUSH20 0xFFFFFFFFFFFFFFFFFFFFFFFFFFFFFFFFFFFFFFFF AND PUSH20 0xFFFFFFFFFFFFFFFFFFFFFFFFFFFFFFFFFFFFFFFF AND PUSH2 0x8FC CALLVALUE SWAP1 DUP2 ISZERO MUL SWAP1 PUSH1 0x40 MLOAD PUSH1 0x0 PUSH1 0x40 MLOAD DUP1 DUP4 SUB DUP2 DUP6 DUP9 DUP9 CALL SWAP4 POP POP POP POP ISZERO DUP1 ISZERO PUSH2 0x33E JUMPI RETURNDATASIZE PUSH1 0x0 DUP1 RETURNDATACOPY RETURNDATASIZE PUSH1 0x0 REVERT JUMPDEST POP PUSH1 0x0 DUP1 SLOAD SWAP1 PUSH2 0x100 EXP SWAP1 DIV PUSH20 0xFFFFFFFFFFFFFFFFFFFFFFFFFFFFFFFFFFFFFFFF AND PUSH1 0x9 PUSH1 0x0 PUSH2 0x100 EXP DUP2 SLOAD DUP2 PUSH20 0xFFFFFFFFFFFFFFFFFFFFFFFFFFFFFFFFFFFFFFFF MUL NOT AND SWAP1 DUP4 PUSH20 0xFFFFFFFFFFFFFFFFFFFFFFFFFFFFFFFFFFFFFFFF AND MUL OR SWAP1 SSTORE POP DUP1 PUSH1 0x0 DUP1 PUSH2 0x100 EXP DUP2 SLOAD DUP2 PUSH20 0xFFFFFFFFFFFFFFFFFFFFFFFFFFFFFFFFFFFFFFFF MUL NOT AND SWAP1 DUP4 PUSH20 0xFFFFFFFFFFFFFFFFFFFFFFFFFFFFFFFFFFFFFFFF AND MUL OR SWAP1 SSTORE POP PUSH1 0x0 PUSH1 0x6 PUSH1 0x0 PUSH2 0x100 EXP DUP2 SLOAD DUP2 PUSH1 0xFF MUL NOT AND SWAP1 DUP4 ISZERO ISZERO MUL OR SWAP1 SSTORE POP PUSH1 0x7 SLOAD PUSH1 0x8 DUP2 SWAP1 SSTORE POP PUSH1 0x0 PUSH1 0x7 DUP2 SWAP1 SSTORE POP PUSH32 0x4DC7E7DCEE44619D786319FC36FDAFAE2D190C6BC41A6110BCB967A6B10FFA52 PUSH1 0x9 PUSH1 0x0 SWAP1 SLOAD SWAP1 PUSH2 0x100 EXP SWAP1 DIV PUSH20 0xFFFFFFFFFFFFFFFFFFFFFFFFFFFFFFFFFFFFFFFF AND PUSH1 0x8 SLOAD PUSH1 0x40 MLOAD PUSH2 0x461 SWAP3 SWAP2 SWAP1 PUSH2 0x75E JUMP JUMPDEST PUSH1 0x40 MLOAD DUP1 SWAP2 SUB SWAP1 LOG1 POP JUMP JUMPDEST PUSH1 0x0 DUP1 PUSH1 0x0 PUSH1 0x60 DUP1 PUSH1 0x0 DUP1 PUSH1 0x1 SLOAD PUSH1 0x2 SLOAD PUSH1 0x3 SLOAD PUSH1 0x4 PUSH1 0x5 PUSH1 0x6 PUSH1 0x0 SWAP1 SLOAD SWAP1 PUSH2 0x100 EXP SWAP1 DIV PUSH1 0xFF AND PUSH1 0x7 SLOAD DUP4 DUP1 SLOAD PUSH2 0x4A3 SWAP1 PUSH2 0x8DB JUMP JUMPDEST DUP1 PUSH1 0x1F ADD PUSH1 0x20 DUP1 SWAP2 DIV MUL PUSH1 0x20 ADD PUSH1 0x40 MLOAD SWAP1 DUP2 ADD PUSH1 0x40 MSTORE DUP1 SWAP3 SWAP2 SWAP1 DUP2 DUP2 MSTORE PUSH1 0x20 ADD DUP3 DUP1 SLOAD PUSH2 0x4CF SWAP1 PUSH2 0x8DB JUMP JUMPDEST DUP1 ISZERO PUSH2 0x51C JUMPI DUP1 PUSH1 0x1F LT PUSH2 0x4F1 JUMPI PUSH2 0x100 DUP1 DUP4 SLOAD DIV MUL DUP4 MSTORE SWAP2 PUSH1 0x20 ADD SWAP2 PUSH2 0x51C JUMP JUMPDEST DUP3 ADD SWAP2 SWAP1 PUSH1 0x0 MSTORE PUSH1 0x20 PUSH1 0x0 KECCAK256 SWAP1 JUMPDEST DUP2 SLOAD DUP2 MSTORE SWAP1 PUSH1 0x1 ADD SWAP1 PUSH1 0x20 ADD DUP1 DUP4 GT PUSH2 0x4FF JUMPI DUP3 SWAP1 SUB PUSH1 0x1F AND DUP3 ADD SWAP2 JUMPDEST POP POP POP POP POP SWAP4 POP DUP3 DUP1 SLOAD PUSH2 0x52F SWAP1 PUSH2 0x8DB JUMP JUMPDEST DUP1 PUSH1 0x1F ADD PUSH1 0x20 DUP1 SWAP2 DIV MUL PUSH1 0x20 ADD PUSH1 0x40 MLOAD SWAP1 DUP2 ADD PUSH1 0x40 MSTORE DUP1 SWAP3 SWAP2 SWAP1 DUP2 DUP2 MSTORE PUSH1 0x20 ADD DUP3 DUP1 SLOAD PUSH2 0x55B SWAP1 PUSH2 0x8DB JUMP JUMPDEST DUP1 ISZERO PUSH2 0x5A8 JUMPI DUP1 PUSH1 0x1F LT PUSH2 0x57D JUMPI PUSH2 0x100 DUP1 DUP4 SLOAD DIV MUL DUP4 MSTORE SWAP2 PUSH1 0x20 ADD SWAP2 PUSH2 0x5A8 JUMP JUMPDEST DUP3 ADD SWAP2 SWAP1 PUSH1 0x0 MSTORE PUSH1 0x20 PUSH1 0x0 KECCAK256 SWAP1 JUMPDEST DUP2 SLOAD DUP2 MSTORE SWAP1 PUSH1 0x1 ADD SWAP1 PUSH1 0x20 ADD DUP1 DUP4 GT PUSH2 0x58B JUMPI DUP3 SWAP1 SUB PUSH1 0x1F AND DUP3 ADD SWAP2 JUMPDEST POP POP POP POP POP SWAP3 POP SWAP7 POP SWAP7 POP SWAP7 POP SWAP7 POP SWAP7 POP SWAP7 POP SWAP7 POP SWAP1 SWAP2 SWAP3 SWAP4 SWAP5 SWAP6 SWAP7 JUMP JUMPDEST PUSH1 0x0 DUP2 CALLDATALOAD SWAP1 POP PUSH2 0x5D5 DUP2 PUSH2 0x9CA JUMP JUMPDEST SWAP3 SWAP2 POP POP JUMP JUMPDEST PUSH1 0x0 DUP2 CALLDATALOAD SWAP1 POP PUSH2 0x5EA DUP2 PUSH2 0x9E1 JUMP JUMPDEST SWAP3 SWAP2 POP POP JUMP JUMPDEST PUSH1 0x0 DUP2 CALLDATALOAD SWAP1 POP PUSH2 0x5FF DUP2 PUSH2 0x9F8 JUMP JUMPDEST SWAP3 SWAP2 POP POP JUMP JUMPDEST PUSH1 0x0 PUSH1 0x20 DUP3 DUP5 SUB SLT ISZERO PUSH2 0x61B JUMPI PUSH2 0x61A PUSH2 0x93C JUMP JUMPDEST JUMPDEST PUSH1 0x0 PUSH2 0x629 DUP5 DUP3 DUP6 ADD PUSH2 0x5C6 JUMP JUMPDEST SWAP2 POP POP SWAP3 SWAP2 POP POP JUMP JUMPDEST PUSH1 0x0 DUP1 PUSH1 0x40 DUP4 DUP6 SUB SLT ISZERO PUSH2 0x649 JUMPI PUSH2 0x648 PUSH2 0x93C JUMP JUMPDEST JUMPDEST PUSH1 0x0 PUSH2 0x657 DUP6 DUP3 DUP7 ADD PUSH2 0x5DB JUMP JUMPDEST SWAP3 POP POP PUSH1 0x20 PUSH2 0x668 DUP6 DUP3 DUP7 ADD PUSH2 0x5C6 JUMP JUMPDEST SWAP2 POP POP SWAP3 POP SWAP3 SWAP1 POP JUMP JUMPDEST PUSH1 0x0 DUP1 PUSH1 0x40 DUP4 DUP6 SUB SLT ISZERO PUSH2 0x689 JUMPI PUSH2 0x688 PUSH2 0x93C JUMP JUMPDEST JUMPDEST PUSH1 0x0 PUSH2 0x697 DUP6 DUP3 DUP7 ADD PUSH2 0x5F0 JUMP JUMPDEST SWAP3 POP POP PUSH1 0x20 PUSH2 0x6A8 DUP6 DUP3 DUP7 ADD PUSH2 0x5C6 JUMP JUMPDEST SWAP2 POP POP SWAP3 POP SWAP3 SWAP1 POP JUMP JUMPDEST PUSH2 0x6BB DUP2 PUSH2 0x860 JUMP JUMPDEST DUP3 MSTORE POP POP JUMP JUMPDEST PUSH2 0x6CA DUP2 PUSH2 0x872 JUMP JUMPDEST DUP3 MSTORE POP POP JUMP JUMPDEST PUSH1 0x0 PUSH2 0x6DB DUP3 PUSH2 0x844 JUMP JUMPDEST PUSH2 0x6E5 DUP2 DUP6 PUSH2 0x84F JUMP JUMPDEST SWAP4 POP PUSH2 0x6F5 DUP2 DUP6 PUSH1 0x20 DUP7 ADD PUSH2 0x8A8 JUMP JUMPDEST PUSH2 0x6FE DUP2 PUSH2 0x941 JUMP JUMPDEST DUP5 ADD SWAP2 POP POP SWAP3 SWAP2 POP POP JUMP JUMPDEST PUSH1 0x0 PUSH2 0x716 PUSH1 0x25 DUP4 PUSH2 0x84F JUMP JUMPDEST SWAP2 POP PUSH2 0x721 DUP3 PUSH2 0x952 JUMP JUMPDEST PUSH1 0x40 DUP3 ADD SWAP1 POP SWAP2 SWAP1 POP JUMP JUMPDEST PUSH1 0x0 PUSH2 0x739 PUSH1 0x19 DUP4 PUSH2 0x84F JUMP JUMPDEST SWAP2 POP PUSH2 0x744 DUP3 PUSH2 0x9A1 JUMP JUMPDEST PUSH1 0x20 DUP3 ADD SWAP1 POP SWAP2 SWAP1 POP JUMP JUMPDEST PUSH2 0x758 DUP2 PUSH2 0x89E JUMP JUMPDEST DUP3 MSTORE POP POP JUMP JUMPDEST PUSH1 0x0 PUSH1 0x40 DUP3 ADD SWAP1 POP PUSH2 0x773 PUSH1 0x0 DUP4 ADD DUP6 PUSH2 0x6B2 JUMP JUMPDEST PUSH2 0x780 PUSH1 0x20 DUP4 ADD DUP5 PUSH2 0x74F JUMP JUMPDEST SWAP4 SWAP3 POP POP POP JUMP JUMPDEST PUSH1 0x0 PUSH1 0x20 DUP3 ADD SWAP1 POP DUP2 DUP2 SUB PUSH1 0x0 DUP4 ADD MSTORE PUSH2 0x7A0 DUP2 PUSH2 0x709 JUMP JUMPDEST SWAP1 POP SWAP2 SWAP1 POP JUMP JUMPDEST PUSH1 0x0 PUSH1 0x20 DUP3 ADD SWAP1 POP DUP2 DUP2 SUB PUSH1 0x0 DUP4 ADD MSTORE PUSH2 0x7C0 DUP2 PUSH2 0x72C JUMP JUMPDEST SWAP1 POP SWAP2 SWAP1 POP JUMP JUMPDEST PUSH1 0x0 PUSH1 0xE0 DUP3 ADD SWAP1 POP PUSH2 0x7DC PUSH1 0x0 DUP4 ADD DUP11 PUSH2 0x74F JUMP JUMPDEST PUSH2 0x7E9 PUSH1 0x20 DUP4 ADD DUP10 PUSH2 0x74F JUMP JUMPDEST PUSH2 0x7F6 PUSH1 0x40 DUP4 ADD DUP9 PUSH2 0x74F JUMP JUMPDEST DUP2 DUP2 SUB PUSH1 0x60 DUP4 ADD MSTORE PUSH2 0x808 DUP2 DUP8 PUSH2 0x6D0 JUMP JUMPDEST SWAP1 POP DUP2 DUP2 SUB PUSH1 0x80 DUP4 ADD MSTORE PUSH2 0x81C DUP2 DUP7 PUSH2 0x6D0 JUMP JUMPDEST SWAP1 POP PUSH2 0x82B PUSH1 0xA0 DUP4 ADD DUP6 PUSH2 0x6C1 JUMP JUMPDEST PUSH2 0x838 PUSH1 0xC0 DUP4 ADD DUP5 PUSH2 0x74F JUMP JUMPDEST SWAP9 SWAP8 POP POP POP POP POP POP POP POP JUMP JUMPDEST PUSH1 0x0 DUP2 MLOAD SWAP1 POP SWAP2 SWAP1 POP JUMP JUMPDEST PUSH1 0x0 DUP3 DUP3 MSTORE PUSH1 0x20 DUP3 ADD SWAP1 POP SWAP3 SWAP2 POP POP JUMP JUMPDEST PUSH1 0x0 PUSH2 0x86B DUP3 PUSH2 0x87E JUMP JUMPDEST SWAP1 POP SWAP2 SWAP1 POP JUMP JUMPDEST PUSH1 0x0 DUP2 ISZERO ISZERO SWAP1 POP SWAP2 SWAP1 POP JUMP JUMPDEST PUSH1 0x0 PUSH20 0xFFFFFFFFFFFFFFFFFFFFFFFFFFFFFFFFFFFFFFFF DUP3 AND SWAP1 POP SWAP2 SWAP1 POP JUMP JUMPDEST PUSH1 0x0 DUP2 SWAP1 POP SWAP2 SWAP1 POP JUMP JUMPDEST PUSH1 0x0 JUMPDEST DUP4 DUP2 LT ISZERO PUSH2 0x8C6 JUMPI DUP1 DUP3 ADD MLOAD DUP2 DUP5 ADD MSTORE PUSH1 0x20 DUP2 ADD SWAP1 POP PUSH2 0x8AB JUMP JUMPDEST DUP4 DUP2 GT ISZERO PUSH2 0x8D5 JUMPI PUSH1 0x0 DUP5 DUP5 ADD MSTORE JUMPDEST POP POP POP POP JUMP JUMPDEST PUSH1 0x0 PUSH1 0x2 DUP3 DIV SWAP1 POP PUSH1 0x1 DUP3 AND DUP1 PUSH2 0x8F3 JUMPI PUSH1 0x7F DUP3 AND SWAP2 POP JUMPDEST PUSH1 0x20 DUP3 LT DUP2 EQ ISZERO PUSH2 0x907 JUMPI PUSH2 0x906 PUSH2 0x90D JUMP JUMPDEST JUMPDEST POP SWAP2 SWAP1 POP JUMP JUMPDEST PUSH32 0x4E487B7100000000000000000000000000000000000000000000000000000000 PUSH1 0x0 MSTORE PUSH1 0x22 PUSH1 0x4 MSTORE PUSH1 0x24 PUSH1 0x0 REVERT JUMPDEST PUSH1 0x0 DUP1 REVERT JUMPDEST PUSH1 0x0 PUSH1 0x1F NOT PUSH1 0x1F DUP4 ADD AND SWAP1 POP SWAP2 SWAP1 POP JUMP JUMPDEST PUSH32 0x4F6E6C7920746865206F776E65722063616E2063616C6C20746869732066756E PUSH1 0x0 DUP3 ADD MSTORE PUSH32 0x6374696F6E000000000000000000000000000000000000000000000000000000 PUSH1 0x20 DUP3 ADD MSTORE POP JUMP JUMPDEST PUSH32 0x4E6F7420656E6F756768206574686572207761732073656E7400000000000000 PUSH1 0x0 DUP3 ADD MSTORE POP JUMP JUMPDEST PUSH2 0x9D3 DUP2 PUSH2 0x860 JUMP JUMPDEST DUP2 EQ PUSH2 0x9DE JUMPI PUSH1 0x0 DUP1 REVERT JUMPDEST POP JUMP JUMPDEST PUSH2 0x9EA DUP2 PUSH2 0x872 JUMP JUMPDEST DUP2 EQ PUSH2 0x9F5 JUMPI PUSH1 0x0 DUP1 REVERT JUMPDEST POP JUMP JUMPDEST PUSH2 0xA01 DUP2 PUSH2 0x89E JUMP JUMPDEST DUP2 EQ PUSH2 0xA0C JUMPI PUSH1 0x0 DUP1 REVERT JUMPDEST POP JUMP INVALID LOG2 PUSH5 0x6970667358 0x22 SLT KECCAK256 0xB4 STATICCALL 0xA5 0xC7 0xAC PUSH12 0xB3B6A807A45AB8ADFA58C5FC 0xBD DUP16 GASPRICE KECCAK256 PUSH13 0x39D86502E85EB7078764736F6C PUSH4 0x43000807 STOP CALLER PUSH1 0x80 PUSH1 0x40 MSTORE CALLVALUE DUP1 ISZERO PUSH3 0x11 JUMPI PUSH1 0x0 DUP1 REVERT JUMPDEST POP PUSH1 0x40 MLOAD PUSH3 0x100D CODESIZE SUB DUP1 PUSH3 0x100D DUP4 CODECOPY DUP2 DUP2 ADD PUSH1 0x40 MSTORE DUP2 ADD SWAP1 PUSH3 0x37 SWAP2 SWAP1 PUSH3 0x268 JUMP JUMPDEST DUP1 PUSH1 0x0 DUP1 PUSH2 0x100 EXP DUP2 SLOAD DUP2 PUSH20 0xFFFFFFFFFFFFFFFFFFFFFFFFFFFFFFFFFFFFFFFF MUL NOT AND SWAP1 DUP4 PUSH20 0xFFFFFFFFFFFFFFFFFFFFFFFFFFFFFFFFFFFFFFFF AND MUL OR SWAP1 SSTORE POP DUP9 PUSH1 0x1 DUP2 SWAP1 SSTORE POP DUP8 PUSH1 0x2 DUP2 SWAP1 SSTORE POP DUP7 PUSH1 0x3 DUP2 SWAP1 SSTORE POP DUP6 PUSH1 0x4 DUP2 SWAP1 SSTORE POP DUP5 PUSH1 0x5 SWAP1 DUP1 MLOAD SWAP1 PUSH1 0x20 ADD SWAP1 PUSH3 0xAB SWAP3 SWAP2 SWAP1 PUSH3 0xF5 JUMP JUMPDEST POP DUP4 PUSH1 0x6 SWAP1 DUP1 MLOAD SWAP1 PUSH1 0x20 ADD SWAP1 PUSH3 0xC4 SWAP3 SWAP2 SWAP1 PUSH3 0xF5 JUMP JUMPDEST POP DUP3 PUSH1 0x7 PUSH1 0x0 PUSH2 0x100 EXP DUP2 SLOAD DUP2 PUSH1 0xFF MUL NOT AND SWAP1 DUP4 ISZERO ISZERO MUL OR SWAP1 SSTORE POP DUP2 PUSH1 0x8 DUP2 SWAP1 SSTORE POP POP POP POP POP POP POP POP POP POP PUSH3 0x5A1 JUMP JUMPDEST DUP3 DUP1 SLOAD PUSH3 0x103 SWAP1 PUSH3 0x464 JUMP JUMPDEST SWAP1 PUSH1 0x0 MSTORE PUSH1 0x20 PUSH1 0x0 KECCAK256 SWAP1 PUSH1 0x1F ADD PUSH1 0x20 SWAP1 DIV DUP2 ADD SWAP3 DUP3 PUSH3 0x127 JUMPI PUSH1 0x0 DUP6 SSTORE PUSH3 0x173 JUMP JUMPDEST DUP3 PUSH1 0x1F LT PUSH3 0x142 JUMPI DUP1 MLOAD PUSH1 0xFF NOT AND DUP4 DUP1 ADD OR DUP6 SSTORE PUSH3 0x173 JUMP JUMPDEST DUP3 DUP1 ADD PUSH1 0x1 ADD DUP6 SSTORE DUP3 ISZERO PUSH3 0x173 JUMPI SWAP2 DUP3 ADD JUMPDEST DUP3 DUP2 GT ISZERO PUSH3 0x172 JUMPI DUP3 MLOAD DUP3 SSTORE SWAP2 PUSH1 0x20 ADD SWAP2 SWAP1 PUSH1 0x1 ADD SWAP1 PUSH3 0x155 JUMP JUMPDEST JUMPDEST POP SWAP1 POP PUSH3 0x182 SWAP2 SWAP1 PUSH3 0x186 JUMP JUMPDEST POP SWAP1 JUMP JUMPDEST JUMPDEST DUP1 DUP3 GT ISZERO PUSH3 0x1A1 JUMPI PUSH1 0x0 DUP2 PUSH1 0x0 SWAP1 SSTORE POP PUSH1 0x1 ADD PUSH3 0x187 JUMP JUMPDEST POP SWAP1 JUMP JUMPDEST PUSH1 0x0 PUSH3 0x1BC PUSH3 0x1B6 DUP5 PUSH3 0x3AE JUMP JUMPDEST PUSH3 0x385 JUMP JUMPDEST SWAP1 POP DUP3 DUP2 MSTORE PUSH1 0x20 DUP2 ADD DUP5 DUP5 DUP5 ADD GT ISZERO PUSH3 0x1DB JUMPI PUSH3 0x1DA PUSH3 0x533 JUMP JUMPDEST JUMPDEST PUSH3 0x1E8 DUP5 DUP3 DUP6 PUSH3 0x42E JUMP JUMPDEST POP SWAP4 SWAP3 POP POP POP JUMP JUMPDEST PUSH1 0x0 DUP2 MLOAD SWAP1 POP PUSH3 0x201 DUP2 PUSH3 0x553 JUMP JUMPDEST SWAP3 SWAP2 POP POP JUMP JUMPDEST PUSH1 0x0 DUP2 MLOAD SWAP1 POP PUSH3 0x218 DUP2 PUSH3 0x56D JUMP JUMPDEST SWAP3 SWAP2 POP POP JUMP JUMPDEST PUSH1 0x0 DUP3 PUSH1 0x1F DUP4 ADD SLT PUSH3 0x236 JUMPI PUSH3 0x235 PUSH3 0x52E JUMP JUMPDEST JUMPDEST DUP2 MLOAD PUSH3 0x248 DUP5 DUP3 PUSH1 0x20 DUP7 ADD PUSH3 0x1A5 JUMP JUMPDEST SWAP2 POP POP SWAP3 SWAP2 POP POP JUMP JUMPDEST PUSH1 0x0 DUP2 MLOAD SWAP1 POP PUSH3 0x262 DUP2 PUSH3 0x587 JUMP JUMPDEST SWAP3 SWAP2 POP POP JUMP JUMPDEST PUSH1 0x0 DUP1 PUSH1 0x0 DUP1 PUSH1 0x0 DUP1 PUSH1 0x0 DUP1 PUSH1 0x0 PUSH2 0x120 DUP11 DUP13 SUB SLT ISZERO PUSH3 0x28E JUMPI PUSH3 0x28D PUSH3 0x53D JUMP JUMPDEST JUMPDEST PUSH1 0x0 PUSH3 0x29E DUP13 DUP3 DUP14 ADD PUSH3 0x251 JUMP JUMPDEST SWAP10 POP POP PUSH1 0x20 PUSH3 0x2B1 DUP13 DUP3 DUP14 ADD PUSH3 0x251 JUMP JUMPDEST SWAP9 POP POP PUSH1 0x40 PUSH3 0x2C4 DUP13 DUP3 DUP14 ADD PUSH3 0x251 JUMP JUMPDEST SWAP8 POP POP PUSH1 0x60 PUSH3 0x2D7 DUP13 DUP3 DUP14 ADD PUSH3 0x251 JUMP JUMPDEST SWAP7 POP POP PUSH1 0x80 DUP11 ADD MLOAD PUSH8 0xFFFFFFFFFFFFFFFF DUP2 GT ISZERO PUSH3 0x2FB JUMPI PUSH3 0x2FA PUSH3 0x538 JUMP JUMPDEST JUMPDEST PUSH3 0x309 DUP13 DUP3 DUP14 ADD PUSH3 0x21E JUMP JUMPDEST SWAP6 POP POP PUSH1 0xA0 DUP11 ADD MLOAD PUSH8 0xFFFFFFFFFFFFFFFF DUP2 GT ISZERO PUSH3 0x32D JUMPI PUSH3 0x32C PUSH3 0x538 JUMP JUMPDEST JUMPDEST PUSH3 0x33B DUP13 DUP3 DUP14 ADD PUSH3 0x21E JUMP JUMPDEST SWAP5 POP POP PUSH1 0xC0 PUSH3 0x34E DUP13 DUP3 DUP14 ADD PUSH3 0x207 JUMP JUMPDEST SWAP4 POP POP PUSH1 0xE0 PUSH3 0x361 DUP13 DUP3 DUP14 ADD PUSH3 0x251 JUMP JUMPDEST SWAP3 POP POP PUSH2 0x100 PUSH3 0x375 DUP13 DUP3 DUP14 ADD PUSH3 0x1F0 JUMP JUMPDEST SWAP2 POP POP SWAP3 SWAP6 SWAP9 POP SWAP3 SWAP6 SWAP9 POP SWAP3 SWAP6 SWAP9 JUMP JUMPDEST PUSH1 0x0 PUSH3 0x391 PUSH3 0x3A4 JUMP JUMPDEST SWAP1 POP PUSH3 0x39F DUP3 DUP3 PUSH3 0x49A JUMP JUMPDEST SWAP2 SWAP1 POP JUMP JUMPDEST PUSH1 0x0 PUSH1 0x40 MLOAD SWAP1 POP SWAP1 JUMP JUMPDEST PUSH1 0x0 PUSH8 0xFFFFFFFFFFFFFFFF DUP3 GT ISZERO PUSH3 0x3CC JUMPI PUSH3 0x3CB PUSH3 0x4FF JUMP JUMPDEST JUMPDEST PUSH3 0x3D7 DUP3 PUSH3 0x542 JUMP JUMPDEST SWAP1 POP PUSH1 0x20 DUP2 ADD SWAP1 POP SWAP2 SWAP1 POP JUMP JUMPDEST PUSH1 0x0 PUSH3 0x3F1 DUP3 PUSH3 0x404 JUMP JUMPDEST SWAP1 POP SWAP2 SWAP1 POP JUMP JUMPDEST PUSH1 0x0 DUP2 ISZERO ISZERO SWAP1 POP SWAP2 SWAP1 POP JUMP JUMPDEST PUSH1 0x0 PUSH20 0xFFFFFFFFFFFFFFFFFFFFFFFFFFFFFFFFFFFFFFFF DUP3 AND SWAP1 POP SWAP2 SWAP1 POP JUMP JUMPDEST PUSH1 0x0 DUP2 SWAP1 POP SWAP2 SWAP1 POP JUMP JUMPDEST PUSH1 0x0 JUMPDEST DUP4 DUP2 LT ISZERO PUSH3 0x44E JUMPI DUP1 DUP3 ADD MLOAD DUP2 DUP5 ADD MSTORE PUSH1 0x20 DUP2 ADD SWAP1 POP PUSH3 0x431 JUMP JUMPDEST DUP4 DUP2 GT ISZERO PUSH3 0x45E JUMPI PUSH1 0x0 DUP5 DUP5 ADD MSTORE JUMPDEST POP POP POP POP JUMP JUMPDEST PUSH1 0x0 PUSH1 0x2 DUP3 DIV SWAP1 POP PUSH1 0x1 DUP3 AND DUP1 PUSH3 0x47D JUMPI PUSH1 0x7F DUP3 AND SWAP2 POP JUMPDEST PUSH1 0x20 DUP3 LT DUP2 EQ ISZERO PUSH3 0x494 JUMPI PUSH3 0x493 PUSH3 0x4D0 JUMP JUMPDEST JUMPDEST POP SWAP2 SWAP1 POP JUMP JUMPDEST PUSH3 0x4A5 DUP3 PUSH3 0x542 JUMP JUMPDEST DUP2 ADD DUP2 DUP2 LT PUSH8 0xFFFFFFFFFFFFFFFF DUP3 GT OR ISZERO PUSH3 0x4C7 JUMPI PUSH3 0x4C6 PUSH3 0x4FF JUMP JUMPDEST JUMPDEST DUP1 PUSH1 0x40 MSTORE POP POP POP JUMP JUMPDEST PUSH32 0x4E487B7100000000000000000000000000000000000000000000000000000000 PUSH1 0x0 MSTORE PUSH1 0x22 PUSH1 0x4 MSTORE PUSH1 0x24 PUSH1 0x0 REVERT JUMPDEST PUSH32 0x4E487B7100000000000000000000000000000000000000000000000000000000 PUSH1 0x0 MSTORE PUSH1 0x41 PUSH1 0x4 MSTORE PUSH1 0x24 PUSH1 0x0 REVERT JUMPDEST PUSH1 0x0 DUP1 REVERT JUMPDEST PUSH1 0x0 DUP1 REVERT JUMPDEST PUSH1 0x0 DUP1 REVERT JUMPDEST PUSH1 0x0 DUP1 REVERT JUMPDEST PUSH1 0x0 PUSH1 0x1F NOT PUSH1 0x1F DUP4 ADD AND SWAP1 POP SWAP2 SWAP1 POP JUMP JUMPDEST PUSH3 0x55E DUP2 PUSH3 0x3E4 JUMP JUMPDEST DUP2 EQ PUSH3 0x56A JUMPI PUSH1 0x0 DUP1 REVERT JUMPDEST POP JUMP JUMPDEST PUSH3 0x578 DUP2 PUSH3 0x3F8 JUMP JUMPDEST DUP2 EQ PUSH3 0x584 JUMPI PUSH1 0x0 DUP1 REVERT JUMPDEST POP JUMP JUMPDEST PUSH3 0x592 DUP2 PUSH3 0x424 JUMP JUMPDEST DUP2 EQ PUSH3 0x59E JUMPI PUSH1 0x0 DUP1 REVERT JUMPDEST POP JUMP JUMPDEST PUSH2 0xA5C DUP1 PUSH3 0x5B1 PUSH1 0x0 CODECOPY PUSH1 0x0 RETURN INVALID PUSH1 0x80 PUSH1 0x40 MSTORE PUSH1 0x4 CALLDATASIZE LT PUSH2 0x3F JUMPI PUSH1 0x0 CALLDATALOAD PUSH1 0xE0 SHR DUP1 PUSH4 0x485F4767 EQ PUSH2 0x44 JUMPI DUP1 PUSH4 0x5E375475 EQ PUSH2 0x6D JUMPI DUP1 PUSH4 0xA6F9DAE1 EQ PUSH2 0x96 JUMPI DUP1 PUSH4 0xFBBF93A0 EQ PUSH2 0xB2 JUMPI JUMPDEST PUSH1 0x0 DUP1 REVERT JUMPDEST CALLVALUE DUP1 ISZERO PUSH2 0x50 JUMPI PUSH1 0x0 DUP1 REVERT JUMPDEST POP PUSH2 0x6B PUSH1 0x4 DUP1 CALLDATASIZE SUB DUP2 ADD SWAP1 PUSH2 0x66 SWAP2 SWAP1 PUSH2 0x67A JUMP JUMPDEST PUSH2 0xE4 JUMP JUMPDEST STOP JUMPDEST CALLVALUE DUP1 ISZERO PUSH2 0x79 JUMPI PUSH1 0x0 DUP1 REVERT JUMPDEST POP PUSH2 0x94 PUSH1 0x4 DUP1 CALLDATASIZE SUB DUP2 ADD SWAP1 PUSH2 0x8F SWAP2 SWAP1 PUSH2 0x63A JUMP JUMPDEST PUSH2 0x17F JUMP JUMPDEST STOP JUMPDEST PUSH2 0xB0 PUSH1 0x4 DUP1 CALLDATASIZE SUB DUP2 ADD SWAP1 PUSH2 0xAB SWAP2 SWAP1 PUSH2 0x60D JUMP JUMPDEST PUSH2 0x22D JUMP JUMPDEST STOP JUMPDEST CALLVALUE DUP1 ISZERO PUSH2 0xBE JUMPI PUSH1 0x0 DUP1 REVERT JUMPDEST POP PUSH2 0xC7 PUSH2 0x46D JUMP JUMPDEST PUSH1 0x40 MLOAD PUSH2 0xDB SWAP9 SWAP8 SWAP7 SWAP6 SWAP5 SWAP4 SWAP3 SWAP2 SWAP1 PUSH2 0x7CF JUMP JUMPDEST PUSH1 0x40 MLOAD DUP1 SWAP2 SUB SWAP1 RETURN JUMPDEST DUP1 PUSH1 0x0 DUP1 SLOAD SWAP1 PUSH2 0x100 EXP SWAP1 DIV PUSH20 0xFFFFFFFFFFFFFFFFFFFFFFFFFFFFFFFFFFFFFFFF AND PUSH20 0xFFFFFFFFFFFFFFFFFFFFFFFFFFFFFFFFFFFFFFFF AND DUP2 PUSH20 0xFFFFFFFFFFFFFFFFFFFFFFFFFFFFFFFFFFFFFFFF AND EQ PUSH2 0x173 JUMPI PUSH1 0x40 MLOAD PUSH32 0x8C379A000000000000000000000000000000000000000000000000000000000 DUP2 MSTORE PUSH1 0x4 ADD PUSH2 0x16A SWAP1 PUSH2 0x78F JUMP JUMPDEST PUSH1 0x40 MLOAD DUP1 SWAP2 SUB SWAP1 REVERT JUMPDEST DUP3 PUSH1 0x8 DUP2 SWAP1 SSTORE POP POP POP POP JUMP JUMPDEST DUP1 PUSH1 0x0 DUP1 SLOAD SWAP1 PUSH2 0x100 EXP SWAP1 DIV PUSH20 0xFFFFFFFFFFFFFFFFFFFFFFFFFFFFFFFFFFFFFFFF AND PUSH20 0xFFFFFFFFFFFFFFFFFFFFFFFFFFFFFFFFFFFFFFFF AND DUP2 PUSH20 0xFFFFFFFFFFFFFFFFFFFFFFFFFFFFFFFFFFFFFFFF AND EQ PUSH2 0x20E JUMPI PUSH1 0x40 MLOAD PUSH32 0x8C379A000000000000000000000000000000000000000000000000000000000 DUP2 MSTORE PUSH1 0x4 ADD PUSH2 0x205 SWAP1 PUSH2 0x78F JUMP JUMPDEST PUSH1 0x40 MLOAD DUP1 SWAP2 SUB SWAP1 REVERT JUMPDEST DUP3 PUSH1 0x7 PUSH1 0x0 PUSH2 0x100 EXP DUP2 SLOAD DUP2 PUSH1 0xFF MUL NOT AND SWAP1 DUP4 ISZERO ISZERO MUL OR SWAP1 SSTORE POP POP POP POP JUMP JUMPDEST PUSH1 0x1 ISZERO ISZERO PUSH1 0x7 PUSH1 0x0 SWAP1 SLOAD SWAP1 PUSH2 0x100 EXP SWAP1 DIV PUSH1 0xFF AND ISZERO ISZERO EQ PUSH2 0x24D JUMPI PUSH1 0x0 DUP1 REVERT JUMPDEST PUSH1 0x8 SLOAD CALLVALUE LT ISZERO PUSH2 0x2D9 JUMPI DUP1 PUSH20 0xFFFFFFFFFFFFFFFFFFFFFFFFFFFFFFFFFFFFFFFF AND PUSH2 0x8FC CALLVALUE SWAP1 DUP2 ISZERO MUL SWAP1 PUSH1 0x40 MLOAD PUSH1 0x0 PUSH1 0x40 MLOAD DUP1 DUP4 SUB DUP2 DUP6 DUP9 DUP9 CALL SWAP4 POP POP POP POP ISZERO DUP1 ISZERO PUSH2 0x29D JUMPI RETURNDATASIZE PUSH1 0x0 DUP1 RETURNDATACOPY RETURNDATASIZE PUSH1 0x0 REVERT JUMPDEST POP PUSH1 0x40 MLOAD PUSH32 0x8C379A000000000000000000000000000000000000000000000000000000000 DUP2 MSTORE PUSH1 0x4 ADD PUSH2 0x2D0 SWAP1 PUSH2 0x7AF JUMP JUMPDEST PUSH1 0x40 MLOAD DUP1 SWAP2 SUB SWAP1 REVERT JUMPDEST PUSH1 0x0 DUP1 SLOAD SWAP1 PUSH2 0x100 EXP SWAP1 DIV PUSH20 0xFFFFFFFFFFFFFFFFFFFFFFFFFFFFFFFFFFFFFFFF AND PUSH20 0xFFFFFFFFFFFFFFFFFFFFFFFFFFFFFFFFFFFFFFFF AND PUSH2 0x8FC CALLVALUE SWAP1 DUP2 ISZERO MUL SWAP1 PUSH1 0x40 MLOAD PUSH1 0x0 PUSH1 0x40 MLOAD DUP1 DUP4 SUB DUP2 DUP6 DUP9 DUP9 CALL SWAP4 POP POP POP POP ISZERO DUP1 ISZERO PUSH2 0x33F JUMPI RETURNDATASIZE PUSH1 0x0 DUP1 RETURNDATACOPY RETURNDATASIZE PUSH1 0x0 REVERT JUMPDEST POP PUSH1 0x0 DUP1 SLOAD SWAP1 PUSH2 0x100 EXP SWAP1 DIV PUSH20 0xFFFFFFFFFFFFFFFFFFFFFFFFFFFFFFFFFFFFFFFF AND PUSH1 0xA PUSH1 0x0 PUSH2 0x100 EXP DUP2 SLOAD DUP2 PUSH20 0xFFFFFFFFFFFFFFFFFFFFFFFFFFFFFFFFFFFFFFFF MUL NOT AND SWAP1 DUP4 PUSH20 0xFFFFFFFFFFFFFFFFFFFFFFFFFFFFFFFFFFFFFFFF AND MUL OR SWAP1 SSTORE POP DUP1 PUSH1 0x0 DUP1 PUSH2 0x100 EXP DUP2 SLOAD DUP2 PUSH20 0xFFFFFFFFFFFFFFFFFFFFFFFFFFFFFFFFFFFFFFFF MUL NOT AND SWAP1 DUP4 PUSH20 0xFFFFFFFFFFFFFFFFFFFFFFFFFFFFFFFFFFFFFFFF AND MUL OR SWAP1 SSTORE POP PUSH1 0x0 PUSH1 0x7 PUSH1 0x0 PUSH2 0x100 EXP DUP2 SLOAD DUP2 PUSH1 0xFF MUL NOT AND SWAP1 DUP4 ISZERO ISZERO MUL OR SWAP1 SSTORE POP PUSH1 0x8 SLOAD PUSH1 0x9 DUP2 SWAP1 SSTORE POP PUSH1 0x0 PUSH1 0x8 DUP2 SWAP1 SSTORE POP PUSH32 0x4DC7E7DCEE44619D786319FC36FDAFAE2D190C6BC41A6110BCB967A6B10FFA52 PUSH1 0xA PUSH1 0x0 SWAP1 SLOAD SWAP1 PUSH2 0x100 EXP SWAP1 DIV PUSH20 0xFFFFFFFFFFFFFFFFFFFFFFFFFFFFFFFFFFFFFFFF AND PUSH1 0x9 SLOAD PUSH1 0x40 MLOAD PUSH2 0x462 SWAP3 SWAP2 SWAP1 PUSH2 0x766 JUMP JUMPDEST PUSH1 0x40 MLOAD DUP1 SWAP2 SUB SWAP1 LOG1 POP JUMP JUMPDEST PUSH1 0x0 DUP1 PUSH1 0x0 DUP1 PUSH1 0x60 DUP1 PUSH1 0x0 DUP1 PUSH1 0x1 SLOAD PUSH1 0x2 SLOAD PUSH1 0x4 SLOAD PUSH1 0x3 SLOAD PUSH1 0x5 PUSH1 0x6 PUSH1 0x7 PUSH1 0x0 SWAP1 SLOAD SWAP1 PUSH2 0x100 EXP SWAP1 DIV PUSH1 0xFF AND PUSH1 0x8 SLOAD DUP4 DUP1 SLOAD PUSH2 0x4A8 SWAP1 PUSH2 0x8F2 JUMP JUMPDEST DUP1 PUSH1 0x1F ADD PUSH1 0x20 DUP1 SWAP2 DIV MUL PUSH1 0x20 ADD PUSH1 0x40 MLOAD SWAP1 DUP2 ADD PUSH1 0x40 MSTORE DUP1 SWAP3 SWAP2 SWAP1 DUP2 DUP2 MSTORE PUSH1 0x20 ADD DUP3 DUP1 SLOAD PUSH2 0x4D4 SWAP1 PUSH2 0x8F2 JUMP JUMPDEST DUP1 ISZERO PUSH2 0x521 JUMPI DUP1 PUSH1 0x1F LT PUSH2 0x4F6 JUMPI PUSH2 0x100 DUP1 DUP4 SLOAD DIV MUL DUP4 MSTORE SWAP2 PUSH1 0x20 ADD SWAP2 PUSH2 0x521 JUMP JUMPDEST DUP3 ADD SWAP2 SWAP1 PUSH1 0x0 MSTORE PUSH1 0x20 PUSH1 0x0 KECCAK256 SWAP1 JUMPDEST DUP2 SLOAD DUP2 MSTORE SWAP1 PUSH1 0x1 ADD SWAP1 PUSH1 0x20 ADD DUP1 DUP4 GT PUSH2 0x504 JUMPI DUP3 SWAP1 SUB PUSH1 0x1F AND DUP3 ADD SWAP2 JUMPDEST POP POP POP POP POP SWAP4 POP DUP3 DUP1 SLOAD PUSH2 0x534 SWAP1 PUSH2 0x8F2 JUMP JUMPDEST DUP1 PUSH1 0x1F ADD PUSH1 0x20 DUP1 SWAP2 DIV MUL PUSH1 0x20 ADD PUSH1 0x40 MLOAD SWAP1 DUP2 ADD PUSH1 0x40 MSTORE DUP1 SWAP3 SWAP2 SWAP1 DUP2 DUP2 MSTORE PUSH1 0x20 ADD DUP3 DUP1 SLOAD PUSH2 0x560 SWAP1 PUSH2 0x8F2 JUMP JUMPDEST DUP1 ISZERO PUSH2 0x5AD JUMPI DUP1 PUSH1 0x1F LT PUSH2 0x582 JUMPI PUSH2 0x100 DUP1 DUP4 SLOAD DIV MUL DUP4 MSTORE SWAP2 PUSH1 0x20 ADD SWAP2 PUSH2 0x5AD JUMP JUMPDEST DUP3 ADD SWAP2 SWAP1 PUSH1 0x0 MSTORE PUSH1 0x20 PUSH1 0x0 KECCAK256 SWAP1 JUMPDEST DUP2 SLOAD DUP2 MSTORE SWAP1 PUSH1 0x1 ADD SWAP1 PUSH1 0x20 ADD DUP1 DUP4 GT PUSH2 0x590 JUMPI DUP3 SWAP1 SUB PUSH1 0x1F AND DUP3 ADD SWAP2 JUMPDEST POP POP POP POP POP SWAP3 POP SWAP8 POP SWAP8 POP SWAP8 POP SWAP8 POP SWAP8 POP SWAP8 POP SWAP8 POP SWAP8 POP SWAP1 SWAP2 SWAP3 SWAP4 SWAP5 SWAP6 SWAP7 SWAP8 JUMP JUMPDEST PUSH1 0x0 DUP2 CALLDATALOAD SWAP1 POP PUSH2 0x5DD DUP2 PUSH2 0x9E1 JUMP JUMPDEST SWAP3 SWAP2 POP POP JUMP JUMPDEST PUSH1 0x0 DUP2 CALLDATALOAD SWAP1 POP PUSH2 0x5F2 DUP2 PUSH2 0x9F8 JUMP JUMPDEST SWAP3 SWAP2 POP POP JUMP JUMPDEST PUSH1 0x0 DUP2 CALLDATALOAD SWAP1 POP PUSH2 0x607 DUP2 PUSH2 0xA0F JUMP JUMPDEST SWAP3 SWAP2 POP POP JUMP JUMPDEST PUSH1 0x0 PUSH1 0x20 DUP3 DUP5 SUB SLT ISZERO PUSH2 0x623 JUMPI PUSH2 0x622 PUSH2 0x953 JUMP JUMPDEST JUMPDEST PUSH1 0x0 PUSH2 0x631 DUP5 DUP3 DUP6 ADD PUSH2 0x5CE JUMP JUMPDEST SWAP2 POP POP SWAP3 SWAP2 POP POP JUMP JUMPDEST PUSH1 0x0 DUP1 PUSH1 0x40 DUP4 DUP6 SUB SLT ISZERO PUSH2 0x651 JUMPI PUSH2 0x650 PUSH2 0x953 JUMP JUMPDEST JUMPDEST PUSH1 0x0 PUSH2 0x65F DUP6 DUP3 DUP7 ADD PUSH2 0x5E3 JUMP JUMPDEST SWAP3 POP POP PUSH1 0x20 PUSH2 0x670 DUP6 DUP3 DUP7 ADD PUSH2 0x5CE JUMP JUMPDEST SWAP2 POP POP SWAP3 POP SWAP3 SWAP1 POP JUMP JUMPDEST PUSH1 0x0 DUP1 PUSH1 0x40 DUP4 DUP6 SUB SLT ISZERO PUSH2 0x691 JUMPI PUSH2 0x690 PUSH2 0x953 JUMP JUMPDEST JUMPDEST PUSH1 0x0 PUSH2 0x69F DUP6 DUP3 DUP7 ADD PUSH2 0x5F8 JUMP JUMPDEST SWAP3 POP POP PUSH1 0x20 PUSH2 0x6B0 DUP6 DUP3 DUP7 ADD PUSH2 0x5CE JUMP JUMPDEST SWAP2 POP POP SWAP3 POP SWAP3 SWAP1 POP JUMP JUMPDEST PUSH2 0x6C3 DUP2 PUSH2 0x877 JUMP JUMPDEST DUP3 MSTORE POP POP JUMP JUMPDEST PUSH2 0x6D2 DUP2 PUSH2 0x889 JUMP JUMPDEST DUP3 MSTORE POP POP JUMP JUMPDEST PUSH1 0x0 PUSH2 0x6E3 DUP3 PUSH2 0x85B JUMP JUMPDEST PUSH2 0x6ED DUP2 DUP6 PUSH2 0x866 JUMP JUMPDEST SWAP4 POP PUSH2 0x6FD DUP2 DUP6 PUSH1 0x20 DUP7 ADD PUSH2 0x8BF JUMP JUMPDEST PUSH2 0x706 DUP2 PUSH2 0x958 JUMP JUMPDEST DUP5 ADD SWAP2 POP POP SWAP3 SWAP2 POP POP JUMP JUMPDEST PUSH1 0x0 PUSH2 0x71E PUSH1 0x25 DUP4 PUSH2 0x866 JUMP JUMPDEST SWAP2 POP PUSH2 0x729 DUP3 PUSH2 0x969 JUMP JUMPDEST PUSH1 0x40 DUP3 ADD SWAP1 POP SWAP2 SWAP1 POP JUMP JUMPDEST PUSH1 0x0 PUSH2 0x741 PUSH1 0x19 DUP4 PUSH2 0x866 JUMP JUMPDEST SWAP2 POP PUSH2 0x74C DUP3 PUSH2 0x9B8 JUMP JUMPDEST PUSH1 0x20 DUP3 ADD SWAP1 POP SWAP2 SWAP1 POP JUMP JUMPDEST PUSH2 0x760 DUP2 PUSH2 0x8B5 JUMP JUMPDEST DUP3 MSTORE POP POP JUMP JUMPDEST PUSH1 0x0 PUSH1 0x40 DUP3 ADD SWAP1 POP PUSH2 0x77B PUSH1 0x0 DUP4 ADD DUP6 PUSH2 0x6BA JUMP JUMPDEST PUSH2 0x788 PUSH1 0x20 DUP4 ADD DUP5 PUSH2 0x757 JUMP JUMPDEST SWAP4 SWAP3 POP POP POP JUMP JUMPDEST PUSH1 0x0 PUSH1 0x20 DUP3 ADD SWAP1 POP DUP2 DUP2 SUB PUSH1 0x0 DUP4 ADD MSTORE PUSH2 0x7A8 DUP2 PUSH2 0x711 JUMP JUMPDEST SWAP1 POP SWAP2 SWAP1 POP JUMP JUMPDEST PUSH1 0x0 PUSH1 0x20 DUP3 ADD SWAP1 POP DUP2 DUP2 SUB PUSH1 0x0 DUP4 ADD MSTORE PUSH2 0x7C8 DUP2 PUSH2 0x734 JUMP JUMPDEST SWAP1 POP SWAP2 SWAP1 POP JUMP JUMPDEST PUSH1 0x0 PUSH2 0x100 DUP3 ADD SWAP1 POP PUSH2 0x7E5 PUSH1 0x0 DUP4 ADD DUP12 PUSH2 0x757 JUMP JUMPDEST PUSH2 0x7F2 PUSH1 0x20 DUP4 ADD DUP11 PUSH2 0x757 JUMP JUMPDEST PUSH2 0x7FF PUSH1 0x40 DUP4 ADD DUP10 PUSH2 0x757 JUMP JUMPDEST PUSH2 0x80C PUSH1 0x60 DUP4 ADD DUP9 PUSH2 0x757 JUMP JUMPDEST DUP2 DUP2 SUB PUSH1 0x80 DUP4 ADD MSTORE PUSH2 0x81E DUP2 DUP8 PUSH2 0x6D8 JUMP JUMPDEST SWAP1 POP DUP2 DUP2 SUB PUSH1 0xA0 DUP4 ADD MSTORE PUSH2 0x832 DUP2 DUP7 PUSH2 0x6D8 JUMP JUMPDEST SWAP1 POP PUSH2 0x841 PUSH1 0xC0 DUP4 ADD DUP6 PUSH2 0x6C9 JUMP JUMPDEST PUSH2 0x84E PUSH1 0xE0 DUP4 ADD DUP5 PUSH2 0x757 JUMP JUMPDEST SWAP10 SWAP9 POP POP POP POP POP POP POP POP POP JUMP JUMPDEST PUSH1 0x0 DUP2 MLOAD SWAP1 POP SWAP2 SWAP1 POP JUMP JUMPDEST PUSH1 0x0 DUP3 DUP3 MSTORE PUSH1 0x20 DUP3 ADD SWAP1 POP SWAP3 SWAP2 POP POP JUMP JUMPDEST PUSH1 0x0 PUSH2 0x882 DUP3 PUSH2 0x895 JUMP JUMPDEST SWAP1 POP SWAP2 SWAP1 POP JUMP JUMPDEST PUSH1 0x0 DUP2 ISZERO ISZERO SWAP1 POP SWAP2 SWAP1 POP JUMP JUMPDEST PUSH1 0x0 PUSH20 0xFFFFFFFFFFFFFFFFFFFFFFFFFFFFFFFFFFFFFFFF DUP3 AND SWAP1 POP SWAP2 SWAP1 POP JUMP JUMPDEST PUSH1 0x0 DUP2 SWAP1 POP SWAP2 SWAP1 POP JUMP JUMPDEST PUSH1 0x0 JUMPDEST DUP4 DUP2 LT ISZERO PUSH2 0x8DD JUMPI DUP1 DUP3 ADD MLOAD DUP2 DUP5 ADD MSTORE PUSH1 0x20 DUP2 ADD SWAP1 POP PUSH2 0x8C2 JUMP JUMPDEST DUP4 DUP2 GT ISZERO PUSH2 0x8EC JUMPI PUSH1 0x0 DUP5 DUP5 ADD MSTORE JUMPDEST POP POP POP POP JUMP JUMPDEST PUSH1 0x0 PUSH1 0x2 DUP3 DIV SWAP1 POP PUSH1 0x1 DUP3 AND DUP1 PUSH2 0x90A JUMPI PUSH1 0x7F DUP3 AND SWAP2 POP JUMPDEST PUSH1 0x20 DUP3 LT DUP2 EQ ISZERO PUSH2 0x91E JUMPI PUSH2 0x91D PUSH2 0x924 JUMP JUMPDEST JUMPDEST POP SWAP2 SWAP1 POP JUMP JUMPDEST PUSH32 0x4E487B7100000000000000000000000000000000000000000000000000000000 PUSH1 0x0 MSTORE PUSH1 0x22 PUSH1 0x4 MSTORE PUSH1 0x24 PUSH1 0x0 REVERT JUMPDEST PUSH1 0x0 DUP1 REVERT JUMPDEST PUSH1 0x0 PUSH1 0x1F NOT PUSH1 0x1F DUP4 ADD AND SWAP1 POP SWAP2 SWAP1 POP JUMP JUMPDEST PUSH32 0x4F6E6C7920746865206F776E65722063616E2063616C6C20746869732066756E PUSH1 0x0 DUP3 ADD MSTORE PUSH32 0x6374696F6E000000000000000000000000000000000000000000000000000000 PUSH1 0x20 DUP3 ADD MSTORE POP JUMP JUMPDEST PUSH32 0x4E6F7420656E6F756768206574686572207761732073656E7400000000000000 PUSH1 0x0 DUP3 ADD MSTORE POP JUMP JUMPDEST PUSH2 0x9EA DUP2 PUSH2 0x877 JUMP JUMPDEST DUP2 EQ PUSH2 0x9F5 JUMPI PUSH1 0x0 DUP1 REVERT JUMPDEST POP JUMP JUMPDEST PUSH2 0xA01 DUP2 PUSH2 0x889 JUMP JUMPDEST DUP2 EQ PUSH2 0xA0C JUMPI PUSH1 0x0 DUP1 REVERT JUMPDEST POP JUMP JUMPDEST PUSH2 0xA18 DUP2 PUSH2 0x8B5 JUMP JUMPDEST DUP2 EQ PUSH2 0xA23 JUMPI PUSH1 0x0 DUP1 REVERT JUMPDEST POP JUMP INVALID LOG2 PUSH5 0x6970667358 0x22 SLT KECCAK256 0x2F PUSH6 0xE0D696088925 JUMPDEST PUSH10 0x76864AFBA984D7BA89D1 MUL CALLCODE 0xD7 LOG1 0x27 PUSH13 0x69B9A7D7EB6F64736F6C634300 ADDMOD SMOD STOP CALLER LOG2 PUSH5 0x6970667358 0x22 SLT KECCAK256 0x24 SWAP6 0xFB 0xC8 SGT 0xC8 MSTORE8 ADDRESS KECCAK256 0xEA SWAP1 0xB7 CALLVALUE PUSH18 0x169A01F5B62111762D926EECEF3A70876859 PUSH5 0x736F6C6343 STOP ADDMOD SMOD STOP CALLER "
        },
        "methodIdentifiers": {
          "AddFlat(uint256,uint256,uint256,string,string,bool,uint256)": "0234333e",
          "AddHouse(uint256,uint256,uint256,uint256,string,string,bool,uint256)": "c2937025",
          "buyFlat(uint256)": "1f34486f",
          "houses(uint256)": "aeda852f",
          "owner()": "8da5cb5b"
        }
      }
    }
  }
}