{
  "_format": "hh-sol-artifact-1",
  "contractName": "House",
  "sourceName": "contracts/House.sol",
  "abi": [
    {
      "inputs": [
        {
          "internalType": "uint256",
          "name": "_bedrooms",
          "type": "uint256"
        },
        {
          "internalType": "uint256",
          "name": "_bathrooms",
          "type": "uint256"
        },
        {
          "internalType": "uint256",
          "name": "_sqrFootLand",
          "type": "uint256"
        },
        {
          "internalType": "uint256",
          "name": "_floors",
          "type": "uint256"
        },
        {
          "internalType": "string",
          "name": "_country",
          "type": "string"
        },
        {
          "internalType": "string",
          "name": "_city",
          "type": "string"
        },
        {
          "internalType": "bool",
          "name": "_forSale",
          "type": "bool"
        },
        {
          "internalType": "uint256",
          "name": "_price",
          "type": "uint256"
        },
        {
          "internalType": "address",
          "name": "_owner",
          "type": "address"
        }
      ],
      "stateMutability": "nonpayable",
      "type": "constructor"
    },
    {
      "anonymous": false,
      "inputs": [
        {
          "indexed": false,
          "internalType": "address",
          "name": "lastOwner",
          "type": "address"
        },
        {
          "indexed": false,
          "internalType": "uint256",
          "name": "soldPrice",
          "type": "uint256"
        }
      ],
      "name": "ChangedOwner",
      "type": "event"
    },
    {
      "inputs": [
        {
          "internalType": "address",
          "name": "_caller",
          "type": "address"
        }
      ],
      "name": "changeOwner",
      "outputs": [],
      "stateMutability": "payable",
      "type": "function"
    },
    {
      "inputs": [],
      "name": "getDetails",
      "outputs": [
        {
          "internalType": "uint256",
          "name": "",
          "type": "uint256"
        },
        {
          "internalType": "uint256",
          "name": "",
          "type": "uint256"
        },
        {
          "internalType": "uint256",
          "name": "",
          "type": "uint256"
        },
        {
          "internalType": "uint256",
          "name": "",
          "type": "uint256"
        },
        {
          "internalType": "string",
          "name": "",
          "type": "string"
        },
        {
          "internalType": "string",
          "name": "",
          "type": "string"
        },
        {
          "internalType": "bool",
          "name": "",
          "type": "bool"
        },
        {
          "internalType": "uint256",
          "name": "",
          "type": "uint256"
        }
      ],
      "stateMutability": "view",
      "type": "function"
    },
    {
      "inputs": [
        {
          "internalType": "uint256",
          "name": "_newPrice",
          "type": "uint256"
        },
        {
          "internalType": "address",
          "name": "_caller",
          "type": "address"
        }
      ],
      "name": "setPrice",
      "outputs": [],
      "stateMutability": "nonpayable",
      "type": "function"
    },
    {
      "inputs": [
        {
          "internalType": "bool",
          "name": "_state",
          "type": "bool"
        },
        {
          "internalType": "address",
          "name": "_caller",
          "type": "address"
        }
      ],
      "name": "setSaleState",
      "outputs": [],
      "stateMutability": "nonpayable",
      "type": "function"
    }
  ],
  "bytecode": "0x60806040523480156200001157600080fd5b506040516200100d3803806200100d833981810160405281019062000037919062000268565b806000806101000a81548173ffffffffffffffffffffffffffffffffffffffff021916908373ffffffffffffffffffffffffffffffffffffffff160217905550886001819055508760028190555086600381905550856004819055508460059080519060200190620000ab929190620000f5565b508360069080519060200190620000c4929190620000f5565b5082600760006101000a81548160ff02191690831515021790555081600881905550505050505050505050620005a1565b828054620001039062000464565b90600052602060002090601f01602090048101928262000127576000855562000173565b82601f106200014257805160ff191683800117855562000173565b8280016001018555821562000173579182015b828111156200017257825182559160200191906001019062000155565b5b50905062000182919062000186565b5090565b5b80821115620001a157600081600090555060010162000187565b5090565b6000620001bc620001b684620003ae565b62000385565b905082815260208101848484011115620001db57620001da62000533565b5b620001e88482856200042e565b509392505050565b600081519050620002018162000553565b92915050565b60008151905062000218816200056d565b92915050565b600082601f8301126200023657620002356200052e565b5b815162000248848260208601620001a5565b91505092915050565b600081519050620002628162000587565b92915050565b60008060008060008060008060006101208a8c0312156200028e576200028d6200053d565b5b60006200029e8c828d0162000251565b9950506020620002b18c828d0162000251565b9850506040620002c48c828d0162000251565b9750506060620002d78c828d0162000251565b96505060808a015167ffffffffffffffff811115620002fb57620002fa62000538565b5b620003098c828d016200021e565b95505060a08a015167ffffffffffffffff8111156200032d576200032c62000538565b5b6200033b8c828d016200021e565b94505060c06200034e8c828d0162000207565b93505060e0620003618c828d0162000251565b925050610100620003758c828d01620001f0565b9150509295985092959850929598565b600062000391620003a4565b90506200039f82826200049a565b919050565b6000604051905090565b600067ffffffffffffffff821115620003cc57620003cb620004ff565b5b620003d78262000542565b9050602081019050919050565b6000620003f18262000404565b9050919050565b60008115159050919050565b600073ffffffffffffffffffffffffffffffffffffffff82169050919050565b6000819050919050565b60005b838110156200044e57808201518184015260208101905062000431565b838111156200045e576000848401525b50505050565b600060028204905060018216806200047d57607f821691505b60208210811415620004945762000493620004d0565b5b50919050565b620004a58262000542565b810181811067ffffffffffffffff82111715620004c757620004c6620004ff565b5b80604052505050565b7f4e487b7100000000000000000000000000000000000000000000000000000000600052602260045260246000fd5b7f4e487b7100000000000000000000000000000000000000000000000000000000600052604160045260246000fd5b600080fd5b600080fd5b600080fd5b600080fd5b6000601f19601f8301169050919050565b6200055e81620003e4565b81146200056a57600080fd5b50565b6200057881620003f8565b81146200058457600080fd5b50565b620005928162000424565b81146200059e57600080fd5b50565b610a5c80620005b16000396000f3fe60806040526004361061003f5760003560e01c8063485f4767146100445780635e3754751461006d578063a6f9dae114610096578063fbbf93a0146100b2575b600080fd5b34801561005057600080fd5b5061006b6004803603810190610066919061067a565b6100e4565b005b34801561007957600080fd5b50610094600480360381019061008f919061063a565b61017f565b005b6100b060048036038101906100ab919061060d565b61022d565b005b3480156100be57600080fd5b506100c761046d565b6040516100db9897969594939291906107cf565b60405180910390f35b8060008054906101000a900473ffffffffffffffffffffffffffffffffffffffff1673ffffffffffffffffffffffffffffffffffffffff168173ffffffffffffffffffffffffffffffffffffffff1614610173576040517f08c379a000000000000000000000000000000000000000000000000000000000815260040161016a9061078f565b60405180910390fd5b82600881905550505050565b8060008054906101000a900473ffffffffffffffffffffffffffffffffffffffff1673ffffffffffffffffffffffffffffffffffffffff168173ffffffffffffffffffffffffffffffffffffffff161461020e576040517f08c379a00000000000000000000000000000000000000000000000000000000081526004016102059061078f565b60405180910390fd5b82600760006101000a81548160ff021916908315150217905550505050565b60011515600760009054906101000a900460ff1615151461024d57600080fd5b6008543410156102d9578073ffffffffffffffffffffffffffffffffffffffff166108fc349081150290604051600060405180830381858888f1935050505015801561029d573d6000803e3d6000fd5b506040517f08c379a00000000000000000000000000000000000000000000000000000000081526004016102d0906107af565b60405180910390fd5b60008054906101000a900473ffffffffffffffffffffffffffffffffffffffff1673ffffffffffffffffffffffffffffffffffffffff166108fc349081150290604051600060405180830381858888f1935050505015801561033f573d6000803e3d6000fd5b5060008054906101000a900473ffffffffffffffffffffffffffffffffffffffff16600a60006101000a81548173ffffffffffffffffffffffffffffffffffffffff021916908373ffffffffffffffffffffffffffffffffffffffff160217905550806000806101000a81548173ffffffffffffffffffffffffffffffffffffffff021916908373ffffffffffffffffffffffffffffffffffffffff1602179055506000600760006101000a81548160ff02191690831515021790555060085460098190555060006008819055507f4dc7e7dcee44619d786319fc36fdafae2d190c6bc41a6110bcb967a6b10ffa52600a60009054906101000a900473ffffffffffffffffffffffffffffffffffffffff16600954604051610462929190610766565b60405180910390a150565b60008060008060608060008060015460025460045460035460056006600760009054906101000a900460ff166008548380546104a8906108f2565b80601f01602080910402602001604051908101604052809291908181526020018280546104d4906108f2565b80156105215780601f106104f657610100808354040283529160200191610521565b820191906000526020600020905b81548152906001019060200180831161050457829003601f168201915b50505050509350828054610534906108f2565b80601f0160208091040260200160405190810160405280929190818152602001828054610560906108f2565b80156105ad5780601f10610582576101008083540402835291602001916105ad565b820191906000526020600020905b81548152906001019060200180831161059057829003601f168201915b50505050509250975097509750975097509750975097509091929394959697565b6000813590506105dd816109e1565b92915050565b6000813590506105f2816109f8565b92915050565b60008135905061060781610a0f565b92915050565b60006020828403121561062357610622610953565b5b6000610631848285016105ce565b91505092915050565b6000806040838503121561065157610650610953565b5b600061065f858286016105e3565b9250506020610670858286016105ce565b9150509250929050565b6000806040838503121561069157610690610953565b5b600061069f858286016105f8565b92505060206106b0858286016105ce565b9150509250929050565b6106c381610877565b82525050565b6106d281610889565b82525050565b60006106e38261085b565b6106ed8185610866565b93506106fd8185602086016108bf565b61070681610958565b840191505092915050565b600061071e602583610866565b915061072982610969565b604082019050919050565b6000610741601983610866565b915061074c826109b8565b602082019050919050565b610760816108b5565b82525050565b600060408201905061077b60008301856106ba565b6107886020830184610757565b9392505050565b600060208201905081810360008301526107a881610711565b9050919050565b600060208201905081810360008301526107c881610734565b9050919050565b6000610100820190506107e5600083018b610757565b6107f2602083018a610757565b6107ff6040830189610757565b61080c6060830188610757565b818103608083015261081e81876106d8565b905081810360a083015261083281866106d8565b905061084160c08301856106c9565b61084e60e0830184610757565b9998505050505050505050565b600081519050919050565b600082825260208201905092915050565b600061088282610895565b9050919050565b60008115159050919050565b600073ffffffffffffffffffffffffffffffffffffffff82169050919050565b6000819050919050565b60005b838110156108dd5780820151818401526020810190506108c2565b838111156108ec576000848401525b50505050565b6000600282049050600182168061090a57607f821691505b6020821081141561091e5761091d610924565b5b50919050565b7f4e487b7100000000000000000000000000000000000000000000000000000000600052602260045260246000fd5b600080fd5b6000601f19601f8301169050919050565b7f4f6e6c7920746865206f776e65722063616e2063616c6c20746869732066756e60008201527f6374696f6e000000000000000000000000000000000000000000000000000000602082015250565b7f4e6f7420656e6f756768206574686572207761732073656e7400000000000000600082015250565b6109ea81610877565b81146109f557600080fd5b50565b610a0181610889565b8114610a0c57600080fd5b50565b610a18816108b5565b8114610a2357600080fd5b5056fea26469706673582212202f65e0d6960889255b6976864afba984d7ba89d102f2d7a1276c69b9a7d7eb6f64736f6c63430008070033",
  "linkReferences": {},
  "deployedLinkReferences": {}
}