{
  "_format": "hh-sol-artifact-1",
  "contractName": "Main",
  "sourceName": "contracts/Main.sol",
  "abi": [
    {
      "inputs": [],
      "stateMutability": "nonpayable",
      "type": "constructor"
    },
    {
      "anonymous": false,
      "inputs": [
        {
          "indexed": false,
          "internalType": "uint256",
          "name": "flatId",
          "type": "uint256"
        },
        {
          "indexed": false,
          "internalType": "contract Flat",
          "name": "flat",
          "type": "address"
        },
        {
          "indexed": false,
          "internalType": "address",
          "name": "owner",
          "type": "address"
        }
      ],
      "name": "NewFlat",
      "type": "event"
    },
    {
      "anonymous": false,
      "inputs": [
        {
          "indexed": false,
          "internalType": "uint256",
          "name": "houseId",
          "type": "uint256"
        },
        {
          "indexed": false,
          "internalType": "address",
          "name": "house",
          "type": "address"
        },
        {
          "indexed": false,
          "internalType": "address",
          "name": "owner",
          "type": "address"
        }
      ],
      "name": "NewHouse",
      "type": "event"
    },
    {
      "inputs": [
        {
          "internalType": "uint256",
          "name": "_bedrooms",
          "type": "uint256"
        },
        {
          "internalType": "uint256",
          "name": "_bathrooms",
          "type": "uint256"
        },
        {
          "internalType": "uint256",
          "name": "_floor",
          "type": "uint256"
        },
        {
          "internalType": "string",
          "name": "_country",
          "type": "string"
        },
        {
          "internalType": "string",
          "name": "_city",
          "type": "string"
        },
        {
          "internalType": "bool",
          "name": "_forSale",
          "type": "bool"
        },
        {
          "internalType": "uint256",
          "name": "_price",
          "type": "uint256"
        }
      ],
      "name": "AddFlat",
      "outputs": [
        {
          "internalType": "uint256",
          "name": "",
          "type": "uint256"
        }
      ],
      "stateMutability": "nonpayable",
      "type": "function"
    },
    {
      "inputs": [
        {
          "internalType": "uint256",
          "name": "_bedrooms",
          "type": "uint256"
        },
        {
          "internalType": "uint256",
          "name": "_bathrooms",
          "type": "uint256"
        },
        {
          "internalType": "uint256",
          "name": "_sqrFootLand",
          "type": "uint256"
        },
        {
          "internalType": "uint256",
          "name": "_floors",
          "type": "uint256"
        },
        {
          "internalType": "string",
          "name": "_country",
          "type": "string"
        },
        {
          "internalType": "string",
          "name": "_city",
          "type": "string"
        },
        {
          "internalType": "bool",
          "name": "_forSale",
          "type": "bool"
        },
        {
          "internalType": "uint256",
          "name": "_price",
          "type": "uint256"
        }
      ],
      "name": "AddHouse",
      "outputs": [
        {
          "internalType": "uint256",
          "name": "",
          "type": "uint256"
        }
      ],
      "stateMutability": "nonpayable",
      "type": "function"
    },
    {
      "inputs": [
        {
          "internalType": "uint256",
          "name": "flatId",
          "type": "uint256"
        }
      ],
      "name": "buyFlat",
      "outputs": [],
      "stateMutability": "payable",
      "type": "function"
    },
    {
      "inputs": [
        {
          "internalType": "uint256",
          "name": "",
          "type": "uint256"
        }
      ],
      "name": "houses",
      "outputs": [
        {
          "internalType": "address",
          "name": "",
          "type": "address"
        }
      ],
      "stateMutability": "view",
      "type": "function"
    },
    {
      "inputs": [],
      "name": "owner",
      "outputs": [
        {
          "internalType": "address payable",
          "name": "",
          "type": "address"
        }
      ],
      "stateMutability": "view",
      "type": "function"
    }
  ],
  "bytecode": "0x608060405234801561001057600080fd5b5033600260006101000a81548173ffffffffffffffffffffffffffffffffffffffff021916908373ffffffffffffffffffffffffffffffffffffffff1602179055506000600381905550612dee806100696000396000f3fe608060405260043610620000505760003560e01c80630234333e14620000555780631f34486f14620000995780638da5cb5b14620000b9578063aeda852f14620000e9578063c2937025146200012d575b600080fd5b3480156200006257600080fd5b506200008160048036038101906200007b919062000632565b62000171565b60405162000090919062000998565b60405180910390f35b620000b76004803603810190620000b1919062000600565b620002d0565b005b348015620000c657600080fd5b50620000d16200037c565b604051620000e091906200097b565b60405180910390f35b348015620000f657600080fd5b506200011560048036038101906200010f919062000600565b620003a2565b6040516200012491906200095e565b60405180910390f35b3480156200013a57600080fd5b5062000159600480360381019062000153919062000723565b620003d5565b60405162000168919062000998565b60405180910390f35b60008088888888888888604051620001899062000538565b6200019b979695949392919062000a2f565b604051809103906000f080158015620001b8573d6000803e3d6000fd5b50905060036000815480929190620001d09062000d01565b9190505550600033600354604051602001620001ed919062000941565b604051602081830303815290604052805190602001206040516020016200021692919062000911565b6040516020818303038152906040528051906020012060001c9050816001600083815260200190815260200160002060006101000a81548173ffffffffffffffffffffffffffffffffffffffff021916908373ffffffffffffffffffffffffffffffffffffffff1602179055507f1834aaa59a684c87830f389308fdbdfeedd9692177638855c71e46f1a8eda746818333604051620002b893929190620009f2565b60405180910390a18092505050979650505050505050565b60006001600083815260200190815260200160002060009054906101000a900473ffffffffffffffffffffffffffffffffffffffff1690508073ffffffffffffffffffffffffffffffffffffffff1663a6f9dae134336040518363ffffffff1660e01b81526004016200034491906200095e565b6000604051808303818588803b1580156200035e57600080fd5b505af115801562000373573d6000803e3d6000fd5b50505050505050565b600260009054906101000a900473ffffffffffffffffffffffffffffffffffffffff1681565b60006020528060005260406000206000915054906101000a900473ffffffffffffffffffffffffffffffffffffffff1681565b600080898989898989898933604051620003ef9062000546565b620004039998979695949392919062000aba565b604051809103906000f08015801562000420573d6000803e3d6000fd5b50905060036000815480929190620004389062000d01565b919050555060003360035460405160200162000455919062000941565b604051602081830303815290604052805190602001206040516020016200047e92919062000911565b6040516020818303038152906040528051906020012060001c90508160008083815260200190815260200160002060006101000a81548173ffffffffffffffffffffffffffffffffffffffff021916908373ffffffffffffffffffffffffffffffffffffffff1602179055507f32f3d3bca60f559e4db02a6a6df5d79f05b34e56d933ed6fc8ce1f2da6ad4a4e8183336040516200051f93929190620009b5565b60405180910390a1809250505098975050505050505050565b610f5c8062000e5083390190565b61100d8062001dac83390190565b60006200056b620005658462000b90565b62000b67565b9050828152602081018484840111156200058a576200058962000dee565b5b6200059784828562000c86565b509392505050565b600081359050620005b08162000e1b565b92915050565b600082601f830112620005ce57620005cd62000de9565b5b8135620005e084826020860162000554565b91505092915050565b600081359050620005fa8162000e35565b92915050565b60006020828403121562000619576200061862000df8565b5b60006200062984828501620005e9565b91505092915050565b600080600080600080600060e0888a03121562000654576200065362000df8565b5b6000620006648a828b01620005e9565b9750506020620006778a828b01620005e9565b96505060406200068a8a828b01620005e9565b955050606088013567ffffffffffffffff811115620006ae57620006ad62000df3565b5b620006bc8a828b01620005b6565b945050608088013567ffffffffffffffff811115620006e057620006df62000df3565b5b620006ee8a828b01620005b6565b93505060a0620007018a828b016200059f565b92505060c0620007148a828b01620005e9565b91505092959891949750929550565b600080600080600080600080610100898b03121562000747576200074662000df8565b5b6000620007578b828c01620005e9565b98505060206200076a8b828c01620005e9565b97505060406200077d8b828c01620005e9565b9650506060620007908b828c01620005e9565b955050608089013567ffffffffffffffff811115620007b457620007b362000df3565b5b620007c28b828c01620005b6565b94505060a089013567ffffffffffffffff811115620007e657620007e562000df3565b5b620007f48b828c01620005b6565b93505060c0620008078b828c016200059f565b92505060e06200081a8b828c01620005e9565b9150509295985092959890939650565b620008358162000bf6565b82525050565b620008468162000be2565b82525050565b620008616200085b8262000be2565b62000d4f565b82525050565b620008728162000c0a565b82525050565b6200088d620008878262000c16565b62000d63565b82525050565b6200089e8162000c4a565b82525050565b6000620008b18262000bc6565b620008bd818562000bd1565b9350620008cf81856020860162000c95565b620008da8162000dfd565b840191505092915050565b620008f08162000c40565b82525050565b6200090b620009058262000c40565b62000d81565b82525050565b60006200091f82856200084c565b60148201915062000931828462000878565b6020820191508190509392505050565b60006200094f8284620008f6565b60208201915081905092915050565b60006020820190506200097560008301846200083b565b92915050565b60006020820190506200099260008301846200082a565b92915050565b6000602082019050620009af6000830184620008e5565b92915050565b6000606082019050620009cc6000830186620008e5565b620009db60208301856200083b565b620009ea60408301846200083b565b949350505050565b600060608201905062000a096000830186620008e5565b62000a18602083018562000893565b62000a2760408301846200083b565b949350505050565b600060e08201905062000a46600083018a620008e5565b62000a556020830189620008e5565b62000a646040830188620008e5565b818103606083015262000a788187620008a4565b9050818103608083015262000a8e8186620008a4565b905062000a9f60a083018562000867565b62000aae60c0830184620008e5565b98975050505050505050565b60006101208201905062000ad2600083018c620008e5565b62000ae1602083018b620008e5565b62000af0604083018a620008e5565b62000aff6060830189620008e5565b818103608083015262000b138188620008a4565b905081810360a083015262000b298187620008a4565b905062000b3a60c083018662000867565b62000b4960e0830185620008e5565b62000b596101008301846200083b565b9a9950505050505050505050565b600062000b7362000b86565b905062000b81828262000ccb565b919050565b6000604051905090565b600067ffffffffffffffff82111562000bae5762000bad62000dba565b5b62000bb98262000dfd565b9050602081019050919050565b600081519050919050565b600082825260208201905092915050565b600062000bef8262000c20565b9050919050565b600062000c038262000c20565b9050919050565b60008115159050919050565b6000819050919050565b600073ffffffffffffffffffffffffffffffffffffffff82169050919050565b6000819050919050565b600062000c578262000c5e565b9050919050565b600062000c6b8262000c72565b9050919050565b600062000c7f8262000c20565b9050919050565b82818337600083830152505050565b60005b8381101562000cb557808201518184015260208101905062000c98565b8381111562000cc5576000848401525b50505050565b62000cd68262000dfd565b810181811067ffffffffffffffff8211171562000cf85762000cf762000dba565b5b80604052505050565b600062000d0e8262000c40565b91507fffffffffffffffffffffffffffffffffffffffffffffffffffffffffffffffff82141562000d445762000d4362000d8b565b5b600182019050919050565b600062000d5c8262000d6d565b9050919050565b6000819050919050565b600062000d7a8262000e0e565b9050919050565b6000819050919050565b7f4e487b7100000000000000000000000000000000000000000000000000000000600052601160045260246000fd5b7f4e487b7100000000000000000000000000000000000000000000000000000000600052604160045260246000fd5b600080fd5b600080fd5b600080fd5b600080fd5b6000601f19601f8301169050919050565b60008160601b9050919050565b62000e268162000c0a565b811462000e3257600080fd5b50565b62000e408162000c40565b811462000e4c57600080fd5b5056fe60806040523480156200001157600080fd5b5060405162000f5c38038062000f5c833981810160405281019062000037919062000248565b336000806101000a81548173ffffffffffffffffffffffffffffffffffffffff021916908373ffffffffffffffffffffffffffffffffffffffff1602179055508660018190555085600281905550846003819055508360049080519060200190620000a4929190620000ec565b508260059080519060200190620000bd929190620000ec565b5081600660006101000a81548160ff021916908315150217905550806007819055505050505050505062000507565b828054620000fa90620003e4565b90600052602060002090601f0160209004810192826200011e57600085556200016a565b82601f106200013957805160ff19168380011785556200016a565b828001600101855582156200016a579182015b82811115620001695782518255916020019190600101906200014c565b5b5090506200017991906200017d565b5090565b5b80821115620001985760008160009055506001016200017e565b5090565b6000620001b3620001ad8462000362565b62000339565b905082815260208101848484011115620001d257620001d1620004b3565b5b620001df848285620003ae565b509392505050565b600081519050620001f881620004d3565b92915050565b600082601f830112620002165762000215620004ae565b5b8151620002288482602086016200019c565b91505092915050565b6000815190506200024281620004ed565b92915050565b600080600080600080600060e0888a0312156200026a5762000269620004bd565b5b60006200027a8a828b0162000231565b97505060206200028d8a828b0162000231565b9650506040620002a08a828b0162000231565b955050606088015167ffffffffffffffff811115620002c457620002c3620004b8565b5b620002d28a828b01620001fe565b945050608088015167ffffffffffffffff811115620002f657620002f5620004b8565b5b620003048a828b01620001fe565b93505060a0620003178a828b01620001e7565b92505060c06200032a8a828b0162000231565b91505092959891949750929550565b60006200034562000358565b90506200035382826200041a565b919050565b6000604051905090565b600067ffffffffffffffff82111562000380576200037f6200047f565b5b6200038b82620004c2565b9050602081019050919050565b60008115159050919050565b6000819050919050565b60005b83811015620003ce578082015181840152602081019050620003b1565b83811115620003de576000848401525b50505050565b60006002820490506001821680620003fd57607f821691505b6020821081141562000414576200041362000450565b5b50919050565b6200042582620004c2565b810181811067ffffffffffffffff821117156200044757620004466200047f565b5b80604052505050565b7f4e487b7100000000000000000000000000000000000000000000000000000000600052602260045260246000fd5b7f4e487b7100000000000000000000000000000000000000000000000000000000600052604160045260246000fd5b600080fd5b600080fd5b600080fd5b600080fd5b6000601f19601f8301169050919050565b620004de8162000398565b8114620004ea57600080fd5b50565b620004f881620003a4565b81146200050457600080fd5b50565b610a4580620005176000396000f3fe60806040526004361061003f5760003560e01c8063485f4767146100445780635e3754751461006d578063a6f9dae114610096578063fbbf93a0146100b2575b600080fd5b34801561005057600080fd5b5061006b60048036038101906100669190610672565b6100e3565b005b34801561007957600080fd5b50610094600480360381019061008f9190610632565b61017e565b005b6100b060048036038101906100ab9190610605565b61022c565b005b3480156100be57600080fd5b506100c761046c565b6040516100da97969594939291906107c7565b60405180910390f35b8060008054906101000a900473ffffffffffffffffffffffffffffffffffffffff1673ffffffffffffffffffffffffffffffffffffffff168173ffffffffffffffffffffffffffffffffffffffff1614610172576040517f08c379a000000000000000000000000000000000000000000000000000000000815260040161016990610787565b60405180910390fd5b82600781905550505050565b8060008054906101000a900473ffffffffffffffffffffffffffffffffffffffff1673ffffffffffffffffffffffffffffffffffffffff168173ffffffffffffffffffffffffffffffffffffffff161461020d576040517f08c379a000000000000000000000000000000000000000000000000000000000815260040161020490610787565b60405180910390fd5b82600660006101000a81548160ff021916908315150217905550505050565b60011515600660009054906101000a900460ff1615151461024c57600080fd5b6007543410156102d8578073ffffffffffffffffffffffffffffffffffffffff166108fc349081150290604051600060405180830381858888f1935050505015801561029c573d6000803e3d6000fd5b506040517f08c379a00000000000000000000000000000000000000000000000000000000081526004016102cf906107a7565b60405180910390fd5b60008054906101000a900473ffffffffffffffffffffffffffffffffffffffff1673ffffffffffffffffffffffffffffffffffffffff166108fc349081150290604051600060405180830381858888f1935050505015801561033e573d6000803e3d6000fd5b5060008054906101000a900473ffffffffffffffffffffffffffffffffffffffff16600960006101000a81548173ffffffffffffffffffffffffffffffffffffffff021916908373ffffffffffffffffffffffffffffffffffffffff160217905550806000806101000a81548173ffffffffffffffffffffffffffffffffffffffff021916908373ffffffffffffffffffffffffffffffffffffffff1602179055506000600660006101000a81548160ff02191690831515021790555060075460088190555060006007819055507f4dc7e7dcee44619d786319fc36fdafae2d190c6bc41a6110bcb967a6b10ffa52600960009054906101000a900473ffffffffffffffffffffffffffffffffffffffff1660085460405161046192919061075e565b60405180910390a150565b600080600060608060008060015460025460035460046005600660009054906101000a900460ff166007548380546104a3906108db565b80601f01602080910402602001604051908101604052809291908181526020018280546104cf906108db565b801561051c5780601f106104f15761010080835404028352916020019161051c565b820191906000526020600020905b8154815290600101906020018083116104ff57829003601f168201915b5050505050935082805461052f906108db565b80601f016020809104026020016040519081016040528092919081815260200182805461055b906108db565b80156105a85780601f1061057d576101008083540402835291602001916105a8565b820191906000526020600020905b81548152906001019060200180831161058b57829003601f168201915b50505050509250965096509650965096509650965090919293949596565b6000813590506105d5816109ca565b92915050565b6000813590506105ea816109e1565b92915050565b6000813590506105ff816109f8565b92915050565b60006020828403121561061b5761061a61093c565b5b6000610629848285016105c6565b91505092915050565b600080604083850312156106495761064861093c565b5b6000610657858286016105db565b9250506020610668858286016105c6565b9150509250929050565b600080604083850312156106895761068861093c565b5b6000610697858286016105f0565b92505060206106a8858286016105c6565b9150509250929050565b6106bb81610860565b82525050565b6106ca81610872565b82525050565b60006106db82610844565b6106e5818561084f565b93506106f58185602086016108a8565b6106fe81610941565b840191505092915050565b600061071660258361084f565b915061072182610952565b604082019050919050565b600061073960198361084f565b9150610744826109a1565b602082019050919050565b6107588161089e565b82525050565b600060408201905061077360008301856106b2565b610780602083018461074f565b9392505050565b600060208201905081810360008301526107a081610709565b9050919050565b600060208201905081810360008301526107c08161072c565b9050919050565b600060e0820190506107dc600083018a61074f565b6107e9602083018961074f565b6107f6604083018861074f565b818103606083015261080881876106d0565b9050818103608083015261081c81866106d0565b905061082b60a08301856106c1565b61083860c083018461074f565b98975050505050505050565b600081519050919050565b600082825260208201905092915050565b600061086b8261087e565b9050919050565b60008115159050919050565b600073ffffffffffffffffffffffffffffffffffffffff82169050919050565b6000819050919050565b60005b838110156108c65780820151818401526020810190506108ab565b838111156108d5576000848401525b50505050565b600060028204905060018216806108f357607f821691505b602082108114156109075761090661090d565b5b50919050565b7f4e487b7100000000000000000000000000000000000000000000000000000000600052602260045260246000fd5b600080fd5b6000601f19601f8301169050919050565b7f4f6e6c7920746865206f776e65722063616e2063616c6c20746869732066756e60008201527f6374696f6e000000000000000000000000000000000000000000000000000000602082015250565b7f4e6f7420656e6f756768206574686572207761732073656e7400000000000000600082015250565b6109d381610860565b81146109de57600080fd5b50565b6109ea81610872565b81146109f557600080fd5b50565b610a018161089e565b8114610a0c57600080fd5b5056fea2646970667358221220b4faa5c7ac6bb3b6a807a45ab8adfa58c5fcbd8f3a206c39d86502e85eb7078764736f6c6343000807003360806040523480156200001157600080fd5b506040516200100d3803806200100d833981810160405281019062000037919062000268565b806000806101000a81548173ffffffffffffffffffffffffffffffffffffffff021916908373ffffffffffffffffffffffffffffffffffffffff160217905550886001819055508760028190555086600381905550856004819055508460059080519060200190620000ab929190620000f5565b508360069080519060200190620000c4929190620000f5565b5082600760006101000a81548160ff02191690831515021790555081600881905550505050505050505050620005a1565b828054620001039062000464565b90600052602060002090601f01602090048101928262000127576000855562000173565b82601f106200014257805160ff191683800117855562000173565b8280016001018555821562000173579182015b828111156200017257825182559160200191906001019062000155565b5b50905062000182919062000186565b5090565b5b80821115620001a157600081600090555060010162000187565b5090565b6000620001bc620001b684620003ae565b62000385565b905082815260208101848484011115620001db57620001da62000533565b5b620001e88482856200042e565b509392505050565b600081519050620002018162000553565b92915050565b60008151905062000218816200056d565b92915050565b600082601f8301126200023657620002356200052e565b5b815162000248848260208601620001a5565b91505092915050565b600081519050620002628162000587565b92915050565b60008060008060008060008060006101208a8c0312156200028e576200028d6200053d565b5b60006200029e8c828d0162000251565b9950506020620002b18c828d0162000251565b9850506040620002c48c828d0162000251565b9750506060620002d78c828d0162000251565b96505060808a015167ffffffffffffffff811115620002fb57620002fa62000538565b5b620003098c828d016200021e565b95505060a08a015167ffffffffffffffff8111156200032d576200032c62000538565b5b6200033b8c828d016200021e565b94505060c06200034e8c828d0162000207565b93505060e0620003618c828d0162000251565b925050610100620003758c828d01620001f0565b9150509295985092959850929598565b600062000391620003a4565b90506200039f82826200049a565b919050565b6000604051905090565b600067ffffffffffffffff821115620003cc57620003cb620004ff565b5b620003d78262000542565b9050602081019050919050565b6000620003f18262000404565b9050919050565b60008115159050919050565b600073ffffffffffffffffffffffffffffffffffffffff82169050919050565b6000819050919050565b60005b838110156200044e57808201518184015260208101905062000431565b838111156200045e576000848401525b50505050565b600060028204905060018216806200047d57607f821691505b60208210811415620004945762000493620004d0565b5b50919050565b620004a58262000542565b810181811067ffffffffffffffff82111715620004c757620004c6620004ff565b5b80604052505050565b7f4e487b7100000000000000000000000000000000000000000000000000000000600052602260045260246000fd5b7f4e487b7100000000000000000000000000000000000000000000000000000000600052604160045260246000fd5b600080fd5b600080fd5b600080fd5b600080fd5b6000601f19601f8301169050919050565b6200055e81620003e4565b81146200056a57600080fd5b50565b6200057881620003f8565b81146200058457600080fd5b50565b620005928162000424565b81146200059e57600080fd5b50565b610a5c80620005b16000396000f3fe60806040526004361061003f5760003560e01c8063485f4767146100445780635e3754751461006d578063a6f9dae114610096578063fbbf93a0146100b2575b600080fd5b34801561005057600080fd5b5061006b6004803603810190610066919061067a565b6100e4565b005b34801561007957600080fd5b50610094600480360381019061008f919061063a565b61017f565b005b6100b060048036038101906100ab919061060d565b61022d565b005b3480156100be57600080fd5b506100c761046d565b6040516100db9897969594939291906107cf565b60405180910390f35b8060008054906101000a900473ffffffffffffffffffffffffffffffffffffffff1673ffffffffffffffffffffffffffffffffffffffff168173ffffffffffffffffffffffffffffffffffffffff1614610173576040517f08c379a000000000000000000000000000000000000000000000000000000000815260040161016a9061078f565b60405180910390fd5b82600881905550505050565b8060008054906101000a900473ffffffffffffffffffffffffffffffffffffffff1673ffffffffffffffffffffffffffffffffffffffff168173ffffffffffffffffffffffffffffffffffffffff161461020e576040517f08c379a00000000000000000000000000000000000000000000000000000000081526004016102059061078f565b60405180910390fd5b82600760006101000a81548160ff021916908315150217905550505050565b60011515600760009054906101000a900460ff1615151461024d57600080fd5b6008543410156102d9578073ffffffffffffffffffffffffffffffffffffffff166108fc349081150290604051600060405180830381858888f1935050505015801561029d573d6000803e3d6000fd5b506040517f08c379a00000000000000000000000000000000000000000000000000000000081526004016102d0906107af565b60405180910390fd5b60008054906101000a900473ffffffffffffffffffffffffffffffffffffffff1673ffffffffffffffffffffffffffffffffffffffff166108fc349081150290604051600060405180830381858888f1935050505015801561033f573d6000803e3d6000fd5b5060008054906101000a900473ffffffffffffffffffffffffffffffffffffffff16600a60006101000a81548173ffffffffffffffffffffffffffffffffffffffff021916908373ffffffffffffffffffffffffffffffffffffffff160217905550806000806101000a81548173ffffffffffffffffffffffffffffffffffffffff021916908373ffffffffffffffffffffffffffffffffffffffff1602179055506000600760006101000a81548160ff02191690831515021790555060085460098190555060006008819055507f4dc7e7dcee44619d786319fc36fdafae2d190c6bc41a6110bcb967a6b10ffa52600a60009054906101000a900473ffffffffffffffffffffffffffffffffffffffff16600954604051610462929190610766565b60405180910390a150565b60008060008060608060008060015460025460045460035460056006600760009054906101000a900460ff166008548380546104a8906108f2565b80601f01602080910402602001604051908101604052809291908181526020018280546104d4906108f2565b80156105215780601f106104f657610100808354040283529160200191610521565b820191906000526020600020905b81548152906001019060200180831161050457829003601f168201915b50505050509350828054610534906108f2565b80601f0160208091040260200160405190810160405280929190818152602001828054610560906108f2565b80156105ad5780601f10610582576101008083540402835291602001916105ad565b820191906000526020600020905b81548152906001019060200180831161059057829003601f168201915b50505050509250975097509750975097509750975097509091929394959697565b6000813590506105dd816109e1565b92915050565b6000813590506105f2816109f8565b92915050565b60008135905061060781610a0f565b92915050565b60006020828403121561062357610622610953565b5b6000610631848285016105ce565b91505092915050565b6000806040838503121561065157610650610953565b5b600061065f858286016105e3565b9250506020610670858286016105ce565b9150509250929050565b6000806040838503121561069157610690610953565b5b600061069f858286016105f8565b92505060206106b0858286016105ce565b9150509250929050565b6106c381610877565b82525050565b6106d281610889565b82525050565b60006106e38261085b565b6106ed8185610866565b93506106fd8185602086016108bf565b61070681610958565b840191505092915050565b600061071e602583610866565b915061072982610969565b604082019050919050565b6000610741601983610866565b915061074c826109b8565b602082019050919050565b610760816108b5565b82525050565b600060408201905061077b60008301856106ba565b6107886020830184610757565b9392505050565b600060208201905081810360008301526107a881610711565b9050919050565b600060208201905081810360008301526107c881610734565b9050919050565b6000610100820190506107e5600083018b610757565b6107f2602083018a610757565b6107ff6040830189610757565b61080c6060830188610757565b818103608083015261081e81876106d8565b905081810360a083015261083281866106d8565b905061084160c08301856106c9565b61084e60e0830184610757565b9998505050505050505050565b600081519050919050565b600082825260208201905092915050565b600061088282610895565b9050919050565b60008115159050919050565b600073ffffffffffffffffffffffffffffffffffffffff82169050919050565b6000819050919050565b60005b838110156108dd5780820151818401526020810190506108c2565b838111156108ec576000848401525b50505050565b6000600282049050600182168061090a57607f821691505b6020821081141561091e5761091d610924565b5b50919050565b7f4e487b7100000000000000000000000000000000000000000000000000000000600052602260045260246000fd5b600080fd5b6000601f19601f8301169050919050565b7f4f6e6c7920746865206f776e65722063616e2063616c6c20746869732066756e60008201527f6374696f6e000000000000000000000000000000000000000000000000000000602082015250565b7f4e6f7420656e6f756768206574686572207761732073656e7400000000000000600082015250565b6109ea81610877565b81146109f557600080fd5b50565b610a0181610889565b8114610a0c57600080fd5b50565b610a18816108b5565b8114610a2357600080fd5b5056fea26469706673582212202f65e0d6960889255b6976864afba984d7ba89d102f2d7a1276c69b9a7d7eb6f64736f6c63430008070033a26469706673582212202495fbc813c8533020ea90b73471169a01f5b62111762d926eecef3a7087685964736f6c63430008070033",
  "linkReferences": {},
  "deployedLinkReferences": {}
}